{
	"data": {
		"bytecode": {
			"linkReferences": {},
			"object": "60e06040526001600560146101000a81548160ff0219169083151502179055506001600560156101000a81548160ff0219169083151502179055506127106010556064601155606460125560c860135560c860145561012c60155561012c60165561012c6017556105dc60185560646019556064601a5560c8601b5560c8601c5561012c601d5561012c601e5561012c601f556105dc602055348015620000a4575f80fd5b5060405162005b1638038062005b168339818101604052810190620000ca9190620006d5565b6040518060400160405280600481526020017f54657374000000000000000000000000000000000000000000000000000000008152506040518060400160405280600281526020017f54540000000000000000000000000000000000000000000000000000000000008152508160039081620001479190620009a8565b508060049081620001599190620009a8565b5050506200017c62000170620003f560201b60201c565b620003fc60201b60201c565b5f692c781f708c509f40000090508460265f6101000a81548173ffffffffffffffffffffffffffffffffffffffff021916908373ffffffffffffffffffffffffffffffffffffffff160217905550600160075f620001df620003f560201b60201c565b73ffffffffffffffffffffffffffffffffffffffff1673ffffffffffffffffffffffffffffffffffffffff1681526020019081526020015f205f6101000a81548160ff021916908315150217905550600160075f3073ffffffffffffffffffffffffffffffffffffffff1673ffffffffffffffffffffffffffffffffffffffff1681526020019081526020015f205f6101000a81548160ff021916908315150217905550600160065f3373ffffffffffffffffffffffffffffffffffffffff1673ffffffffffffffffffffffffffffffffffffffff1681526020019081526020015f205f6101000a81548160ff021916908315150217905550600160065f3073ffffffffffffffffffffffffffffffffffffffff1673ffffffffffffffffffffffffffffffffffffffff1681526020019081526020015f205f6101000a81548160ff0219169083151502179055508373ffffffffffffffffffffffffffffffffffffffff1660808173ffffffffffffffffffffffffffffffffffffffff16815250508273ffffffffffffffffffffffffffffffffffffffff1660a08173ffffffffffffffffffffffffffffffffffffffff16815250508173ffffffffffffffffffffffffffffffffffffffff1660c08173ffffffffffffffffffffffffffffffffffffffff1681525050620003ea620003dd620003f560201b60201c565b82620004bf60201b60201c565b505050505062000b9d565b5f33905090565b5f60055f9054906101000a900473ffffffffffffffffffffffffffffffffffffffff1690508160055f6101000a81548173ffffffffffffffffffffffffffffffffffffffff021916908373ffffffffffffffffffffffffffffffffffffffff1602179055508173ffffffffffffffffffffffffffffffffffffffff168173ffffffffffffffffffffffffffffffffffffffff167f8be0079c531659141344cd1fd0a4f28419497f9722a3daafe3b4186f6b6457e060405160405180910390a35050565b5f73ffffffffffffffffffffffffffffffffffffffff168273ffffffffffffffffffffffffffffffffffffffff160362000530576040517f08c379a0000000000000000000000000000000000000000000000000000000008152600401620005279062000aea565b60405180910390fd5b620005435f83836200062460201b60201c565b8060025f82825462000556919062000b37565b92505081905550805f808473ffffffffffffffffffffffffffffffffffffffff1673ffffffffffffffffffffffffffffffffffffffff1681526020019081526020015f205f82825401925050819055508173ffffffffffffffffffffffffffffffffffffffff165f73ffffffffffffffffffffffffffffffffffffffff167fddf252ad1be2c89b69c2b068fc378daa952ba7f163c4a11628f55a4df523b3ef8360405162000605919062000b82565b60405180910390a3620006205f83836200062960201b60201c565b5050565b505050565b505050565b5f80fd5b5f73ffffffffffffffffffffffffffffffffffffffff82169050919050565b5f6200065d8262000632565b9050919050565b5f620006708262000651565b9050919050565b620006828162000664565b81146200068d575f80fd5b50565b5f81519050620006a08162000677565b92915050565b620006b18162000651565b8114620006bc575f80fd5b50565b5f81519050620006cf81620006a6565b92915050565b5f805f8060808587031215620006f057620006ef6200062e565b5b5f620006ff8782880162000690565b94505060206200071287828801620006bf565b93505060406200072587828801620006bf565b92505060606200073887828801620006bf565b91505092959194509250565b5f81519050919050565b7f4e487b71000000000000000000000000000000000000000000000000000000005f52604160045260245ffd5b7f4e487b71000000000000000000000000000000000000000000000000000000005f52602260045260245ffd5b5f6002820490506001821680620007c057607f821691505b602082108103620007d657620007d56200077b565b5b50919050565b5f819050815f5260205f209050919050565b5f6020601f8301049050919050565b5f82821b905092915050565b5f600883026200083a7fffffffffffffffffffffffffffffffffffffffffffffffffffffffffffffffff82620007fd565b620008468683620007fd565b95508019841693508086168417925050509392505050565b5f819050919050565b5f819050919050565b5f620008906200088a62000884846200085e565b62000867565b6200085e565b9050919050565b5f819050919050565b620008ab8362000870565b620008c3620008ba8262000897565b84845462000809565b825550505050565b5f90565b620008d9620008cb565b620008e6818484620008a0565b505050565b5b818110156200090d57620009015f82620008cf565b600181019050620008ec565b5050565b601f8211156200095c576200092681620007dc565b6200093184620007ee565b8101602085101562000941578190505b620009596200095085620007ee565b830182620008eb565b50505b505050565b5f82821c905092915050565b5f6200097e5f198460080262000961565b1980831691505092915050565b5f6200099883836200096d565b9150826002028217905092915050565b620009b38262000744565b67ffffffffffffffff811115620009cf57620009ce6200074e565b5b620009db8254620007a8565b620009e882828562000911565b5f60209050601f83116001811462000a1e575f841562000a09578287015190505b62000a1585826200098b565b86555062000a84565b601f19841662000a2e86620007dc565b5f5b8281101562000a575784890151825560018201915060208501945060208101905062000a30565b8683101562000a77578489015162000a73601f8916826200096d565b8355505b6001600288020188555050505b505050505050565b5f82825260208201905092915050565b7f45524332303a206d696e7420746f20746865207a65726f2061646472657373005f82015250565b5f62000ad2601f8362000a8c565b915062000adf8262000a9c565b602082019050919050565b5f6020820190508181035f83015262000b038162000ac4565b9050919050565b7f4e487b71000000000000000000000000000000000000000000000000000000005f52601160045260245ffd5b5f62000b43826200085e565b915062000b50836200085e565b925082820190508082111562000b6b5762000b6a62000b0a565b5b92915050565b62000b7c816200085e565b82525050565b5f60208201905062000b975f83018462000b71565b92915050565b60805160a05160c051614f1662000c005f395f81816114990152818161258101526133c901525f818161243b015281816126fd0152818161278c0152818161346b015281816134fa01528181613730015261375701525f61145d0152614f165ff3fe60806040526004361061039a575f3560e01c806382d20116116101db578063b8c6113011610101578063cdba31fd1161009f578063e1e5a66d1161006e578063e1e5a66d14610d27578063e5e31b1314610d51578063f2fde38b14610d8d578063fb5f27fb14610db5576103a1565b8063cdba31fd14610c6d578063d830678614610c97578063dbd6c48914610cc1578063dd62ed3e14610ceb576103a1565b8063bfa382b5116100db578063bfa382b514610bc7578063c2b7bbb614610bdd578063c6d2577d14610c19578063cb806e0714610c43576103a1565b8063b8c6113014610b39578063bdf391cc14610b61578063bf56b37114610b9d576103a1565b806395d89b4111610179578063aac46c9511610148578063aac46c9514610a93578063ace1880114610abb578063b6309f6814610ae5578063b7eed4c414610b0f576103a1565b806395d89b41146109b5578063a457c2d7146109df578063a5bc508514610a1b578063a9059cbb14610a57576103a1565b806386c8782f116101b557806386c8782f146109235780638da5cb5b1461094d5780638fbbd750146109775780639272293c1461098d576103a1565b806382d20116146108a557806386013940146108cf578063861faf5f146108f9576103a1565b80632d2f244b116102c0578063531484161161025e57806370a082311161022d57806370a08231146107ed57806370c8810e14610829578063715018a6146108535780638072250b14610869576103a1565b80635314841614610747578063658d4b7f146107715780636c470595146107995780636ddd1713146107c3576103a1565b8063395093511161029a57806339509351146106915780633f4218e0146106cd5780634460d3cf146107095780634fab9e4c14610731576103a1565b80632d2f244b14610627578063313ce56714610651578063364333f41461067b576103a1565b806312835c5e1161033857806318abb6351161030757806318abb6351461056f578063234a2daa1461059757806323b872dd146105c15780632b112e49146105fd576103a1565b806312835c5e146104c757806315674e8e146104f1578063180b0d7e1461051b57806318160ddd14610545576103a1565b806306fdde031161037457806306fdde031461040f578063095ea7b3146104395780630ca5979b146104755780631107b3a51461049d576103a1565b806301339c21146103a5578063017e24e1146103bb5780630323aac7146103e5576103a1565b366103a157005b5f80fd5b3480156103b0575f80fd5b506103b9610ddf565b005b3480156103c6575f80fd5b506103cf610e3b565b6040516103dc9190613a03565b60405180910390f35b3480156103f0575f80fd5b506103f9610e41565b6040516104069190613a03565b60405180910390f35b34801561041a575f80fd5b50610423610e51565b6040516104309190613aa6565b60405180910390f35b348015610444575f80fd5b5061045f600480360381019061045a9190613b4e565b610ee1565b60405161046c9190613ba6565b60405180910390f35b348015610480575f80fd5b5061049b60048036038101906104969190613bbf565b610f03565b005b3480156104a8575f80fd5b506104b1610f78565b6040516104be9190613a03565b60405180910390f35b3480156104d2575f80fd5b506104db610f7e565b6040516104e89190613a03565b60405180910390f35b3480156104fc575f80fd5b50610505610f84565b6040516105129190613a03565b60405180910390f35b348015610526575f80fd5b5061052f610f8a565b60405161053c9190613a03565b60405180910390f35b348015610550575f80fd5b50610559610f90565b6040516105669190613a03565b60405180910390f35b34801561057a575f80fd5b5061059560048036038101906105909190613c5c565b610f99565b005b3480156105a2575f80fd5b506105ab611128565b6040516105b89190613a03565b60405180910390f35b3480156105cc575f80fd5b506105e760048036038101906105e29190613cd3565b61112e565b6040516105f49190613ba6565b60405180910390f35b348015610608575f80fd5b5061061161115a565b60405161061e9190613a03565b60405180910390f35b348015610632575f80fd5b5061063b611190565b6040516106489190613d7e565b60405180910390f35b34801561065c575f80fd5b506106656111b5565b6040516106729190613db2565b60405180910390f35b348015610686575f80fd5b5061068f6111bd565b005b34801561069c575f80fd5b506106b760048036038101906106b29190613b4e565b611303565b6040516106c49190613ba6565b60405180910390f35b3480156106d8575f80fd5b506106f360048036038101906106ee9190613dcb565b611339565b6040516107009190613ba6565b60405180910390f35b348015610714575f80fd5b5061072f600480360381019061072a9190613dcb565b611356565b005b34801561073c575f80fd5b50610745611403565b005b348015610752575f80fd5b5061075b61154a565b6040516107689190613a03565b60405180910390f35b34801561077c575f80fd5b5061079760048036038101906107929190613e20565b611550565b005b3480156107a4575f80fd5b506107ad6115b0565b6040516107ba9190613a03565b60405180910390f35b3480156107ce575f80fd5b506107d76115b6565b6040516107e49190613ba6565b60405180910390f35b3480156107f8575f80fd5b50610813600480360381019061080e9190613dcb565b6115c9565b6040516108209190613a03565b60405180910390f35b348015610834575f80fd5b5061083d61160e565b60405161084a9190613a03565b60405180910390f35b34801561085e575f80fd5b50610867611614565b005b348015610874575f80fd5b5061088f600480360381019061088a9190613dcb565b611627565b60405161089c9190613ba6565b60405180910390f35b3480156108b0575f80fd5b506108b9611644565b6040516108c69190613a03565b60405180910390f35b3480156108da575f80fd5b506108e361164a565b6040516108f09190613ba6565b60405180910390f35b348015610904575f80fd5b5061090d61165d565b60405161091a9190613e7e565b60405180910390f35b34801561092e575f80fd5b50610937611682565b6040516109449190613a03565b60405180910390f35b348015610958575f80fd5b50610961611688565b60405161096e9190613ea6565b60405180910390f35b348015610982575f80fd5b5061098b6116b0565b005b348015610998575f80fd5b506109b360048036038101906109ae9190613bbf565b6116c2565b005b3480156109c0575f80fd5b506109c9611737565b6040516109d69190613aa6565b60405180910390f35b3480156109ea575f80fd5b50610a056004803603810190610a009190613b4e565b6117c7565b604051610a129190613ba6565b60405180910390f35b348015610a26575f80fd5b50610a416004803603810190610a3c9190613dcb565b61183c565b604051610a4e9190613ba6565b60405180910390f35b348015610a62575f80fd5b50610a7d6004803603810190610a789190613b4e565b6118e7565b604051610a8a9190613ba6565b60405180910390f35b348015610a9e575f80fd5b50610ab96004803603810190610ab49190613ebf565b611902565b005b348015610ac6575f80fd5b50610acf611927565b604051610adc9190613a03565b60405180910390f35b348015610af0575f80fd5b50610af961192d565b604051610b069190613a03565b60405180910390f35b348015610b1a575f80fd5b50610b23611933565b604051610b309190613a03565b60405180910390f35b348015610b44575f80fd5b50610b5f6004803603810190610b5a9190613ebf565b611939565b005b348015610b6c575f80fd5b50610b876004803603810190610b829190613eea565b61195e565b604051610b949190613ea6565b60405180910390f35b348015610ba8575f80fd5b50610bb16119d2565b604051610bbe9190613a03565b60405180910390f35b348015610bd2575f80fd5b50610bdb6119d8565b005b348015610be8575f80fd5b50610c036004803603810190610bfe9190613dcb565b611ae5565b604051610c109190613ba6565b60405180910390f35b348015610c24575f80fd5b50610c2d611b77565b604051610c3a9190613a03565b60405180910390f35b348015610c4e575f80fd5b50610c57611b7d565b604051610c649190613a03565b60405180910390f35b348015610c78575f80fd5b50610c81611b83565b604051610c8e9190613a03565b60405180910390f35b348015610ca2575f80fd5b50610cab611b89565b604051610cb89190613ba6565b60405180910390f35b348015610ccc575f80fd5b50610cd5611b9c565b604051610ce29190613a03565b60405180910390f35b348015610cf6575f80fd5b50610d116004803603810190610d0c9190613f15565b611ba2565b604051610d1e9190613a03565b60405180910390f35b348015610d32575f80fd5b50610d3b611c24565b604051610d489190613a03565b60405180910390f35b348015610d5c575f80fd5b50610d776004803603810190610d729190613dcb565b611c2a565b604051610d849190613ba6565b60405180910390f35b348015610d98575f80fd5b50610db36004803603810190610dae9190613dcb565b611c46565b005b348015610dc0575f80fd5b50610dc9611cc8565b604051610dd69190613a03565b60405180910390f35b610de7611cce565b5f60275414610e2b576040517f08c379a0000000000000000000000000000000000000000000000000000000008152600401610e2290613f9d565b60405180910390fd5b4360278190555042602881905550565b600a5481565b5f610e4c602a611d4c565b905090565b606060038054610e6090613fe8565b80601f0160208091040260200160405190810160405280929190818152602001828054610e8c90613fe8565b8015610ed75780601f10610eae57610100808354040283529160200191610ed7565b820191905f5260205f20905b815481529060010190602001808311610eba57829003601f168201915b5050505050905090565b5f80610eeb611d5f565b9050610ef8818585611d66565b600191505092915050565b610f0b611cce565b866012819055508560138190555084601481905550836015819055508260168190555081601781905550806011819055508082848688610f4b9190614045565b610f559190614045565b610f5f9190614045565b610f699190614045565b60188190555050505050505050565b601c5481565b601f5481565b60115481565b60105481565b5f600254905090565b610fa1611cce565b8460215f6101000a81548173ffffffffffffffffffffffffffffffffffffffff021916908373ffffffffffffffffffffffffffffffffffffffff1602179055508360225f6101000a81548173ffffffffffffffffffffffffffffffffffffffff021916908373ffffffffffffffffffffffffffffffffffffffff1602179055508260235f6101000a81548173ffffffffffffffffffffffffffffffffffffffff021916908373ffffffffffffffffffffffffffffffffffffffff1602179055508160245f6101000a81548173ffffffffffffffffffffffffffffffffffffffff021916908373ffffffffffffffffffffffffffffffffffffffff1602179055508060255f6101000a81548173ffffffffffffffffffffffffffffffffffffffff021916908373ffffffffffffffffffffffffffffffffffffffff1602179055508060255f6101000a81548173ffffffffffffffffffffffffffffffffffffffff021916908373ffffffffffffffffffffffffffffffffffffffff1602179055505050505050565b60195481565b5f80611138611d5f565b9050611145858285611f29565b611150858585611fb4565b9150509392505050565b5f6111645f6115c9565b61116f61dead6115c9565b611177610f90565b6111819190614078565b61118b9190614078565b905090565b60245f9054906101000a900473ffffffffffffffffffffffffffffffffffffffff1681565b5f6006905090565b6111c5611cce565b60265f9054906101000a900473ffffffffffffffffffffffffffffffffffffffff1673ffffffffffffffffffffffffffffffffffffffff1663a9059cbb61120a611d5f565b60265f9054906101000a900473ffffffffffffffffffffffffffffffffffffffff1673ffffffffffffffffffffffffffffffffffffffff166370a08231306040518263ffffffff1660e01b81526004016112649190613ea6565b602060405180830381865afa15801561127f573d5f803e3d5ffd5b505050506040513d601f19601f820116820180604052508101906112a391906140bf565b6040518363ffffffff1660e01b81526004016112c09291906140ea565b6020604051808303815f875af11580156112dc573d5f803e3d5ffd5b505050506040513d601f19601f820116820180604052508101906113009190614125565b50565b5f8061130d611d5f565b905061132e81858561131f8589611ba2565b6113299190614045565b611d66565b600191505092915050565b6006602052805f5260405f205f915054906101000a900460ff1681565b61135e611cce565b611400338273ffffffffffffffffffffffffffffffffffffffff166370a08231306040518263ffffffff1660e01b815260040161139b9190613ea6565b602060405180830381865afa1580156113b6573d5f803e3d5ffd5b505050506040513d601f19601f820116820180604052508101906113da91906140bf565b8373ffffffffffffffffffffffffffffffffffffffff166122989092919063ffffffff16565b50565b61140b611cce565b60295f9054906101000a900460ff161561145a576040517f08c379a00000000000000000000000000000000000000000000000000000000081526004016114519061419a565b60405180910390fd5b5f7f000000000000000000000000000000000000000000000000000000000000000073ffffffffffffffffffffffffffffffffffffffff1663c9c653967f0000000000000000000000000000000000000000000000000000000000000000306040518363ffffffff1660e01b81526004016114d69291906141b8565b6020604051808303815f875af11580156114f2573d5f803e3d5ffd5b505050506040513d601f19601f8201168201806040525081019061151691906141f3565b905061152c81602a61231e90919063ffffffff16565b50600160295f6101000a81548160ff02191690831515021790555050565b60205481565b611558611cce565b8060065f8473ffffffffffffffffffffffffffffffffffffffff1673ffffffffffffffffffffffffffffffffffffffff1681526020019081526020015f205f6101000a81548160ff0219169083151502179055505050565b60155481565b600560149054906101000a900460ff1681565b5f805f8373ffffffffffffffffffffffffffffffffffffffff1673ffffffffffffffffffffffffffffffffffffffff1681526020019081526020015f20549050919050565b60125481565b61161c611cce565b6116255f61234b565b565b6007602052805f5260405f205f915054906101000a900460ff1681565b60145481565b600560159054906101000a900460ff1681565b60265f9054906101000a900473ffffffffffffffffffffffffffffffffffffffff1681565b60165481565b5f60055f9054906101000a900473ffffffffffffffffffffffffffffffffffffffff16905090565b6116b8611cce565b6116c061240e565b565b6116ca611cce565b86601a8190555085601b8190555084601c8190555083601d8190555082601e8190555081601f8190555080601981905550808284868861170a9190614045565b6117149190614045565b61171e9190614045565b6117289190614045565b60208190555050505050505050565b60606004805461174690613fe8565b80601f016020809104026020016040519081016040528092919081815260200182805461177290613fe8565b80156117bd5780601f10611794576101008083540402835291602001916117bd565b820191905f5260205f20905b8154815290600101906020018083116117a057829003601f168201915b5050505050905090565b5f806117d1611d5f565b90505f6117de8286611ba2565b905083811015611823576040517f08c379a000000000000000000000000000000000000000000000000000000000815260040161181a9061428e565b60405180910390fd5b6118308286868403611d66565b60019250505092915050565b5f611845611cce565b5f73ffffffffffffffffffffffffffffffffffffffff168273ffffffffffffffffffffffffffffffffffffffff16036118b3576040517f08c379a00000000000000000000000000000000000000000000000000000000081526004016118aa906142f6565b60405180910390fd5b5f60295f6101000a81548160ff0219169083151502179055506118e082602a612dca90919063ffffffff16565b9050919050565b5f6118fa6118f3611d5f565b8484611fb4565b905092915050565b61190a611cce565b80600560156101000a81548160ff02191690831515021790555050565b601e5481565b601b5481565b601d5481565b611941611cce565b80600560146101000a81548160ff02191690831515021790555050565b5f600161196b602a611d4c565b6119759190614078565b8211156119b7576040517f08c379a00000000000000000000000000000000000000000000000000000000081526004016119ae9061435e565b60405180910390fd5b6119cb82602a612df790919063ffffffff16565b9050919050565b60275481565b6119e0611cce565b5f4790505f6119ed611d5f565b73ffffffffffffffffffffffffffffffffffffffff16825f67ffffffffffffffff811115611a1e57611a1d61437c565b5b6040519080825280601f01601f191660200182016040528015611a505781602001600182028036833780820191505090505b50604051611a5e91906143ed565b5f6040518083038185875af1925050503d805f8114611a98576040519150601f19603f3d011682016040523d82523d5f602084013e611a9d565b606091505b5050905080611ae1576040517f08c379a0000000000000000000000000000000000000000000000000000000008152600401611ad89061444d565b60405180910390fd5b5050565b5f611aee611cce565b5f73ffffffffffffffffffffffffffffffffffffffff168273ffffffffffffffffffffffffffffffffffffffff1603611b5c576040517f08c379a0000000000000000000000000000000000000000000000000000000008152600401611b53906142f6565b60405180910390fd5b611b7082602a61231e90919063ffffffff16565b9050919050565b60285481565b60095481565b60175481565b600560169054906101000a900460ff1681565b601a5481565b5f60015f8473ffffffffffffffffffffffffffffffffffffffff1673ffffffffffffffffffffffffffffffffffffffff1681526020019081526020015f205f8373ffffffffffffffffffffffffffffffffffffffff1673ffffffffffffffffffffffffffffffffffffffff1681526020019081526020015f2054905092915050565b60135481565b5f611c3f82602a612e0e90919063ffffffff16565b9050919050565b611c4e611cce565b5f73ffffffffffffffffffffffffffffffffffffffff168173ffffffffffffffffffffffffffffffffffffffff1603611cbc576040517f08c379a0000000000000000000000000000000000000000000000000000000008152600401611cb3906144db565b60405180910390fd5b611cc58161234b565b50565b60185481565b611cd6611d5f565b73ffffffffffffffffffffffffffffffffffffffff16611cf4611688565b73ffffffffffffffffffffffffffffffffffffffff1614611d4a576040517f08c379a0000000000000000000000000000000000000000000000000000000008152600401611d4190614543565b60405180910390fd5b565b5f611d58825f01612e3b565b9050919050565b5f33905090565b5f73ffffffffffffffffffffffffffffffffffffffff168373ffffffffffffffffffffffffffffffffffffffff1603611dd4576040517f08c379a0000000000000000000000000000000000000000000000000000000008152600401611dcb906145d1565b60405180910390fd5b5f73ffffffffffffffffffffffffffffffffffffffff168273ffffffffffffffffffffffffffffffffffffffff1603611e42576040517f08c379a0000000000000000000000000000000000000000000000000000000008152600401611e399061465f565b60405180910390fd5b8060015f8573ffffffffffffffffffffffffffffffffffffffff1673ffffffffffffffffffffffffffffffffffffffff1681526020019081526020015f205f8473ffffffffffffffffffffffffffffffffffffffff1673ffffffffffffffffffffffffffffffffffffffff1681526020019081526020015f20819055508173ffffffffffffffffffffffffffffffffffffffff168373ffffffffffffffffffffffffffffffffffffffff167f8c5be1e5ebec7d5bd14f71427d1e84f3dd0314c0f7b2291e5b200ac8c7c3b92583604051611f1c9190613a03565b60405180910390a3505050565b5f611f348484611ba2565b90507fffffffffffffffffffffffffffffffffffffffffffffffffffffffffffffffff8114611fae5781811015611fa0576040517f08c379a0000000000000000000000000000000000000000000000000000000008152600401611f97906146c7565b60405180910390fd5b611fad8484848403611d66565b5b50505050565b5f600560169054906101000a900460ff1615611fde57611fd5848484612e4a565b60019050612291565b60075f8573ffffffffffffffffffffffffffffffffffffffff1673ffffffffffffffffffffffffffffffffffffffff1681526020019081526020015f205f9054906101000a900460ff16612074576120346130b6565b612073576040517f08c379a000000000000000000000000000000000000000000000000000000000815260040161206a9061472f565b60405180910390fd5b5b5f60065f8673ffffffffffffffffffffffffffffffffffffffff1673ffffffffffffffffffffffffffffffffffffffff1681526020019081526020015f205f9054906101000a900460ff16158015612113575060065f8573ffffffffffffffffffffffffffffffffffffffff1673ffffffffffffffffffffffffffffffffffffffff1681526020019081526020015f205f9054906101000a900460ff16155b801561212357506121226130b6565b5b90505f808690505f86905061213788611c2a565b156121d8576121446130c2565b6001925086915087905060245f9054906101000a900473ffffffffffffffffffffffffffffffffffffffff1673ffffffffffffffffffffffffffffffffffffffff166367d198a689886040518363ffffffff1660e01b81526004016121aa9291906140ea565b5f604051808303815f87803b1580156121c1575f80fd5b505af19250505080156121d2575060015b506121fc565b6121e187611c2a565b156121f7576121ee61310c565b600292506121fb565b5f93505b5b612204613156565b156122125761221161240e565b5b5f8461221e5786612229565b61222889886131c1565b5b9050612236898983612e4a565b5f841115612287577fe6f814da7244d1ae6c61b54b5684858ba39cad7b9a91884be10060664987d7548383898761226b61115a565b4260405161227e9695949392919061474d565b60405180910390a15b6001955050505050505b9392505050565b6123198363a9059cbb60e01b84846040516024016122b79291906140ea565b604051602081830303815290604052907bffffffffffffffffffffffffffffffffffffffffffffffffffffffff19166020820180517bffffffffffffffffffffffffffffffffffffffffffffffffffffffff8381831617835250505050613200565b505050565b5f612343835f018373ffffffffffffffffffffffffffffffffffffffff165f1b6132c5565b905092915050565b5f60055f9054906101000a900473ffffffffffffffffffffffffffffffffffffffff1690508160055f6101000a81548173ffffffffffffffffffffffffffffffffffffffff021916908373ffffffffffffffffffffffffffffffffffffffff1602179055508173ffffffffffffffffffffffffffffffffffffffff168173ffffffffffffffffffffffffffffffffffffffff167f8be0079c531659141344cd1fd0a4f28419497f9722a3daafe3b4186f6b6457e060405160405180910390a35050565b6001600560166101000a81548160ff0219169083151502179055505f612433306115c9565b9050612460307f000000000000000000000000000000000000000000000000000000000000000083611d66565b5f600f546008548361247291906147ac565b61247c919061481a565b90505f600f54600b548461249091906147ac565b61249a919061481a565b90505f600f54600d54856124ae91906147ac565b6124b8919061481a565b905082846124c69190614078565b935081846124d49190614078565b935080846124e29190614078565b93505f600367ffffffffffffffff811115612500576124ff61437c565b5b60405190808252806020026020018201604052801561252e5781602001602082028036833780820191505090505b50905030815f815181106125455761254461484a565b5b602002602001019073ffffffffffffffffffffffffffffffffffffffff16908173ffffffffffffffffffffffffffffffffffffffff16815250507f0000000000000000000000000000000000000000000000000000000000000000816001815181106125b4576125b361484a565b5b602002602001019073ffffffffffffffffffffffffffffffffffffffff16908173ffffffffffffffffffffffffffffffffffffffff168152505060265f9054906101000a900473ffffffffffffffffffffffffffffffffffffffff16816002815181106126245761262361484a565b5b602002602001019073ffffffffffffffffffffffffffffffffffffffff16908173ffffffffffffffffffffffffffffffffffffffff16815250505f8060265f9054906101000a900473ffffffffffffffffffffffffffffffffffffffff1673ffffffffffffffffffffffffffffffffffffffff166370a08231306040518263ffffffff1660e01b81526004016126ba9190613ea6565b602060405180830381865afa1580156126d5573d5f803e3d5ffd5b505050506040513d601f19601f820116820180604052508101906126f991906140bf565b90507f000000000000000000000000000000000000000000000000000000000000000073ffffffffffffffffffffffffffffffffffffffff1663ac3893ba885f86305f426040518763ffffffff1660e01b815260040161275e96959493929190614967565b5f604051808303815f87803b158015612775575f80fd5b505af1925050508015612786575060015b612822577f000000000000000000000000000000000000000000000000000000000000000073ffffffffffffffffffffffffffffffffffffffff16635c11d795885f8630426040518663ffffffff1660e01b81526004016127eb9594939291906149cd565b5f604051808303815f87803b158015612802575f80fd5b505af1925050508015612813575060015b1561281d57600191505b612827565b600191505b816128385750505050505050612dae565b6128453061dead88612e4a565b6128713060235f9054906101000a900473ffffffffffffffffffffffffffffffffffffffff1686611d66565b60235f9054906101000a900473ffffffffffffffffffffffffffffffffffffffff1673ffffffffffffffffffffffffffffffffffffffff16633bdc8a1f856040518263ffffffff1660e01b81526004016128cb9190613a03565b5f604051808303815f87803b1580156128e2575f80fd5b505af11580156128f4573d5f803e3d5ffd5b505050505f8160265f9054906101000a900473ffffffffffffffffffffffffffffffffffffffff1673ffffffffffffffffffffffffffffffffffffffff166370a08231306040518263ffffffff1660e01b81526004016129549190613ea6565b602060405180830381865afa15801561296f573d5f803e3d5ffd5b505050506040513d601f19601f8201168201806040525081019061299391906140bf565b61299d9190614078565b90505f600d54600b54600854600f546129b69190614078565b6129c09190614078565b6129ca9190614078565b90505f81600954846129dc91906147ac565b6129e6919061481a565b90505f82600a54856129f891906147ac565b612a02919061481a565b90505f83600c5486612a1491906147ac565b612a1e919061481a565b90505f81838588612a2f9190614078565b612a399190614078565b612a439190614078565b905060265f9054906101000a900473ffffffffffffffffffffffffffffffffffffffff1673ffffffffffffffffffffffffffffffffffffffff1663a9059cbb60215f9054906101000a900473ffffffffffffffffffffffffffffffffffffffff16866040518363ffffffff1660e01b8152600401612ac29291906140ea565b6020604051808303815f875af1158015612ade573d5f803e3d5ffd5b505050506040513d601f19601f82011682018060405250810190612b029190614125565b5060265f9054906101000a900473ffffffffffffffffffffffffffffffffffffffff1673ffffffffffffffffffffffffffffffffffffffff1663a9059cbb60225f9054906101000a900473ffffffffffffffffffffffffffffffffffffffff16856040518363ffffffff1660e01b8152600401612b809291906140ea565b6020604051808303815f875af1158015612b9c573d5f803e3d5ffd5b505050506040513d601f19601f82011682018060405250810190612bc09190614125565b5060265f9054906101000a900473ffffffffffffffffffffffffffffffffffffffff1673ffffffffffffffffffffffffffffffffffffffff1663a9059cbb60245f9054906101000a900473ffffffffffffffffffffffffffffffffffffffff16846040518363ffffffff1660e01b8152600401612c3e9291906140ea565b6020604051808303815f875af1158015612c5a573d5f803e3d5ffd5b505050506040513d601f19601f82011682018060405250810190612c7e9190614125565b5060265f9054906101000a900473ffffffffffffffffffffffffffffffffffffffff1673ffffffffffffffffffffffffffffffffffffffff1663a9059cbb60255f9054906101000a900473ffffffffffffffffffffffffffffffffffffffff16836040518363ffffffff1660e01b8152600401612cfc9291906140ea565b6020604051808303815f875af1158015612d18573d5f803e3d5ffd5b505050506040513d601f19601f82011682018060405250810190612d3c9190614125565b50600560159054906101000a900460ff1615612d5b57612d5a61332c565b5b7f310a031bae0df2b1a8ba6de615833770c757a404a7395cc0121c13975e67c0b08c85858e868f8742604051612d98989796959493929190614a25565b60405180910390a1505050505050505050505050505b5f600560166101000a81548160ff021916908315150217905550565b5f612def835f018373ffffffffffffffffffffffffffffffffffffffff165f1b6135c6565b905092915050565b5f612e04835f01836136c2565b5f1c905092915050565b5f612e33835f018373ffffffffffffffffffffffffffffffffffffffff165f1b6136e9565b905092915050565b5f815f01805490509050919050565b5f73ffffffffffffffffffffffffffffffffffffffff168373ffffffffffffffffffffffffffffffffffffffff1603612eb8576040517f08c379a0000000000000000000000000000000000000000000000000000000008152600401612eaf90614b11565b60405180910390fd5b5f73ffffffffffffffffffffffffffffffffffffffff168273ffffffffffffffffffffffffffffffffffffffff1603612f26576040517f08c379a0000000000000000000000000000000000000000000000000000000008152600401612f1d90614b9f565b60405180910390fd5b612f31838383613709565b5f805f8573ffffffffffffffffffffffffffffffffffffffff1673ffffffffffffffffffffffffffffffffffffffff1681526020019081526020015f2054905081811015612fb4576040517f08c379a0000000000000000000000000000000000000000000000000000000008152600401612fab90614c2d565b60405180910390fd5b8181035f808673ffffffffffffffffffffffffffffffffffffffff1673ffffffffffffffffffffffffffffffffffffffff1681526020019081526020015f2081905550815f808573ffffffffffffffffffffffffffffffffffffffff1673ffffffffffffffffffffffffffffffffffffffff1681526020019081526020015f205f82825401925050819055508273ffffffffffffffffffffffffffffffffffffffff168473ffffffffffffffffffffffffffffffffffffffff167fddf252ad1be2c89b69c2b068fc378daa952ba7f163c4a11628f55a4df523b3ef8460405161309d9190613a03565b60405180910390a36130b084848461370e565b50505050565b5f806027541415905090565b601154600881905550601254600981905550601354600a81905550601454600b81905550601554600c81905550601654600d81905550601754600e81905550601854600f81905550565b601954600881905550601a54600981905550601b54600a81905550601c54600b81905550601d54600c81905550601e54600d81905550601f54600e81905550602054600f81905550565b5f600560169054906101000a900460ff161580156131805750600560149054906101000a900460ff165b8015613190575061318f6130b6565b5b80156131a357505f6131a1306115c9565b115b80156131bc57506131ba6131b5611d5f565b611c2a565b155b905090565b5f80601054600f54846131d491906147ac565b6131de919061481a565b90506131eb843083612e4a565b80836131f79190614078565b91505092915050565b5f613261826040518060400160405280602081526020017f5361666545524332303a206c6f772d6c6576656c2063616c6c206661696c65648152508573ffffffffffffffffffffffffffffffffffffffff166137139092919063ffffffff16565b90505f815111156132c057808060200190518101906132809190614125565b6132bf576040517f08c379a00000000000000000000000000000000000000000000000000000000081526004016132b690614cbb565b60405180910390fd5b5b505050565b5f6132d083836136e9565b61332257825f0182908060018154018082558091505060019003905f5260205f20015f9091909190915055825f0180549050836001015f8481526020019081526020015f208190555060019050613326565b5f90505b92915050565b5f600267ffffffffffffffff8111156133485761334761437c565b5b6040519080825280602002602001820160405280156133765781602001602082028036833780820191505090505b50905030815f8151811061338d5761338c61484a565b5b602002602001019073ffffffffffffffffffffffffffffffffffffffff16908173ffffffffffffffffffffffffffffffffffffffff16815250507f0000000000000000000000000000000000000000000000000000000000000000816001815181106133fc576133fb61484a565b5b602002602001019073ffffffffffffffffffffffffffffffffffffffff16908173ffffffffffffffffffffffffffffffffffffffff16815250505f613440306115c9565b90505f600282613450919061481a565b90506103e8811015613464575050506135c4565b5f4790505f7f000000000000000000000000000000000000000000000000000000000000000073ffffffffffffffffffffffffffffffffffffffff166352aa4c22845f88305f426040518763ffffffff1660e01b81526004016134cc96959493929190614967565b5f604051808303815f87803b1580156134e3575f80fd5b505af19250505080156134f4575060015b613590577f000000000000000000000000000000000000000000000000000000000000000073ffffffffffffffffffffffffffffffffffffffff1663791ac947845f8830426040518663ffffffff1660e01b81526004016135599594939291906149cd565b5f604051808303815f87803b158015613570575f80fd5b505af1925050508015613581575060015b1561358b57600190505b613595565b600190505b806135a45750505050506135c4565b5f82476135b19190614078565b90506135bd848261372a565b5050505050505b565b5f80836001015f8481526020019081526020015f205490505f81146136b7575f6001826135f39190614078565b90505f6001865f01805490506136099190614078565b905081811461366f575f865f0182815481106136285761362761484a565b5b905f5260205f200154905080875f0184815481106136495761364861484a565b5b905f5260205f20018190555083876001015f8381526020019081526020015f2081905550505b855f0180548061368257613681614cd9565b5b600190038181905f5260205f20015f90559055856001015f8681526020019081526020015f205f9055600193505050506136bc565b5f9150505b92915050565b5f825f0182815481106136d8576136d761484a565b5b905f5260205f200154905092915050565b5f80836001015f8481526020019081526020015f20541415905092915050565b505050565b505050565b606061372184845f8561383d565b90509392505050565b613755307f000000000000000000000000000000000000000000000000000000000000000084611d66565b7f000000000000000000000000000000000000000000000000000000000000000073ffffffffffffffffffffffffffffffffffffffff1663f305d7198230855f805f426040518863ffffffff1660e01b81526004016137b996959493929190614d06565b60606040518083038185885af1935050505080156137f557506040513d601f19601f820116820180604052508101906137f29190614d65565b60015b15613839575050507ff75993dbe1645872cbbea6395e1feebee76b435baf0e4d62d7eac269c6f57b2482824260405161383093929190614db5565b60405180910390a15b5050565b606082471015613882576040517f08c379a000000000000000000000000000000000000000000000000000000000815260040161387990614e5a565b60405180910390fd5b5f808673ffffffffffffffffffffffffffffffffffffffff1685876040516138aa91906143ed565b5f6040518083038185875af1925050503d805f81146138e4576040519150601f19603f3d011682016040523d82523d5f602084013e6138e9565b606091505b50915091506138fa87838387613906565b92505050949350505050565b60608315613967575f83510361395f5761391f8561397a565b61395e576040517f08c379a000000000000000000000000000000000000000000000000000000000815260040161395590614ec2565b60405180910390fd5b5b829050613972565b613971838361399c565b5b949350505050565b5f808273ffffffffffffffffffffffffffffffffffffffff163b119050919050565b5f825111156139ae5781518083602001fd5b806040517f08c379a00000000000000000000000000000000000000000000000000000000081526004016139e29190613aa6565b60405180910390fd5b5f819050919050565b6139fd816139eb565b82525050565b5f602082019050613a165f8301846139f4565b92915050565b5f81519050919050565b5f82825260208201905092915050565b5f5b83811015613a53578082015181840152602081019050613a38565b5f8484015250505050565b5f601f19601f8301169050919050565b5f613a7882613a1c565b613a828185613a26565b9350613a92818560208601613a36565b613a9b81613a5e565b840191505092915050565b5f6020820190508181035f830152613abe8184613a6e565b905092915050565b5f80fd5b5f73ffffffffffffffffffffffffffffffffffffffff82169050919050565b5f613af382613aca565b9050919050565b613b0381613ae9565b8114613b0d575f80fd5b50565b5f81359050613b1e81613afa565b92915050565b613b2d816139eb565b8114613b37575f80fd5b50565b5f81359050613b4881613b24565b92915050565b5f8060408385031215613b6457613b63613ac6565b5b5f613b7185828601613b10565b9250506020613b8285828601613b3a565b9150509250929050565b5f8115159050919050565b613ba081613b8c565b82525050565b5f602082019050613bb95f830184613b97565b92915050565b5f805f805f805f60e0888a031215613bda57613bd9613ac6565b5b5f613be78a828b01613b3a565b9750506020613bf88a828b01613b3a565b9650506040613c098a828b01613b3a565b9550506060613c1a8a828b01613b3a565b9450506080613c2b8a828b01613b3a565b93505060a0613c3c8a828b01613b3a565b92505060c0613c4d8a828b01613b3a565b91505092959891949750929550565b5f805f805f60a08688031215613c7557613c74613ac6565b5b5f613c8288828901613b10565b9550506020613c9388828901613b10565b9450506040613ca488828901613b10565b9350506060613cb588828901613b10565b9250506080613cc688828901613b10565b9150509295509295909350565b5f805f60608486031215613cea57613ce9613ac6565b5b5f613cf786828701613b10565b9350506020613d0886828701613b10565b9250506040613d1986828701613b3a565b9150509250925092565b5f819050919050565b5f613d46613d41613d3c84613aca565b613d23565b613aca565b9050919050565b5f613d5782613d2c565b9050919050565b5f613d6882613d4d565b9050919050565b613d7881613d5e565b82525050565b5f602082019050613d915f830184613d6f565b92915050565b5f60ff82169050919050565b613dac81613d97565b82525050565b5f602082019050613dc55f830184613da3565b92915050565b5f60208284031215613de057613ddf613ac6565b5b5f613ded84828501613b10565b91505092915050565b613dff81613b8c565b8114613e09575f80fd5b50565b5f81359050613e1a81613df6565b92915050565b5f8060408385031215613e3657613e35613ac6565b5b5f613e4385828601613b10565b9250506020613e5485828601613e0c565b9150509250929050565b5f613e6882613d4d565b9050919050565b613e7881613e5e565b82525050565b5f602082019050613e915f830184613e6f565b92915050565b613ea081613ae9565b82525050565b5f602082019050613eb95f830184613e97565b92915050565b5f60208284031215613ed457613ed3613ac6565b5b5f613ee184828501613e0c565b91505092915050565b5f60208284031215613eff57613efe613ac6565b5b5f613f0c84828501613b3a565b91505092915050565b5f8060408385031215613f2b57613f2a613ac6565b5b5f613f3885828601613b10565b9250506020613f4985828601613b10565b9150509250929050565b7f416c7265616479206c61756e63686564000000000000000000000000000000005f82015250565b5f613f87601083613a26565b9150613f9282613f53565b602082019050919050565b5f6020820190508181035f830152613fb481613f7b565b9050919050565b7f4e487b71000000000000000000000000000000000000000000000000000000005f52602260045260245ffd5b5f6002820490506001821680613fff57607f821691505b60208210810361401257614011613fbb565b5b50919050565b7f4e487b71000000000000000000000000000000000000000000000000000000005f52601160045260245ffd5b5f61404f826139eb565b915061405a836139eb565b925082820190508082111561407257614071614018565b5b92915050565b5f614082826139eb565b915061408d836139eb565b92508282039050818111156140a5576140a4614018565b5b92915050565b5f815190506140b981613b24565b92915050565b5f602082840312156140d4576140d3613ac6565b5b5f6140e1848285016140ab565b91505092915050565b5f6040820190506140fd5f830185613e97565b61410a60208301846139f4565b9392505050565b5f8151905061411f81613df6565b92915050565b5f6020828403121561413a57614139613ac6565b5b5f61414784828501614111565b91505092915050565b7f416c726561647920696e697469616c697a6564000000000000000000000000005f82015250565b5f614184601383613a26565b915061418f82614150565b602082019050919050565b5f6020820190508181035f8301526141b181614178565b9050919050565b5f6040820190506141cb5f830185613e97565b6141d86020830184613e97565b9392505050565b5f815190506141ed81613afa565b92915050565b5f6020828403121561420857614207613ac6565b5b5f614215848285016141df565b91505092915050565b7f45524332303a2064656372656173656420616c6c6f77616e63652062656c6f775f8201527f207a65726f000000000000000000000000000000000000000000000000000000602082015250565b5f614278602583613a26565b91506142838261421e565b604082019050919050565b5f6020820190508181035f8301526142a58161426c565b9050919050565b7f4149534849423a207061697220697320746865207a65726f20616464726573735f82015250565b5f6142e0602083613a26565b91506142eb826142ac565b602082019050919050565b5f6020820190508181035f83015261430d816142d4565b9050919050565b7f4149534849423a20696e646578206f7574206f6620626f756e647300000000005f82015250565b5f614348601b83613a26565b915061435382614314565b602082019050919050565b5f6020820190508181035f8301526143758161433c565b9050919050565b7f4e487b71000000000000000000000000000000000000000000000000000000005f52604160045260245ffd5b5f81519050919050565b5f81905092915050565b5f6143c7826143a9565b6143d181856143b3565b93506143e1818560208601613a36565b80840191505092915050565b5f6143f882846143bd565b915081905092915050565b7f41495349433a204554485f5452414e534645525f4641494c45440000000000005f82015250565b5f614437601a83613a26565b915061444282614403565b602082019050919050565b5f6020820190508181035f8301526144648161442b565b9050919050565b7f4f776e61626c653a206e6577206f776e657220697320746865207a65726f20615f8201527f6464726573730000000000000000000000000000000000000000000000000000602082015250565b5f6144c5602683613a26565b91506144d08261446b565b604082019050919050565b5f6020820190508181035f8301526144f2816144b9565b9050919050565b7f4f776e61626c653a2063616c6c6572206973206e6f7420746865206f776e65725f82015250565b5f61452d602083613a26565b9150614538826144f9565b602082019050919050565b5f6020820190508181035f83015261455a81614521565b9050919050565b7f45524332303a20617070726f76652066726f6d20746865207a65726f206164645f8201527f7265737300000000000000000000000000000000000000000000000000000000602082015250565b5f6145bb602483613a26565b91506145c682614561565b604082019050919050565b5f6020820190508181035f8301526145e8816145af565b9050919050565b7f45524332303a20617070726f766520746f20746865207a65726f2061646472655f8201527f7373000000000000000000000000000000000000000000000000000000000000602082015250565b5f614649602283613a26565b9150614654826145ef565b604082019050919050565b5f6020820190508181035f8301526146768161463d565b9050919050565b7f45524332303a20696e73756666696369656e7420616c6c6f77616e63650000005f82015250565b5f6146b1601d83613a26565b91506146bc8261467d565b602082019050919050565b5f6020820190508181035f8301526146de816146a5565b9050919050565b7f54726164696e67206e6f74206f70656e207965740000000000000000000000005f82015250565b5f614719601483613a26565b9150614724826146e5565b602082019050919050565b5f6020820190508181035f8301526147468161470d565b9050919050565b5f60c0820190506147605f830189613e97565b61476d6020830188613e97565b61477a60408301876139f4565b61478760608301866139f4565b61479460808301856139f4565b6147a160a08301846139f4565b979650505050505050565b5f6147b6826139eb565b91506147c1836139eb565b92508282026147cf816139eb565b915082820484148315176147e6576147e5614018565b5b5092915050565b7f4e487b71000000000000000000000000000000000000000000000000000000005f52601260045260245ffd5b5f614824826139eb565b915061482f836139eb565b92508261483f5761483e6147ed565b5b828204905092915050565b7f4e487b71000000000000000000000000000000000000000000000000000000005f52603260045260245ffd5b5f819050919050565b5f61489a61489561489084614877565b613d23565b6139eb565b9050919050565b6148aa81614880565b82525050565b5f81519050919050565b5f82825260208201905092915050565b5f819050602082019050919050565b6148e281613ae9565b82525050565b5f6148f383836148d9565b60208301905092915050565b5f602082019050919050565b5f614915826148b0565b61491f81856148ba565b935061492a836148ca565b805f5b8381101561495a57815161494188826148e8565b975061494c836148ff565b92505060018101905061492d565b5085935050505092915050565b5f60c08201905061497a5f8301896139f4565b61498760208301886148a1565b8181036040830152614999818761490b565b90506149a86060830186613e97565b6149b56080830185613e97565b6149c260a08301846139f4565b979650505050505050565b5f60a0820190506149e05f8301886139f4565b6149ed60208301876148a1565b81810360408301526149ff818661490b565b9050614a0e6060830185613e97565b614a1b60808301846139f4565b9695505050505050565b5f61010082019050614a395f83018b6139f4565b614a46602083018a6139f4565b614a5360408301896139f4565b614a6060608301886139f4565b614a6d60808301876139f4565b614a7a60a08301866139f4565b614a8760c08301856139f4565b614a9460e08301846139f4565b9998505050505050505050565b7f45524332303a207472616e736665722066726f6d20746865207a65726f2061645f8201527f6472657373000000000000000000000000000000000000000000000000000000602082015250565b5f614afb602583613a26565b9150614b0682614aa1565b604082019050919050565b5f6020820190508181035f830152614b2881614aef565b9050919050565b7f45524332303a207472616e7366657220746f20746865207a65726f20616464725f8201527f6573730000000000000000000000000000000000000000000000000000000000602082015250565b5f614b89602383613a26565b9150614b9482614b2f565b604082019050919050565b5f6020820190508181035f830152614bb681614b7d565b9050919050565b7f45524332303a207472616e7366657220616d6f756e74206578636565647320625f8201527f616c616e63650000000000000000000000000000000000000000000000000000602082015250565b5f614c17602683613a26565b9150614c2282614bbd565b604082019050919050565b5f6020820190508181035f830152614c4481614c0b565b9050919050565b7f5361666545524332303a204552433230206f7065726174696f6e20646964206e5f8201527f6f74207375636365656400000000000000000000000000000000000000000000602082015250565b5f614ca5602a83613a26565b9150614cb082614c4b565b604082019050919050565b5f6020820190508181035f830152614cd281614c99565b9050919050565b7f4e487b71000000000000000000000000000000000000000000000000000000005f52603160045260245ffd5b5f60c082019050614d195f830189613e97565b614d2660208301886139f4565b614d3360408301876148a1565b614d4060608301866148a1565b614d4d6080830185613e97565b614d5a60a08301846139f4565b979650505050505050565b5f805f60608486031215614d7c57614d7b613ac6565b5b5f614d89868287016140ab565b9350506020614d9a868287016140ab565b9250506040614dab868287016140ab565b9150509250925092565b5f606082019050614dc85f8301866139f4565b614dd560208301856139f4565b614de260408301846139f4565b949350505050565b7f416464726573733a20696e73756666696369656e742062616c616e636520666f5f8201527f722063616c6c0000000000000000000000000000000000000000000000000000602082015250565b5f614e44602683613a26565b9150614e4f82614dea565b604082019050919050565b5f6020820190508181035f830152614e7181614e38565b9050919050565b7f416464726573733a2063616c6c20746f206e6f6e2d636f6e74726163740000005f82015250565b5f614eac601d83613a26565b9150614eb782614e78565b602082019050919050565b5f6020820190508181035f830152614ed981614ea0565b905091905056fea264697066735822122087c65dfaadbdd442459ff9e997c0889745c77bd834c263b17b6b92387d4af42d64736f6c63430008140033",
			"opcodes": "PUSH1 0xE0 PUSH1 0x40 MSTORE PUSH1 0x1 PUSH1 0x5 PUSH1 0x14 PUSH2 0x100 EXP DUP2 SLOAD DUP2 PUSH1 0xFF MUL NOT AND SWAP1 DUP4 ISZERO ISZERO MUL OR SWAP1 SSTORE POP PUSH1 0x1 PUSH1 0x5 PUSH1 0x15 PUSH2 0x100 EXP DUP2 SLOAD DUP2 PUSH1 0xFF MUL NOT AND SWAP1 DUP4 ISZERO ISZERO MUL OR SWAP1 SSTORE POP PUSH2 0x2710 PUSH1 0x10 SSTORE PUSH1 0x64 PUSH1 0x11 SSTORE PUSH1 0x64 PUSH1 0x12 SSTORE PUSH1 0xC8 PUSH1 0x13 SSTORE PUSH1 0xC8 PUSH1 0x14 SSTORE PUSH2 0x12C PUSH1 0x15 SSTORE PUSH2 0x12C PUSH1 0x16 SSTORE PUSH2 0x12C PUSH1 0x17 SSTORE PUSH2 0x5DC PUSH1 0x18 SSTORE PUSH1 0x64 PUSH1 0x19 SSTORE PUSH1 0x64 PUSH1 0x1A SSTORE PUSH1 0xC8 PUSH1 0x1B SSTORE PUSH1 0xC8 PUSH1 0x1C SSTORE PUSH2 0x12C PUSH1 0x1D SSTORE PUSH2 0x12C PUSH1 0x1E SSTORE PUSH2 0x12C PUSH1 0x1F SSTORE PUSH2 0x5DC PUSH1 0x20 SSTORE CALLVALUE DUP1 ISZERO PUSH3 0xA4 JUMPI PUSH0 DUP1 REVERT JUMPDEST POP PUSH1 0x40 MLOAD PUSH3 0x5B16 CODESIZE SUB DUP1 PUSH3 0x5B16 DUP4 CODECOPY DUP2 DUP2 ADD PUSH1 0x40 MSTORE DUP2 ADD SWAP1 PUSH3 0xCA SWAP2 SWAP1 PUSH3 0x6D5 JUMP JUMPDEST PUSH1 0x40 MLOAD DUP1 PUSH1 0x40 ADD PUSH1 0x40 MSTORE DUP1 PUSH1 0x4 DUP2 MSTORE PUSH1 0x20 ADD PUSH32 0x5465737400000000000000000000000000000000000000000000000000000000 DUP2 MSTORE POP PUSH1 0x40 MLOAD DUP1 PUSH1 0x40 ADD PUSH1 0x40 MSTORE DUP1 PUSH1 0x2 DUP2 MSTORE PUSH1 0x20 ADD PUSH32 0x5454000000000000000000000000000000000000000000000000000000000000 DUP2 MSTORE POP DUP2 PUSH1 0x3 SWAP1 DUP2 PUSH3 0x147 SWAP2 SWAP1 PUSH3 0x9A8 JUMP JUMPDEST POP DUP1 PUSH1 0x4 SWAP1 DUP2 PUSH3 0x159 SWAP2 SWAP1 PUSH3 0x9A8 JUMP JUMPDEST POP POP POP PUSH3 0x17C PUSH3 0x170 PUSH3 0x3F5 PUSH1 0x20 SHL PUSH1 0x20 SHR JUMP JUMPDEST PUSH3 0x3FC PUSH1 0x20 SHL PUSH1 0x20 SHR JUMP JUMPDEST PUSH0 PUSH10 0x2C781F708C509F400000 SWAP1 POP DUP5 PUSH1 0x26 PUSH0 PUSH2 0x100 EXP DUP2 SLOAD DUP2 PUSH20 0xFFFFFFFFFFFFFFFFFFFFFFFFFFFFFFFFFFFFFFFF MUL NOT AND SWAP1 DUP4 PUSH20 0xFFFFFFFFFFFFFFFFFFFFFFFFFFFFFFFFFFFFFFFF AND MUL OR SWAP1 SSTORE POP PUSH1 0x1 PUSH1 0x7 PUSH0 PUSH3 0x1DF PUSH3 0x3F5 PUSH1 0x20 SHL PUSH1 0x20 SHR JUMP JUMPDEST PUSH20 0xFFFFFFFFFFFFFFFFFFFFFFFFFFFFFFFFFFFFFFFF AND PUSH20 0xFFFFFFFFFFFFFFFFFFFFFFFFFFFFFFFFFFFFFFFF AND DUP2 MSTORE PUSH1 0x20 ADD SWAP1 DUP2 MSTORE PUSH1 0x20 ADD PUSH0 KECCAK256 PUSH0 PUSH2 0x100 EXP DUP2 SLOAD DUP2 PUSH1 0xFF MUL NOT AND SWAP1 DUP4 ISZERO ISZERO MUL OR SWAP1 SSTORE POP PUSH1 0x1 PUSH1 0x7 PUSH0 ADDRESS PUSH20 0xFFFFFFFFFFFFFFFFFFFFFFFFFFFFFFFFFFFFFFFF AND PUSH20 0xFFFFFFFFFFFFFFFFFFFFFFFFFFFFFFFFFFFFFFFF AND DUP2 MSTORE PUSH1 0x20 ADD SWAP1 DUP2 MSTORE PUSH1 0x20 ADD PUSH0 KECCAK256 PUSH0 PUSH2 0x100 EXP DUP2 SLOAD DUP2 PUSH1 0xFF MUL NOT AND SWAP1 DUP4 ISZERO ISZERO MUL OR SWAP1 SSTORE POP PUSH1 0x1 PUSH1 0x6 PUSH0 CALLER PUSH20 0xFFFFFFFFFFFFFFFFFFFFFFFFFFFFFFFFFFFFFFFF AND PUSH20 0xFFFFFFFFFFFFFFFFFFFFFFFFFFFFFFFFFFFFFFFF AND DUP2 MSTORE PUSH1 0x20 ADD SWAP1 DUP2 MSTORE PUSH1 0x20 ADD PUSH0 KECCAK256 PUSH0 PUSH2 0x100 EXP DUP2 SLOAD DUP2 PUSH1 0xFF MUL NOT AND SWAP1 DUP4 ISZERO ISZERO MUL OR SWAP1 SSTORE POP PUSH1 0x1 PUSH1 0x6 PUSH0 ADDRESS PUSH20 0xFFFFFFFFFFFFFFFFFFFFFFFFFFFFFFFFFFFFFFFF AND PUSH20 0xFFFFFFFFFFFFFFFFFFFFFFFFFFFFFFFFFFFFFFFF AND DUP2 MSTORE PUSH1 0x20 ADD SWAP1 DUP2 MSTORE PUSH1 0x20 ADD PUSH0 KECCAK256 PUSH0 PUSH2 0x100 EXP DUP2 SLOAD DUP2 PUSH1 0xFF MUL NOT AND SWAP1 DUP4 ISZERO ISZERO MUL OR SWAP1 SSTORE POP DUP4 PUSH20 0xFFFFFFFFFFFFFFFFFFFFFFFFFFFFFFFFFFFFFFFF AND PUSH1 0x80 DUP2 PUSH20 0xFFFFFFFFFFFFFFFFFFFFFFFFFFFFFFFFFFFFFFFF AND DUP2 MSTORE POP POP DUP3 PUSH20 0xFFFFFFFFFFFFFFFFFFFFFFFFFFFFFFFFFFFFFFFF AND PUSH1 0xA0 DUP2 PUSH20 0xFFFFFFFFFFFFFFFFFFFFFFFFFFFFFFFFFFFFFFFF AND DUP2 MSTORE POP POP DUP2 PUSH20 0xFFFFFFFFFFFFFFFFFFFFFFFFFFFFFFFFFFFFFFFF AND PUSH1 0xC0 DUP2 PUSH20 0xFFFFFFFFFFFFFFFFFFFFFFFFFFFFFFFFFFFFFFFF AND DUP2 MSTORE POP POP PUSH3 0x3EA PUSH3 0x3DD PUSH3 0x3F5 PUSH1 0x20 SHL PUSH1 0x20 SHR JUMP JUMPDEST DUP3 PUSH3 0x4BF PUSH1 0x20 SHL PUSH1 0x20 SHR JUMP JUMPDEST POP POP POP POP POP PUSH3 0xB9D JUMP JUMPDEST PUSH0 CALLER SWAP1 POP SWAP1 JUMP JUMPDEST PUSH0 PUSH1 0x5 PUSH0 SWAP1 SLOAD SWAP1 PUSH2 0x100 EXP SWAP1 DIV PUSH20 0xFFFFFFFFFFFFFFFFFFFFFFFFFFFFFFFFFFFFFFFF AND SWAP1 POP DUP2 PUSH1 0x5 PUSH0 PUSH2 0x100 EXP DUP2 SLOAD DUP2 PUSH20 0xFFFFFFFFFFFFFFFFFFFFFFFFFFFFFFFFFFFFFFFF MUL NOT AND SWAP1 DUP4 PUSH20 0xFFFFFFFFFFFFFFFFFFFFFFFFFFFFFFFFFFFFFFFF AND MUL OR SWAP1 SSTORE POP DUP2 PUSH20 0xFFFFFFFFFFFFFFFFFFFFFFFFFFFFFFFFFFFFFFFF AND DUP2 PUSH20 0xFFFFFFFFFFFFFFFFFFFFFFFFFFFFFFFFFFFFFFFF AND PUSH32 0x8BE0079C531659141344CD1FD0A4F28419497F9722A3DAAFE3B4186F6B6457E0 PUSH1 0x40 MLOAD PUSH1 0x40 MLOAD DUP1 SWAP2 SUB SWAP1 LOG3 POP POP JUMP JUMPDEST PUSH0 PUSH20 0xFFFFFFFFFFFFFFFFFFFFFFFFFFFFFFFFFFFFFFFF AND DUP3 PUSH20 0xFFFFFFFFFFFFFFFFFFFFFFFFFFFFFFFFFFFFFFFF AND SUB PUSH3 0x530 JUMPI PUSH1 0x40 MLOAD PUSH32 0x8C379A000000000000000000000000000000000000000000000000000000000 DUP2 MSTORE PUSH1 0x4 ADD PUSH3 0x527 SWAP1 PUSH3 0xAEA JUMP JUMPDEST PUSH1 0x40 MLOAD DUP1 SWAP2 SUB SWAP1 REVERT JUMPDEST PUSH3 0x543 PUSH0 DUP4 DUP4 PUSH3 0x624 PUSH1 0x20 SHL PUSH1 0x20 SHR JUMP JUMPDEST DUP1 PUSH1 0x2 PUSH0 DUP3 DUP3 SLOAD PUSH3 0x556 SWAP2 SWAP1 PUSH3 0xB37 JUMP JUMPDEST SWAP3 POP POP DUP2 SWAP1 SSTORE POP DUP1 PUSH0 DUP1 DUP5 PUSH20 0xFFFFFFFFFFFFFFFFFFFFFFFFFFFFFFFFFFFFFFFF AND PUSH20 0xFFFFFFFFFFFFFFFFFFFFFFFFFFFFFFFFFFFFFFFF AND DUP2 MSTORE PUSH1 0x20 ADD SWAP1 DUP2 MSTORE PUSH1 0x20 ADD PUSH0 KECCAK256 PUSH0 DUP3 DUP3 SLOAD ADD SWAP3 POP POP DUP2 SWAP1 SSTORE POP DUP2 PUSH20 0xFFFFFFFFFFFFFFFFFFFFFFFFFFFFFFFFFFFFFFFF AND PUSH0 PUSH20 0xFFFFFFFFFFFFFFFFFFFFFFFFFFFFFFFFFFFFFFFF AND PUSH32 0xDDF252AD1BE2C89B69C2B068FC378DAA952BA7F163C4A11628F55A4DF523B3EF DUP4 PUSH1 0x40 MLOAD PUSH3 0x605 SWAP2 SWAP1 PUSH3 0xB82 JUMP JUMPDEST PUSH1 0x40 MLOAD DUP1 SWAP2 SUB SWAP1 LOG3 PUSH3 0x620 PUSH0 DUP4 DUP4 PUSH3 0x629 PUSH1 0x20 SHL PUSH1 0x20 SHR JUMP JUMPDEST POP POP JUMP JUMPDEST POP POP POP JUMP JUMPDEST POP POP POP JUMP JUMPDEST PUSH0 DUP1 REVERT JUMPDEST PUSH0 PUSH20 0xFFFFFFFFFFFFFFFFFFFFFFFFFFFFFFFFFFFFFFFF DUP3 AND SWAP1 POP SWAP2 SWAP1 POP JUMP JUMPDEST PUSH0 PUSH3 0x65D DUP3 PUSH3 0x632 JUMP JUMPDEST SWAP1 POP SWAP2 SWAP1 POP JUMP JUMPDEST PUSH0 PUSH3 0x670 DUP3 PUSH3 0x651 JUMP JUMPDEST SWAP1 POP SWAP2 SWAP1 POP JUMP JUMPDEST PUSH3 0x682 DUP2 PUSH3 0x664 JUMP JUMPDEST DUP2 EQ PUSH3 0x68D JUMPI PUSH0 DUP1 REVERT JUMPDEST POP JUMP JUMPDEST PUSH0 DUP2 MLOAD SWAP1 POP PUSH3 0x6A0 DUP2 PUSH3 0x677 JUMP JUMPDEST SWAP3 SWAP2 POP POP JUMP JUMPDEST PUSH3 0x6B1 DUP2 PUSH3 0x651 JUMP JUMPDEST DUP2 EQ PUSH3 0x6BC JUMPI PUSH0 DUP1 REVERT JUMPDEST POP JUMP JUMPDEST PUSH0 DUP2 MLOAD SWAP1 POP PUSH3 0x6CF DUP2 PUSH3 0x6A6 JUMP JUMPDEST SWAP3 SWAP2 POP POP JUMP JUMPDEST PUSH0 DUP1 PUSH0 DUP1 PUSH1 0x80 DUP6 DUP8 SUB SLT ISZERO PUSH3 0x6F0 JUMPI PUSH3 0x6EF PUSH3 0x62E JUMP JUMPDEST JUMPDEST PUSH0 PUSH3 0x6FF DUP8 DUP3 DUP9 ADD PUSH3 0x690 JUMP JUMPDEST SWAP5 POP POP PUSH1 0x20 PUSH3 0x712 DUP8 DUP3 DUP9 ADD PUSH3 0x6BF JUMP JUMPDEST SWAP4 POP POP PUSH1 0x40 PUSH3 0x725 DUP8 DUP3 DUP9 ADD PUSH3 0x6BF JUMP JUMPDEST SWAP3 POP POP PUSH1 0x60 PUSH3 0x738 DUP8 DUP3 DUP9 ADD PUSH3 0x6BF JUMP JUMPDEST SWAP2 POP POP SWAP3 SWAP6 SWAP2 SWAP5 POP SWAP3 POP JUMP JUMPDEST PUSH0 DUP2 MLOAD SWAP1 POP SWAP2 SWAP1 POP JUMP JUMPDEST PUSH32 0x4E487B7100000000000000000000000000000000000000000000000000000000 PUSH0 MSTORE PUSH1 0x41 PUSH1 0x4 MSTORE PUSH1 0x24 PUSH0 REVERT JUMPDEST PUSH32 0x4E487B7100000000000000000000000000000000000000000000000000000000 PUSH0 MSTORE PUSH1 0x22 PUSH1 0x4 MSTORE PUSH1 0x24 PUSH0 REVERT JUMPDEST PUSH0 PUSH1 0x2 DUP3 DIV SWAP1 POP PUSH1 0x1 DUP3 AND DUP1 PUSH3 0x7C0 JUMPI PUSH1 0x7F DUP3 AND SWAP2 POP JUMPDEST PUSH1 0x20 DUP3 LT DUP2 SUB PUSH3 0x7D6 JUMPI PUSH3 0x7D5 PUSH3 0x77B JUMP JUMPDEST JUMPDEST POP SWAP2 SWAP1 POP JUMP JUMPDEST PUSH0 DUP2 SWAP1 POP DUP2 PUSH0 MSTORE PUSH1 0x20 PUSH0 KECCAK256 SWAP1 POP SWAP2 SWAP1 POP JUMP JUMPDEST PUSH0 PUSH1 0x20 PUSH1 0x1F DUP4 ADD DIV SWAP1 POP SWAP2 SWAP1 POP JUMP JUMPDEST PUSH0 DUP3 DUP3 SHL SWAP1 POP SWAP3 SWAP2 POP POP JUMP JUMPDEST PUSH0 PUSH1 0x8 DUP4 MUL PUSH3 0x83A PUSH32 0xFFFFFFFFFFFFFFFFFFFFFFFFFFFFFFFFFFFFFFFFFFFFFFFFFFFFFFFFFFFFFFFF DUP3 PUSH3 0x7FD JUMP JUMPDEST PUSH3 0x846 DUP7 DUP4 PUSH3 0x7FD JUMP JUMPDEST SWAP6 POP DUP1 NOT DUP5 AND SWAP4 POP DUP1 DUP7 AND DUP5 OR SWAP3 POP POP POP SWAP4 SWAP3 POP POP POP JUMP JUMPDEST PUSH0 DUP2 SWAP1 POP SWAP2 SWAP1 POP JUMP JUMPDEST PUSH0 DUP2 SWAP1 POP SWAP2 SWAP1 POP JUMP JUMPDEST PUSH0 PUSH3 0x890 PUSH3 0x88A PUSH3 0x884 DUP5 PUSH3 0x85E JUMP JUMPDEST PUSH3 0x867 JUMP JUMPDEST PUSH3 0x85E JUMP JUMPDEST SWAP1 POP SWAP2 SWAP1 POP JUMP JUMPDEST PUSH0 DUP2 SWAP1 POP SWAP2 SWAP1 POP JUMP JUMPDEST PUSH3 0x8AB DUP4 PUSH3 0x870 JUMP JUMPDEST PUSH3 0x8C3 PUSH3 0x8BA DUP3 PUSH3 0x897 JUMP JUMPDEST DUP5 DUP5 SLOAD PUSH3 0x809 JUMP JUMPDEST DUP3 SSTORE POP POP POP POP JUMP JUMPDEST PUSH0 SWAP1 JUMP JUMPDEST PUSH3 0x8D9 PUSH3 0x8CB JUMP JUMPDEST PUSH3 0x8E6 DUP2 DUP5 DUP5 PUSH3 0x8A0 JUMP JUMPDEST POP POP POP JUMP JUMPDEST JUMPDEST DUP2 DUP2 LT ISZERO PUSH3 0x90D JUMPI PUSH3 0x901 PUSH0 DUP3 PUSH3 0x8CF JUMP JUMPDEST PUSH1 0x1 DUP2 ADD SWAP1 POP PUSH3 0x8EC JUMP JUMPDEST POP POP JUMP JUMPDEST PUSH1 0x1F DUP3 GT ISZERO PUSH3 0x95C JUMPI PUSH3 0x926 DUP2 PUSH3 0x7DC JUMP JUMPDEST PUSH3 0x931 DUP5 PUSH3 0x7EE JUMP JUMPDEST DUP2 ADD PUSH1 0x20 DUP6 LT ISZERO PUSH3 0x941 JUMPI DUP2 SWAP1 POP JUMPDEST PUSH3 0x959 PUSH3 0x950 DUP6 PUSH3 0x7EE JUMP JUMPDEST DUP4 ADD DUP3 PUSH3 0x8EB JUMP JUMPDEST POP POP JUMPDEST POP POP POP JUMP JUMPDEST PUSH0 DUP3 DUP3 SHR SWAP1 POP SWAP3 SWAP2 POP POP JUMP JUMPDEST PUSH0 PUSH3 0x97E PUSH0 NOT DUP5 PUSH1 0x8 MUL PUSH3 0x961 JUMP JUMPDEST NOT DUP1 DUP4 AND SWAP2 POP POP SWAP3 SWAP2 POP POP JUMP JUMPDEST PUSH0 PUSH3 0x998 DUP4 DUP4 PUSH3 0x96D JUMP JUMPDEST SWAP2 POP DUP3 PUSH1 0x2 MUL DUP3 OR SWAP1 POP SWAP3 SWAP2 POP POP JUMP JUMPDEST PUSH3 0x9B3 DUP3 PUSH3 0x744 JUMP JUMPDEST PUSH8 0xFFFFFFFFFFFFFFFF DUP2 GT ISZERO PUSH3 0x9CF JUMPI PUSH3 0x9CE PUSH3 0x74E JUMP JUMPDEST JUMPDEST PUSH3 0x9DB DUP3 SLOAD PUSH3 0x7A8 JUMP JUMPDEST PUSH3 0x9E8 DUP3 DUP3 DUP6 PUSH3 0x911 JUMP JUMPDEST PUSH0 PUSH1 0x20 SWAP1 POP PUSH1 0x1F DUP4 GT PUSH1 0x1 DUP2 EQ PUSH3 0xA1E JUMPI PUSH0 DUP5 ISZERO PUSH3 0xA09 JUMPI DUP3 DUP8 ADD MLOAD SWAP1 POP JUMPDEST PUSH3 0xA15 DUP6 DUP3 PUSH3 0x98B JUMP JUMPDEST DUP7 SSTORE POP PUSH3 0xA84 JUMP JUMPDEST PUSH1 0x1F NOT DUP5 AND PUSH3 0xA2E DUP7 PUSH3 0x7DC JUMP JUMPDEST PUSH0 JUMPDEST DUP3 DUP2 LT ISZERO PUSH3 0xA57 JUMPI DUP5 DUP10 ADD MLOAD DUP3 SSTORE PUSH1 0x1 DUP3 ADD SWAP2 POP PUSH1 0x20 DUP6 ADD SWAP5 POP PUSH1 0x20 DUP2 ADD SWAP1 POP PUSH3 0xA30 JUMP JUMPDEST DUP7 DUP4 LT ISZERO PUSH3 0xA77 JUMPI DUP5 DUP10 ADD MLOAD PUSH3 0xA73 PUSH1 0x1F DUP10 AND DUP3 PUSH3 0x96D JUMP JUMPDEST DUP4 SSTORE POP JUMPDEST PUSH1 0x1 PUSH1 0x2 DUP9 MUL ADD DUP9 SSTORE POP POP POP JUMPDEST POP POP POP POP POP POP JUMP JUMPDEST PUSH0 DUP3 DUP3 MSTORE PUSH1 0x20 DUP3 ADD SWAP1 POP SWAP3 SWAP2 POP POP JUMP JUMPDEST PUSH32 0x45524332303A206D696E7420746F20746865207A65726F206164647265737300 PUSH0 DUP3 ADD MSTORE POP JUMP JUMPDEST PUSH0 PUSH3 0xAD2 PUSH1 0x1F DUP4 PUSH3 0xA8C JUMP JUMPDEST SWAP2 POP PUSH3 0xADF DUP3 PUSH3 0xA9C JUMP JUMPDEST PUSH1 0x20 DUP3 ADD SWAP1 POP SWAP2 SWAP1 POP JUMP JUMPDEST PUSH0 PUSH1 0x20 DUP3 ADD SWAP1 POP DUP2 DUP2 SUB PUSH0 DUP4 ADD MSTORE PUSH3 0xB03 DUP2 PUSH3 0xAC4 JUMP JUMPDEST SWAP1 POP SWAP2 SWAP1 POP JUMP JUMPDEST PUSH32 0x4E487B7100000000000000000000000000000000000000000000000000000000 PUSH0 MSTORE PUSH1 0x11 PUSH1 0x4 MSTORE PUSH1 0x24 PUSH0 REVERT JUMPDEST PUSH0 PUSH3 0xB43 DUP3 PUSH3 0x85E JUMP JUMPDEST SWAP2 POP PUSH3 0xB50 DUP4 PUSH3 0x85E JUMP JUMPDEST SWAP3 POP DUP3 DUP3 ADD SWAP1 POP DUP1 DUP3 GT ISZERO PUSH3 0xB6B JUMPI PUSH3 0xB6A PUSH3 0xB0A JUMP JUMPDEST JUMPDEST SWAP3 SWAP2 POP POP JUMP JUMPDEST PUSH3 0xB7C DUP2 PUSH3 0x85E JUMP JUMPDEST DUP3 MSTORE POP POP JUMP JUMPDEST PUSH0 PUSH1 0x20 DUP3 ADD SWAP1 POP PUSH3 0xB97 PUSH0 DUP4 ADD DUP5 PUSH3 0xB71 JUMP JUMPDEST SWAP3 SWAP2 POP POP JUMP JUMPDEST PUSH1 0x80 MLOAD PUSH1 0xA0 MLOAD PUSH1 0xC0 MLOAD PUSH2 0x4F16 PUSH3 0xC00 PUSH0 CODECOPY PUSH0 DUP2 DUP2 PUSH2 0x1499 ADD MSTORE DUP2 DUP2 PUSH2 0x2581 ADD MSTORE PUSH2 0x33C9 ADD MSTORE PUSH0 DUP2 DUP2 PUSH2 0x243B ADD MSTORE DUP2 DUP2 PUSH2 0x26FD ADD MSTORE DUP2 DUP2 PUSH2 0x278C ADD MSTORE DUP2 DUP2 PUSH2 0x346B ADD MSTORE DUP2 DUP2 PUSH2 0x34FA ADD MSTORE DUP2 DUP2 PUSH2 0x3730 ADD MSTORE PUSH2 0x3757 ADD MSTORE PUSH0 PUSH2 0x145D ADD MSTORE PUSH2 0x4F16 PUSH0 RETURN INVALID PUSH1 0x80 PUSH1 0x40 MSTORE PUSH1 0x4 CALLDATASIZE LT PUSH2 0x39A JUMPI PUSH0 CALLDATALOAD PUSH1 0xE0 SHR DUP1 PUSH4 0x82D20116 GT PUSH2 0x1DB JUMPI DUP1 PUSH4 0xB8C61130 GT PUSH2 0x101 JUMPI DUP1 PUSH4 0xCDBA31FD GT PUSH2 0x9F JUMPI DUP1 PUSH4 0xE1E5A66D GT PUSH2 0x6E JUMPI DUP1 PUSH4 0xE1E5A66D EQ PUSH2 0xD27 JUMPI DUP1 PUSH4 0xE5E31B13 EQ PUSH2 0xD51 JUMPI DUP1 PUSH4 0xF2FDE38B EQ PUSH2 0xD8D JUMPI DUP1 PUSH4 0xFB5F27FB EQ PUSH2 0xDB5 JUMPI PUSH2 0x3A1 JUMP JUMPDEST DUP1 PUSH4 0xCDBA31FD EQ PUSH2 0xC6D JUMPI DUP1 PUSH4 0xD8306786 EQ PUSH2 0xC97 JUMPI DUP1 PUSH4 0xDBD6C489 EQ PUSH2 0xCC1 JUMPI DUP1 PUSH4 0xDD62ED3E EQ PUSH2 0xCEB JUMPI PUSH2 0x3A1 JUMP JUMPDEST DUP1 PUSH4 0xBFA382B5 GT PUSH2 0xDB JUMPI DUP1 PUSH4 0xBFA382B5 EQ PUSH2 0xBC7 JUMPI DUP1 PUSH4 0xC2B7BBB6 EQ PUSH2 0xBDD JUMPI DUP1 PUSH4 0xC6D2577D EQ PUSH2 0xC19 JUMPI DUP1 PUSH4 0xCB806E07 EQ PUSH2 0xC43 JUMPI PUSH2 0x3A1 JUMP JUMPDEST DUP1 PUSH4 0xB8C61130 EQ PUSH2 0xB39 JUMPI DUP1 PUSH4 0xBDF391CC EQ PUSH2 0xB61 JUMPI DUP1 PUSH4 0xBF56B371 EQ PUSH2 0xB9D JUMPI PUSH2 0x3A1 JUMP JUMPDEST DUP1 PUSH4 0x95D89B41 GT PUSH2 0x179 JUMPI DUP1 PUSH4 0xAAC46C95 GT PUSH2 0x148 JUMPI DUP1 PUSH4 0xAAC46C95 EQ PUSH2 0xA93 JUMPI DUP1 PUSH4 0xACE18801 EQ PUSH2 0xABB JUMPI DUP1 PUSH4 0xB6309F68 EQ PUSH2 0xAE5 JUMPI DUP1 PUSH4 0xB7EED4C4 EQ PUSH2 0xB0F JUMPI PUSH2 0x3A1 JUMP JUMPDEST DUP1 PUSH4 0x95D89B41 EQ PUSH2 0x9B5 JUMPI DUP1 PUSH4 0xA457C2D7 EQ PUSH2 0x9DF JUMPI DUP1 PUSH4 0xA5BC5085 EQ PUSH2 0xA1B JUMPI DUP1 PUSH4 0xA9059CBB EQ PUSH2 0xA57 JUMPI PUSH2 0x3A1 JUMP JUMPDEST DUP1 PUSH4 0x86C8782F GT PUSH2 0x1B5 JUMPI DUP1 PUSH4 0x86C8782F EQ PUSH2 0x923 JUMPI DUP1 PUSH4 0x8DA5CB5B EQ PUSH2 0x94D JUMPI DUP1 PUSH4 0x8FBBD750 EQ PUSH2 0x977 JUMPI DUP1 PUSH4 0x9272293C EQ PUSH2 0x98D JUMPI PUSH2 0x3A1 JUMP JUMPDEST DUP1 PUSH4 0x82D20116 EQ PUSH2 0x8A5 JUMPI DUP1 PUSH4 0x86013940 EQ PUSH2 0x8CF JUMPI DUP1 PUSH4 0x861FAF5F EQ PUSH2 0x8F9 JUMPI PUSH2 0x3A1 JUMP JUMPDEST DUP1 PUSH4 0x2D2F244B GT PUSH2 0x2C0 JUMPI DUP1 PUSH4 0x53148416 GT PUSH2 0x25E JUMPI DUP1 PUSH4 0x70A08231 GT PUSH2 0x22D JUMPI DUP1 PUSH4 0x70A08231 EQ PUSH2 0x7ED JUMPI DUP1 PUSH4 0x70C8810E EQ PUSH2 0x829 JUMPI DUP1 PUSH4 0x715018A6 EQ PUSH2 0x853 JUMPI DUP1 PUSH4 0x8072250B EQ PUSH2 0x869 JUMPI PUSH2 0x3A1 JUMP JUMPDEST DUP1 PUSH4 0x53148416 EQ PUSH2 0x747 JUMPI DUP1 PUSH4 0x658D4B7F EQ PUSH2 0x771 JUMPI DUP1 PUSH4 0x6C470595 EQ PUSH2 0x799 JUMPI DUP1 PUSH4 0x6DDD1713 EQ PUSH2 0x7C3 JUMPI PUSH2 0x3A1 JUMP JUMPDEST DUP1 PUSH4 0x39509351 GT PUSH2 0x29A JUMPI DUP1 PUSH4 0x39509351 EQ PUSH2 0x691 JUMPI DUP1 PUSH4 0x3F4218E0 EQ PUSH2 0x6CD JUMPI DUP1 PUSH4 0x4460D3CF EQ PUSH2 0x709 JUMPI DUP1 PUSH4 0x4FAB9E4C EQ PUSH2 0x731 JUMPI PUSH2 0x3A1 JUMP JUMPDEST DUP1 PUSH4 0x2D2F244B EQ PUSH2 0x627 JUMPI DUP1 PUSH4 0x313CE567 EQ PUSH2 0x651 JUMPI DUP1 PUSH4 0x364333F4 EQ PUSH2 0x67B JUMPI PUSH2 0x3A1 JUMP JUMPDEST DUP1 PUSH4 0x12835C5E GT PUSH2 0x338 JUMPI DUP1 PUSH4 0x18ABB635 GT PUSH2 0x307 JUMPI DUP1 PUSH4 0x18ABB635 EQ PUSH2 0x56F JUMPI DUP1 PUSH4 0x234A2DAA EQ PUSH2 0x597 JUMPI DUP1 PUSH4 0x23B872DD EQ PUSH2 0x5C1 JUMPI DUP1 PUSH4 0x2B112E49 EQ PUSH2 0x5FD JUMPI PUSH2 0x3A1 JUMP JUMPDEST DUP1 PUSH4 0x12835C5E EQ PUSH2 0x4C7 JUMPI DUP1 PUSH4 0x15674E8E EQ PUSH2 0x4F1 JUMPI DUP1 PUSH4 0x180B0D7E EQ PUSH2 0x51B JUMPI DUP1 PUSH4 0x18160DDD EQ PUSH2 0x545 JUMPI PUSH2 0x3A1 JUMP JUMPDEST DUP1 PUSH4 0x6FDDE03 GT PUSH2 0x374 JUMPI DUP1 PUSH4 0x6FDDE03 EQ PUSH2 0x40F JUMPI DUP1 PUSH4 0x95EA7B3 EQ PUSH2 0x439 JUMPI DUP1 PUSH4 0xCA5979B EQ PUSH2 0x475 JUMPI DUP1 PUSH4 0x1107B3A5 EQ PUSH2 0x49D JUMPI PUSH2 0x3A1 JUMP JUMPDEST DUP1 PUSH4 0x1339C21 EQ PUSH2 0x3A5 JUMPI DUP1 PUSH4 0x17E24E1 EQ PUSH2 0x3BB JUMPI DUP1 PUSH4 0x323AAC7 EQ PUSH2 0x3E5 JUMPI PUSH2 0x3A1 JUMP JUMPDEST CALLDATASIZE PUSH2 0x3A1 JUMPI STOP JUMPDEST PUSH0 DUP1 REVERT JUMPDEST CALLVALUE DUP1 ISZERO PUSH2 0x3B0 JUMPI PUSH0 DUP1 REVERT JUMPDEST POP PUSH2 0x3B9 PUSH2 0xDDF JUMP JUMPDEST STOP JUMPDEST CALLVALUE DUP1 ISZERO PUSH2 0x3C6 JUMPI PUSH0 DUP1 REVERT JUMPDEST POP PUSH2 0x3CF PUSH2 0xE3B JUMP JUMPDEST PUSH1 0x40 MLOAD PUSH2 0x3DC SWAP2 SWAP1 PUSH2 0x3A03 JUMP JUMPDEST PUSH1 0x40 MLOAD DUP1 SWAP2 SUB SWAP1 RETURN JUMPDEST CALLVALUE DUP1 ISZERO PUSH2 0x3F0 JUMPI PUSH0 DUP1 REVERT JUMPDEST POP PUSH2 0x3F9 PUSH2 0xE41 JUMP JUMPDEST PUSH1 0x40 MLOAD PUSH2 0x406 SWAP2 SWAP1 PUSH2 0x3A03 JUMP JUMPDEST PUSH1 0x40 MLOAD DUP1 SWAP2 SUB SWAP1 RETURN JUMPDEST CALLVALUE DUP1 ISZERO PUSH2 0x41A JUMPI PUSH0 DUP1 REVERT JUMPDEST POP PUSH2 0x423 PUSH2 0xE51 JUMP JUMPDEST PUSH1 0x40 MLOAD PUSH2 0x430 SWAP2 SWAP1 PUSH2 0x3AA6 JUMP JUMPDEST PUSH1 0x40 MLOAD DUP1 SWAP2 SUB SWAP1 RETURN JUMPDEST CALLVALUE DUP1 ISZERO PUSH2 0x444 JUMPI PUSH0 DUP1 REVERT JUMPDEST POP PUSH2 0x45F PUSH1 0x4 DUP1 CALLDATASIZE SUB DUP2 ADD SWAP1 PUSH2 0x45A SWAP2 SWAP1 PUSH2 0x3B4E JUMP JUMPDEST PUSH2 0xEE1 JUMP JUMPDEST PUSH1 0x40 MLOAD PUSH2 0x46C SWAP2 SWAP1 PUSH2 0x3BA6 JUMP JUMPDEST PUSH1 0x40 MLOAD DUP1 SWAP2 SUB SWAP1 RETURN JUMPDEST CALLVALUE DUP1 ISZERO PUSH2 0x480 JUMPI PUSH0 DUP1 REVERT JUMPDEST POP PUSH2 0x49B PUSH1 0x4 DUP1 CALLDATASIZE SUB DUP2 ADD SWAP1 PUSH2 0x496 SWAP2 SWAP1 PUSH2 0x3BBF JUMP JUMPDEST PUSH2 0xF03 JUMP JUMPDEST STOP JUMPDEST CALLVALUE DUP1 ISZERO PUSH2 0x4A8 JUMPI PUSH0 DUP1 REVERT JUMPDEST POP PUSH2 0x4B1 PUSH2 0xF78 JUMP JUMPDEST PUSH1 0x40 MLOAD PUSH2 0x4BE SWAP2 SWAP1 PUSH2 0x3A03 JUMP JUMPDEST PUSH1 0x40 MLOAD DUP1 SWAP2 SUB SWAP1 RETURN JUMPDEST CALLVALUE DUP1 ISZERO PUSH2 0x4D2 JUMPI PUSH0 DUP1 REVERT JUMPDEST POP PUSH2 0x4DB PUSH2 0xF7E JUMP JUMPDEST PUSH1 0x40 MLOAD PUSH2 0x4E8 SWAP2 SWAP1 PUSH2 0x3A03 JUMP JUMPDEST PUSH1 0x40 MLOAD DUP1 SWAP2 SUB SWAP1 RETURN JUMPDEST CALLVALUE DUP1 ISZERO PUSH2 0x4FC JUMPI PUSH0 DUP1 REVERT JUMPDEST POP PUSH2 0x505 PUSH2 0xF84 JUMP JUMPDEST PUSH1 0x40 MLOAD PUSH2 0x512 SWAP2 SWAP1 PUSH2 0x3A03 JUMP JUMPDEST PUSH1 0x40 MLOAD DUP1 SWAP2 SUB SWAP1 RETURN JUMPDEST CALLVALUE DUP1 ISZERO PUSH2 0x526 JUMPI PUSH0 DUP1 REVERT JUMPDEST POP PUSH2 0x52F PUSH2 0xF8A JUMP JUMPDEST PUSH1 0x40 MLOAD PUSH2 0x53C SWAP2 SWAP1 PUSH2 0x3A03 JUMP JUMPDEST PUSH1 0x40 MLOAD DUP1 SWAP2 SUB SWAP1 RETURN JUMPDEST CALLVALUE DUP1 ISZERO PUSH2 0x550 JUMPI PUSH0 DUP1 REVERT JUMPDEST POP PUSH2 0x559 PUSH2 0xF90 JUMP JUMPDEST PUSH1 0x40 MLOAD PUSH2 0x566 SWAP2 SWAP1 PUSH2 0x3A03 JUMP JUMPDEST PUSH1 0x40 MLOAD DUP1 SWAP2 SUB SWAP1 RETURN JUMPDEST CALLVALUE DUP1 ISZERO PUSH2 0x57A JUMPI PUSH0 DUP1 REVERT JUMPDEST POP PUSH2 0x595 PUSH1 0x4 DUP1 CALLDATASIZE SUB DUP2 ADD SWAP1 PUSH2 0x590 SWAP2 SWAP1 PUSH2 0x3C5C JUMP JUMPDEST PUSH2 0xF99 JUMP JUMPDEST STOP JUMPDEST CALLVALUE DUP1 ISZERO PUSH2 0x5A2 JUMPI PUSH0 DUP1 REVERT JUMPDEST POP PUSH2 0x5AB PUSH2 0x1128 JUMP JUMPDEST PUSH1 0x40 MLOAD PUSH2 0x5B8 SWAP2 SWAP1 PUSH2 0x3A03 JUMP JUMPDEST PUSH1 0x40 MLOAD DUP1 SWAP2 SUB SWAP1 RETURN JUMPDEST CALLVALUE DUP1 ISZERO PUSH2 0x5CC JUMPI PUSH0 DUP1 REVERT JUMPDEST POP PUSH2 0x5E7 PUSH1 0x4 DUP1 CALLDATASIZE SUB DUP2 ADD SWAP1 PUSH2 0x5E2 SWAP2 SWAP1 PUSH2 0x3CD3 JUMP JUMPDEST PUSH2 0x112E JUMP JUMPDEST PUSH1 0x40 MLOAD PUSH2 0x5F4 SWAP2 SWAP1 PUSH2 0x3BA6 JUMP JUMPDEST PUSH1 0x40 MLOAD DUP1 SWAP2 SUB SWAP1 RETURN JUMPDEST CALLVALUE DUP1 ISZERO PUSH2 0x608 JUMPI PUSH0 DUP1 REVERT JUMPDEST POP PUSH2 0x611 PUSH2 0x115A JUMP JUMPDEST PUSH1 0x40 MLOAD PUSH2 0x61E SWAP2 SWAP1 PUSH2 0x3A03 JUMP JUMPDEST PUSH1 0x40 MLOAD DUP1 SWAP2 SUB SWAP1 RETURN JUMPDEST CALLVALUE DUP1 ISZERO PUSH2 0x632 JUMPI PUSH0 DUP1 REVERT JUMPDEST POP PUSH2 0x63B PUSH2 0x1190 JUMP JUMPDEST PUSH1 0x40 MLOAD PUSH2 0x648 SWAP2 SWAP1 PUSH2 0x3D7E JUMP JUMPDEST PUSH1 0x40 MLOAD DUP1 SWAP2 SUB SWAP1 RETURN JUMPDEST CALLVALUE DUP1 ISZERO PUSH2 0x65C JUMPI PUSH0 DUP1 REVERT JUMPDEST POP PUSH2 0x665 PUSH2 0x11B5 JUMP JUMPDEST PUSH1 0x40 MLOAD PUSH2 0x672 SWAP2 SWAP1 PUSH2 0x3DB2 JUMP JUMPDEST PUSH1 0x40 MLOAD DUP1 SWAP2 SUB SWAP1 RETURN JUMPDEST CALLVALUE DUP1 ISZERO PUSH2 0x686 JUMPI PUSH0 DUP1 REVERT JUMPDEST POP PUSH2 0x68F PUSH2 0x11BD JUMP JUMPDEST STOP JUMPDEST CALLVALUE DUP1 ISZERO PUSH2 0x69C JUMPI PUSH0 DUP1 REVERT JUMPDEST POP PUSH2 0x6B7 PUSH1 0x4 DUP1 CALLDATASIZE SUB DUP2 ADD SWAP1 PUSH2 0x6B2 SWAP2 SWAP1 PUSH2 0x3B4E JUMP JUMPDEST PUSH2 0x1303 JUMP JUMPDEST PUSH1 0x40 MLOAD PUSH2 0x6C4 SWAP2 SWAP1 PUSH2 0x3BA6 JUMP JUMPDEST PUSH1 0x40 MLOAD DUP1 SWAP2 SUB SWAP1 RETURN JUMPDEST CALLVALUE DUP1 ISZERO PUSH2 0x6D8 JUMPI PUSH0 DUP1 REVERT JUMPDEST POP PUSH2 0x6F3 PUSH1 0x4 DUP1 CALLDATASIZE SUB DUP2 ADD SWAP1 PUSH2 0x6EE SWAP2 SWAP1 PUSH2 0x3DCB JUMP JUMPDEST PUSH2 0x1339 JUMP JUMPDEST PUSH1 0x40 MLOAD PUSH2 0x700 SWAP2 SWAP1 PUSH2 0x3BA6 JUMP JUMPDEST PUSH1 0x40 MLOAD DUP1 SWAP2 SUB SWAP1 RETURN JUMPDEST CALLVALUE DUP1 ISZERO PUSH2 0x714 JUMPI PUSH0 DUP1 REVERT JUMPDEST POP PUSH2 0x72F PUSH1 0x4 DUP1 CALLDATASIZE SUB DUP2 ADD SWAP1 PUSH2 0x72A SWAP2 SWAP1 PUSH2 0x3DCB JUMP JUMPDEST PUSH2 0x1356 JUMP JUMPDEST STOP JUMPDEST CALLVALUE DUP1 ISZERO PUSH2 0x73C JUMPI PUSH0 DUP1 REVERT JUMPDEST POP PUSH2 0x745 PUSH2 0x1403 JUMP JUMPDEST STOP JUMPDEST CALLVALUE DUP1 ISZERO PUSH2 0x752 JUMPI PUSH0 DUP1 REVERT JUMPDEST POP PUSH2 0x75B PUSH2 0x154A JUMP JUMPDEST PUSH1 0x40 MLOAD PUSH2 0x768 SWAP2 SWAP1 PUSH2 0x3A03 JUMP JUMPDEST PUSH1 0x40 MLOAD DUP1 SWAP2 SUB SWAP1 RETURN JUMPDEST CALLVALUE DUP1 ISZERO PUSH2 0x77C JUMPI PUSH0 DUP1 REVERT JUMPDEST POP PUSH2 0x797 PUSH1 0x4 DUP1 CALLDATASIZE SUB DUP2 ADD SWAP1 PUSH2 0x792 SWAP2 SWAP1 PUSH2 0x3E20 JUMP JUMPDEST PUSH2 0x1550 JUMP JUMPDEST STOP JUMPDEST CALLVALUE DUP1 ISZERO PUSH2 0x7A4 JUMPI PUSH0 DUP1 REVERT JUMPDEST POP PUSH2 0x7AD PUSH2 0x15B0 JUMP JUMPDEST PUSH1 0x40 MLOAD PUSH2 0x7BA SWAP2 SWAP1 PUSH2 0x3A03 JUMP JUMPDEST PUSH1 0x40 MLOAD DUP1 SWAP2 SUB SWAP1 RETURN JUMPDEST CALLVALUE DUP1 ISZERO PUSH2 0x7CE JUMPI PUSH0 DUP1 REVERT JUMPDEST POP PUSH2 0x7D7 PUSH2 0x15B6 JUMP JUMPDEST PUSH1 0x40 MLOAD PUSH2 0x7E4 SWAP2 SWAP1 PUSH2 0x3BA6 JUMP JUMPDEST PUSH1 0x40 MLOAD DUP1 SWAP2 SUB SWAP1 RETURN JUMPDEST CALLVALUE DUP1 ISZERO PUSH2 0x7F8 JUMPI PUSH0 DUP1 REVERT JUMPDEST POP PUSH2 0x813 PUSH1 0x4 DUP1 CALLDATASIZE SUB DUP2 ADD SWAP1 PUSH2 0x80E SWAP2 SWAP1 PUSH2 0x3DCB JUMP JUMPDEST PUSH2 0x15C9 JUMP JUMPDEST PUSH1 0x40 MLOAD PUSH2 0x820 SWAP2 SWAP1 PUSH2 0x3A03 JUMP JUMPDEST PUSH1 0x40 MLOAD DUP1 SWAP2 SUB SWAP1 RETURN JUMPDEST CALLVALUE DUP1 ISZERO PUSH2 0x834 JUMPI PUSH0 DUP1 REVERT JUMPDEST POP PUSH2 0x83D PUSH2 0x160E JUMP JUMPDEST PUSH1 0x40 MLOAD PUSH2 0x84A SWAP2 SWAP1 PUSH2 0x3A03 JUMP JUMPDEST PUSH1 0x40 MLOAD DUP1 SWAP2 SUB SWAP1 RETURN JUMPDEST CALLVALUE DUP1 ISZERO PUSH2 0x85E JUMPI PUSH0 DUP1 REVERT JUMPDEST POP PUSH2 0x867 PUSH2 0x1614 JUMP JUMPDEST STOP JUMPDEST CALLVALUE DUP1 ISZERO PUSH2 0x874 JUMPI PUSH0 DUP1 REVERT JUMPDEST POP PUSH2 0x88F PUSH1 0x4 DUP1 CALLDATASIZE SUB DUP2 ADD SWAP1 PUSH2 0x88A SWAP2 SWAP1 PUSH2 0x3DCB JUMP JUMPDEST PUSH2 0x1627 JUMP JUMPDEST PUSH1 0x40 MLOAD PUSH2 0x89C SWAP2 SWAP1 PUSH2 0x3BA6 JUMP JUMPDEST PUSH1 0x40 MLOAD DUP1 SWAP2 SUB SWAP1 RETURN JUMPDEST CALLVALUE DUP1 ISZERO PUSH2 0x8B0 JUMPI PUSH0 DUP1 REVERT JUMPDEST POP PUSH2 0x8B9 PUSH2 0x1644 JUMP JUMPDEST PUSH1 0x40 MLOAD PUSH2 0x8C6 SWAP2 SWAP1 PUSH2 0x3A03 JUMP JUMPDEST PUSH1 0x40 MLOAD DUP1 SWAP2 SUB SWAP1 RETURN JUMPDEST CALLVALUE DUP1 ISZERO PUSH2 0x8DA JUMPI PUSH0 DUP1 REVERT JUMPDEST POP PUSH2 0x8E3 PUSH2 0x164A JUMP JUMPDEST PUSH1 0x40 MLOAD PUSH2 0x8F0 SWAP2 SWAP1 PUSH2 0x3BA6 JUMP JUMPDEST PUSH1 0x40 MLOAD DUP1 SWAP2 SUB SWAP1 RETURN JUMPDEST CALLVALUE DUP1 ISZERO PUSH2 0x904 JUMPI PUSH0 DUP1 REVERT JUMPDEST POP PUSH2 0x90D PUSH2 0x165D JUMP JUMPDEST PUSH1 0x40 MLOAD PUSH2 0x91A SWAP2 SWAP1 PUSH2 0x3E7E JUMP JUMPDEST PUSH1 0x40 MLOAD DUP1 SWAP2 SUB SWAP1 RETURN JUMPDEST CALLVALUE DUP1 ISZERO PUSH2 0x92E JUMPI PUSH0 DUP1 REVERT JUMPDEST POP PUSH2 0x937 PUSH2 0x1682 JUMP JUMPDEST PUSH1 0x40 MLOAD PUSH2 0x944 SWAP2 SWAP1 PUSH2 0x3A03 JUMP JUMPDEST PUSH1 0x40 MLOAD DUP1 SWAP2 SUB SWAP1 RETURN JUMPDEST CALLVALUE DUP1 ISZERO PUSH2 0x958 JUMPI PUSH0 DUP1 REVERT JUMPDEST POP PUSH2 0x961 PUSH2 0x1688 JUMP JUMPDEST PUSH1 0x40 MLOAD PUSH2 0x96E SWAP2 SWAP1 PUSH2 0x3EA6 JUMP JUMPDEST PUSH1 0x40 MLOAD DUP1 SWAP2 SUB SWAP1 RETURN JUMPDEST CALLVALUE DUP1 ISZERO PUSH2 0x982 JUMPI PUSH0 DUP1 REVERT JUMPDEST POP PUSH2 0x98B PUSH2 0x16B0 JUMP JUMPDEST STOP JUMPDEST CALLVALUE DUP1 ISZERO PUSH2 0x998 JUMPI PUSH0 DUP1 REVERT JUMPDEST POP PUSH2 0x9B3 PUSH1 0x4 DUP1 CALLDATASIZE SUB DUP2 ADD SWAP1 PUSH2 0x9AE SWAP2 SWAP1 PUSH2 0x3BBF JUMP JUMPDEST PUSH2 0x16C2 JUMP JUMPDEST STOP JUMPDEST CALLVALUE DUP1 ISZERO PUSH2 0x9C0 JUMPI PUSH0 DUP1 REVERT JUMPDEST POP PUSH2 0x9C9 PUSH2 0x1737 JUMP JUMPDEST PUSH1 0x40 MLOAD PUSH2 0x9D6 SWAP2 SWAP1 PUSH2 0x3AA6 JUMP JUMPDEST PUSH1 0x40 MLOAD DUP1 SWAP2 SUB SWAP1 RETURN JUMPDEST CALLVALUE DUP1 ISZERO PUSH2 0x9EA JUMPI PUSH0 DUP1 REVERT JUMPDEST POP PUSH2 0xA05 PUSH1 0x4 DUP1 CALLDATASIZE SUB DUP2 ADD SWAP1 PUSH2 0xA00 SWAP2 SWAP1 PUSH2 0x3B4E JUMP JUMPDEST PUSH2 0x17C7 JUMP JUMPDEST PUSH1 0x40 MLOAD PUSH2 0xA12 SWAP2 SWAP1 PUSH2 0x3BA6 JUMP JUMPDEST PUSH1 0x40 MLOAD DUP1 SWAP2 SUB SWAP1 RETURN JUMPDEST CALLVALUE DUP1 ISZERO PUSH2 0xA26 JUMPI PUSH0 DUP1 REVERT JUMPDEST POP PUSH2 0xA41 PUSH1 0x4 DUP1 CALLDATASIZE SUB DUP2 ADD SWAP1 PUSH2 0xA3C SWAP2 SWAP1 PUSH2 0x3DCB JUMP JUMPDEST PUSH2 0x183C JUMP JUMPDEST PUSH1 0x40 MLOAD PUSH2 0xA4E SWAP2 SWAP1 PUSH2 0x3BA6 JUMP JUMPDEST PUSH1 0x40 MLOAD DUP1 SWAP2 SUB SWAP1 RETURN JUMPDEST CALLVALUE DUP1 ISZERO PUSH2 0xA62 JUMPI PUSH0 DUP1 REVERT JUMPDEST POP PUSH2 0xA7D PUSH1 0x4 DUP1 CALLDATASIZE SUB DUP2 ADD SWAP1 PUSH2 0xA78 SWAP2 SWAP1 PUSH2 0x3B4E JUMP JUMPDEST PUSH2 0x18E7 JUMP JUMPDEST PUSH1 0x40 MLOAD PUSH2 0xA8A SWAP2 SWAP1 PUSH2 0x3BA6 JUMP JUMPDEST PUSH1 0x40 MLOAD DUP1 SWAP2 SUB SWAP1 RETURN JUMPDEST CALLVALUE DUP1 ISZERO PUSH2 0xA9E JUMPI PUSH0 DUP1 REVERT JUMPDEST POP PUSH2 0xAB9 PUSH1 0x4 DUP1 CALLDATASIZE SUB DUP2 ADD SWAP1 PUSH2 0xAB4 SWAP2 SWAP1 PUSH2 0x3EBF JUMP JUMPDEST PUSH2 0x1902 JUMP JUMPDEST STOP JUMPDEST CALLVALUE DUP1 ISZERO PUSH2 0xAC6 JUMPI PUSH0 DUP1 REVERT JUMPDEST POP PUSH2 0xACF PUSH2 0x1927 JUMP JUMPDEST PUSH1 0x40 MLOAD PUSH2 0xADC SWAP2 SWAP1 PUSH2 0x3A03 JUMP JUMPDEST PUSH1 0x40 MLOAD DUP1 SWAP2 SUB SWAP1 RETURN JUMPDEST CALLVALUE DUP1 ISZERO PUSH2 0xAF0 JUMPI PUSH0 DUP1 REVERT JUMPDEST POP PUSH2 0xAF9 PUSH2 0x192D JUMP JUMPDEST PUSH1 0x40 MLOAD PUSH2 0xB06 SWAP2 SWAP1 PUSH2 0x3A03 JUMP JUMPDEST PUSH1 0x40 MLOAD DUP1 SWAP2 SUB SWAP1 RETURN JUMPDEST CALLVALUE DUP1 ISZERO PUSH2 0xB1A JUMPI PUSH0 DUP1 REVERT JUMPDEST POP PUSH2 0xB23 PUSH2 0x1933 JUMP JUMPDEST PUSH1 0x40 MLOAD PUSH2 0xB30 SWAP2 SWAP1 PUSH2 0x3A03 JUMP JUMPDEST PUSH1 0x40 MLOAD DUP1 SWAP2 SUB SWAP1 RETURN JUMPDEST CALLVALUE DUP1 ISZERO PUSH2 0xB44 JUMPI PUSH0 DUP1 REVERT JUMPDEST POP PUSH2 0xB5F PUSH1 0x4 DUP1 CALLDATASIZE SUB DUP2 ADD SWAP1 PUSH2 0xB5A SWAP2 SWAP1 PUSH2 0x3EBF JUMP JUMPDEST PUSH2 0x1939 JUMP JUMPDEST STOP JUMPDEST CALLVALUE DUP1 ISZERO PUSH2 0xB6C JUMPI PUSH0 DUP1 REVERT JUMPDEST POP PUSH2 0xB87 PUSH1 0x4 DUP1 CALLDATASIZE SUB DUP2 ADD SWAP1 PUSH2 0xB82 SWAP2 SWAP1 PUSH2 0x3EEA JUMP JUMPDEST PUSH2 0x195E JUMP JUMPDEST PUSH1 0x40 MLOAD PUSH2 0xB94 SWAP2 SWAP1 PUSH2 0x3EA6 JUMP JUMPDEST PUSH1 0x40 MLOAD DUP1 SWAP2 SUB SWAP1 RETURN JUMPDEST CALLVALUE DUP1 ISZERO PUSH2 0xBA8 JUMPI PUSH0 DUP1 REVERT JUMPDEST POP PUSH2 0xBB1 PUSH2 0x19D2 JUMP JUMPDEST PUSH1 0x40 MLOAD PUSH2 0xBBE SWAP2 SWAP1 PUSH2 0x3A03 JUMP JUMPDEST PUSH1 0x40 MLOAD DUP1 SWAP2 SUB SWAP1 RETURN JUMPDEST CALLVALUE DUP1 ISZERO PUSH2 0xBD2 JUMPI PUSH0 DUP1 REVERT JUMPDEST POP PUSH2 0xBDB PUSH2 0x19D8 JUMP JUMPDEST STOP JUMPDEST CALLVALUE DUP1 ISZERO PUSH2 0xBE8 JUMPI PUSH0 DUP1 REVERT JUMPDEST POP PUSH2 0xC03 PUSH1 0x4 DUP1 CALLDATASIZE SUB DUP2 ADD SWAP1 PUSH2 0xBFE SWAP2 SWAP1 PUSH2 0x3DCB JUMP JUMPDEST PUSH2 0x1AE5 JUMP JUMPDEST PUSH1 0x40 MLOAD PUSH2 0xC10 SWAP2 SWAP1 PUSH2 0x3BA6 JUMP JUMPDEST PUSH1 0x40 MLOAD DUP1 SWAP2 SUB SWAP1 RETURN JUMPDEST CALLVALUE DUP1 ISZERO PUSH2 0xC24 JUMPI PUSH0 DUP1 REVERT JUMPDEST POP PUSH2 0xC2D PUSH2 0x1B77 JUMP JUMPDEST PUSH1 0x40 MLOAD PUSH2 0xC3A SWAP2 SWAP1 PUSH2 0x3A03 JUMP JUMPDEST PUSH1 0x40 MLOAD DUP1 SWAP2 SUB SWAP1 RETURN JUMPDEST CALLVALUE DUP1 ISZERO PUSH2 0xC4E JUMPI PUSH0 DUP1 REVERT JUMPDEST POP PUSH2 0xC57 PUSH2 0x1B7D JUMP JUMPDEST PUSH1 0x40 MLOAD PUSH2 0xC64 SWAP2 SWAP1 PUSH2 0x3A03 JUMP JUMPDEST PUSH1 0x40 MLOAD DUP1 SWAP2 SUB SWAP1 RETURN JUMPDEST CALLVALUE DUP1 ISZERO PUSH2 0xC78 JUMPI PUSH0 DUP1 REVERT JUMPDEST POP PUSH2 0xC81 PUSH2 0x1B83 JUMP JUMPDEST PUSH1 0x40 MLOAD PUSH2 0xC8E SWAP2 SWAP1 PUSH2 0x3A03 JUMP JUMPDEST PUSH1 0x40 MLOAD DUP1 SWAP2 SUB SWAP1 RETURN JUMPDEST CALLVALUE DUP1 ISZERO PUSH2 0xCA2 JUMPI PUSH0 DUP1 REVERT JUMPDEST POP PUSH2 0xCAB PUSH2 0x1B89 JUMP JUMPDEST PUSH1 0x40 MLOAD PUSH2 0xCB8 SWAP2 SWAP1 PUSH2 0x3BA6 JUMP JUMPDEST PUSH1 0x40 MLOAD DUP1 SWAP2 SUB SWAP1 RETURN JUMPDEST CALLVALUE DUP1 ISZERO PUSH2 0xCCC JUMPI PUSH0 DUP1 REVERT JUMPDEST POP PUSH2 0xCD5 PUSH2 0x1B9C JUMP JUMPDEST PUSH1 0x40 MLOAD PUSH2 0xCE2 SWAP2 SWAP1 PUSH2 0x3A03 JUMP JUMPDEST PUSH1 0x40 MLOAD DUP1 SWAP2 SUB SWAP1 RETURN JUMPDEST CALLVALUE DUP1 ISZERO PUSH2 0xCF6 JUMPI PUSH0 DUP1 REVERT JUMPDEST POP PUSH2 0xD11 PUSH1 0x4 DUP1 CALLDATASIZE SUB DUP2 ADD SWAP1 PUSH2 0xD0C SWAP2 SWAP1 PUSH2 0x3F15 JUMP JUMPDEST PUSH2 0x1BA2 JUMP JUMPDEST PUSH1 0x40 MLOAD PUSH2 0xD1E SWAP2 SWAP1 PUSH2 0x3A03 JUMP JUMPDEST PUSH1 0x40 MLOAD DUP1 SWAP2 SUB SWAP1 RETURN JUMPDEST CALLVALUE DUP1 ISZERO PUSH2 0xD32 JUMPI PUSH0 DUP1 REVERT JUMPDEST POP PUSH2 0xD3B PUSH2 0x1C24 JUMP JUMPDEST PUSH1 0x40 MLOAD PUSH2 0xD48 SWAP2 SWAP1 PUSH2 0x3A03 JUMP JUMPDEST PUSH1 0x40 MLOAD DUP1 SWAP2 SUB SWAP1 RETURN JUMPDEST CALLVALUE DUP1 ISZERO PUSH2 0xD5C JUMPI PUSH0 DUP1 REVERT JUMPDEST POP PUSH2 0xD77 PUSH1 0x4 DUP1 CALLDATASIZE SUB DUP2 ADD SWAP1 PUSH2 0xD72 SWAP2 SWAP1 PUSH2 0x3DCB JUMP JUMPDEST PUSH2 0x1C2A JUMP JUMPDEST PUSH1 0x40 MLOAD PUSH2 0xD84 SWAP2 SWAP1 PUSH2 0x3BA6 JUMP JUMPDEST PUSH1 0x40 MLOAD DUP1 SWAP2 SUB SWAP1 RETURN JUMPDEST CALLVALUE DUP1 ISZERO PUSH2 0xD98 JUMPI PUSH0 DUP1 REVERT JUMPDEST POP PUSH2 0xDB3 PUSH1 0x4 DUP1 CALLDATASIZE SUB DUP2 ADD SWAP1 PUSH2 0xDAE SWAP2 SWAP1 PUSH2 0x3DCB JUMP JUMPDEST PUSH2 0x1C46 JUMP JUMPDEST STOP JUMPDEST CALLVALUE DUP1 ISZERO PUSH2 0xDC0 JUMPI PUSH0 DUP1 REVERT JUMPDEST POP PUSH2 0xDC9 PUSH2 0x1CC8 JUMP JUMPDEST PUSH1 0x40 MLOAD PUSH2 0xDD6 SWAP2 SWAP1 PUSH2 0x3A03 JUMP JUMPDEST PUSH1 0x40 MLOAD DUP1 SWAP2 SUB SWAP1 RETURN JUMPDEST PUSH2 0xDE7 PUSH2 0x1CCE JUMP JUMPDEST PUSH0 PUSH1 0x27 SLOAD EQ PUSH2 0xE2B JUMPI PUSH1 0x40 MLOAD PUSH32 0x8C379A000000000000000000000000000000000000000000000000000000000 DUP2 MSTORE PUSH1 0x4 ADD PUSH2 0xE22 SWAP1 PUSH2 0x3F9D JUMP JUMPDEST PUSH1 0x40 MLOAD DUP1 SWAP2 SUB SWAP1 REVERT JUMPDEST NUMBER PUSH1 0x27 DUP2 SWAP1 SSTORE POP TIMESTAMP PUSH1 0x28 DUP2 SWAP1 SSTORE POP JUMP JUMPDEST PUSH1 0xA SLOAD DUP2 JUMP JUMPDEST PUSH0 PUSH2 0xE4C PUSH1 0x2A PUSH2 0x1D4C JUMP JUMPDEST SWAP1 POP SWAP1 JUMP JUMPDEST PUSH1 0x60 PUSH1 0x3 DUP1 SLOAD PUSH2 0xE60 SWAP1 PUSH2 0x3FE8 JUMP JUMPDEST DUP1 PUSH1 0x1F ADD PUSH1 0x20 DUP1 SWAP2 DIV MUL PUSH1 0x20 ADD PUSH1 0x40 MLOAD SWAP1 DUP2 ADD PUSH1 0x40 MSTORE DUP1 SWAP3 SWAP2 SWAP1 DUP2 DUP2 MSTORE PUSH1 0x20 ADD DUP3 DUP1 SLOAD PUSH2 0xE8C SWAP1 PUSH2 0x3FE8 JUMP JUMPDEST DUP1 ISZERO PUSH2 0xED7 JUMPI DUP1 PUSH1 0x1F LT PUSH2 0xEAE JUMPI PUSH2 0x100 DUP1 DUP4 SLOAD DIV MUL DUP4 MSTORE SWAP2 PUSH1 0x20 ADD SWAP2 PUSH2 0xED7 JUMP JUMPDEST DUP3 ADD SWAP2 SWAP1 PUSH0 MSTORE PUSH1 0x20 PUSH0 KECCAK256 SWAP1 JUMPDEST DUP2 SLOAD DUP2 MSTORE SWAP1 PUSH1 0x1 ADD SWAP1 PUSH1 0x20 ADD DUP1 DUP4 GT PUSH2 0xEBA JUMPI DUP3 SWAP1 SUB PUSH1 0x1F AND DUP3 ADD SWAP2 JUMPDEST POP POP POP POP POP SWAP1 POP SWAP1 JUMP JUMPDEST PUSH0 DUP1 PUSH2 0xEEB PUSH2 0x1D5F JUMP JUMPDEST SWAP1 POP PUSH2 0xEF8 DUP2 DUP6 DUP6 PUSH2 0x1D66 JUMP JUMPDEST PUSH1 0x1 SWAP2 POP POP SWAP3 SWAP2 POP POP JUMP JUMPDEST PUSH2 0xF0B PUSH2 0x1CCE JUMP JUMPDEST DUP7 PUSH1 0x12 DUP2 SWAP1 SSTORE POP DUP6 PUSH1 0x13 DUP2 SWAP1 SSTORE POP DUP5 PUSH1 0x14 DUP2 SWAP1 SSTORE POP DUP4 PUSH1 0x15 DUP2 SWAP1 SSTORE POP DUP3 PUSH1 0x16 DUP2 SWAP1 SSTORE POP DUP2 PUSH1 0x17 DUP2 SWAP1 SSTORE POP DUP1 PUSH1 0x11 DUP2 SWAP1 SSTORE POP DUP1 DUP3 DUP5 DUP7 DUP9 PUSH2 0xF4B SWAP2 SWAP1 PUSH2 0x4045 JUMP JUMPDEST PUSH2 0xF55 SWAP2 SWAP1 PUSH2 0x4045 JUMP JUMPDEST PUSH2 0xF5F SWAP2 SWAP1 PUSH2 0x4045 JUMP JUMPDEST PUSH2 0xF69 SWAP2 SWAP1 PUSH2 0x4045 JUMP JUMPDEST PUSH1 0x18 DUP2 SWAP1 SSTORE POP POP POP POP POP POP POP POP JUMP JUMPDEST PUSH1 0x1C SLOAD DUP2 JUMP JUMPDEST PUSH1 0x1F SLOAD DUP2 JUMP JUMPDEST PUSH1 0x11 SLOAD DUP2 JUMP JUMPDEST PUSH1 0x10 SLOAD DUP2 JUMP JUMPDEST PUSH0 PUSH1 0x2 SLOAD SWAP1 POP SWAP1 JUMP JUMPDEST PUSH2 0xFA1 PUSH2 0x1CCE JUMP JUMPDEST DUP5 PUSH1 0x21 PUSH0 PUSH2 0x100 EXP DUP2 SLOAD DUP2 PUSH20 0xFFFFFFFFFFFFFFFFFFFFFFFFFFFFFFFFFFFFFFFF MUL NOT AND SWAP1 DUP4 PUSH20 0xFFFFFFFFFFFFFFFFFFFFFFFFFFFFFFFFFFFFFFFF AND MUL OR SWAP1 SSTORE POP DUP4 PUSH1 0x22 PUSH0 PUSH2 0x100 EXP DUP2 SLOAD DUP2 PUSH20 0xFFFFFFFFFFFFFFFFFFFFFFFFFFFFFFFFFFFFFFFF MUL NOT AND SWAP1 DUP4 PUSH20 0xFFFFFFFFFFFFFFFFFFFFFFFFFFFFFFFFFFFFFFFF AND MUL OR SWAP1 SSTORE POP DUP3 PUSH1 0x23 PUSH0 PUSH2 0x100 EXP DUP2 SLOAD DUP2 PUSH20 0xFFFFFFFFFFFFFFFFFFFFFFFFFFFFFFFFFFFFFFFF MUL NOT AND SWAP1 DUP4 PUSH20 0xFFFFFFFFFFFFFFFFFFFFFFFFFFFFFFFFFFFFFFFF AND MUL OR SWAP1 SSTORE POP DUP2 PUSH1 0x24 PUSH0 PUSH2 0x100 EXP DUP2 SLOAD DUP2 PUSH20 0xFFFFFFFFFFFFFFFFFFFFFFFFFFFFFFFFFFFFFFFF MUL NOT AND SWAP1 DUP4 PUSH20 0xFFFFFFFFFFFFFFFFFFFFFFFFFFFFFFFFFFFFFFFF AND MUL OR SWAP1 SSTORE POP DUP1 PUSH1 0x25 PUSH0 PUSH2 0x100 EXP DUP2 SLOAD DUP2 PUSH20 0xFFFFFFFFFFFFFFFFFFFFFFFFFFFFFFFFFFFFFFFF MUL NOT AND SWAP1 DUP4 PUSH20 0xFFFFFFFFFFFFFFFFFFFFFFFFFFFFFFFFFFFFFFFF AND MUL OR SWAP1 SSTORE POP DUP1 PUSH1 0x25 PUSH0 PUSH2 0x100 EXP DUP2 SLOAD DUP2 PUSH20 0xFFFFFFFFFFFFFFFFFFFFFFFFFFFFFFFFFFFFFFFF MUL NOT AND SWAP1 DUP4 PUSH20 0xFFFFFFFFFFFFFFFFFFFFFFFFFFFFFFFFFFFFFFFF AND MUL OR SWAP1 SSTORE POP POP POP POP POP POP JUMP JUMPDEST PUSH1 0x19 SLOAD DUP2 JUMP JUMPDEST PUSH0 DUP1 PUSH2 0x1138 PUSH2 0x1D5F JUMP JUMPDEST SWAP1 POP PUSH2 0x1145 DUP6 DUP3 DUP6 PUSH2 0x1F29 JUMP JUMPDEST PUSH2 0x1150 DUP6 DUP6 DUP6 PUSH2 0x1FB4 JUMP JUMPDEST SWAP2 POP POP SWAP4 SWAP3 POP POP POP JUMP JUMPDEST PUSH0 PUSH2 0x1164 PUSH0 PUSH2 0x15C9 JUMP JUMPDEST PUSH2 0x116F PUSH2 0xDEAD PUSH2 0x15C9 JUMP JUMPDEST PUSH2 0x1177 PUSH2 0xF90 JUMP JUMPDEST PUSH2 0x1181 SWAP2 SWAP1 PUSH2 0x4078 JUMP JUMPDEST PUSH2 0x118B SWAP2 SWAP1 PUSH2 0x4078 JUMP JUMPDEST SWAP1 POP SWAP1 JUMP JUMPDEST PUSH1 0x24 PUSH0 SWAP1 SLOAD SWAP1 PUSH2 0x100 EXP SWAP1 DIV PUSH20 0xFFFFFFFFFFFFFFFFFFFFFFFFFFFFFFFFFFFFFFFF AND DUP2 JUMP JUMPDEST PUSH0 PUSH1 0x6 SWAP1 POP SWAP1 JUMP JUMPDEST PUSH2 0x11C5 PUSH2 0x1CCE JUMP JUMPDEST PUSH1 0x26 PUSH0 SWAP1 SLOAD SWAP1 PUSH2 0x100 EXP SWAP1 DIV PUSH20 0xFFFFFFFFFFFFFFFFFFFFFFFFFFFFFFFFFFFFFFFF AND PUSH20 0xFFFFFFFFFFFFFFFFFFFFFFFFFFFFFFFFFFFFFFFF AND PUSH4 0xA9059CBB PUSH2 0x120A PUSH2 0x1D5F JUMP JUMPDEST PUSH1 0x26 PUSH0 SWAP1 SLOAD SWAP1 PUSH2 0x100 EXP SWAP1 DIV PUSH20 0xFFFFFFFFFFFFFFFFFFFFFFFFFFFFFFFFFFFFFFFF AND PUSH20 0xFFFFFFFFFFFFFFFFFFFFFFFFFFFFFFFFFFFFFFFF AND PUSH4 0x70A08231 ADDRESS PUSH1 0x40 MLOAD DUP3 PUSH4 0xFFFFFFFF AND PUSH1 0xE0 SHL DUP2 MSTORE PUSH1 0x4 ADD PUSH2 0x1264 SWAP2 SWAP1 PUSH2 0x3EA6 JUMP JUMPDEST PUSH1 0x20 PUSH1 0x40 MLOAD DUP1 DUP4 SUB DUP2 DUP7 GAS STATICCALL ISZERO DUP1 ISZERO PUSH2 0x127F JUMPI RETURNDATASIZE PUSH0 DUP1 RETURNDATACOPY RETURNDATASIZE PUSH0 REVERT JUMPDEST POP POP POP POP PUSH1 0x40 MLOAD RETURNDATASIZE PUSH1 0x1F NOT PUSH1 0x1F DUP3 ADD AND DUP3 ADD DUP1 PUSH1 0x40 MSTORE POP DUP2 ADD SWAP1 PUSH2 0x12A3 SWAP2 SWAP1 PUSH2 0x40BF JUMP JUMPDEST PUSH1 0x40 MLOAD DUP4 PUSH4 0xFFFFFFFF AND PUSH1 0xE0 SHL DUP2 MSTORE PUSH1 0x4 ADD PUSH2 0x12C0 SWAP3 SWAP2 SWAP1 PUSH2 0x40EA JUMP JUMPDEST PUSH1 0x20 PUSH1 0x40 MLOAD DUP1 DUP4 SUB DUP2 PUSH0 DUP8 GAS CALL ISZERO DUP1 ISZERO PUSH2 0x12DC JUMPI RETURNDATASIZE PUSH0 DUP1 RETURNDATACOPY RETURNDATASIZE PUSH0 REVERT JUMPDEST POP POP POP POP PUSH1 0x40 MLOAD RETURNDATASIZE PUSH1 0x1F NOT PUSH1 0x1F DUP3 ADD AND DUP3 ADD DUP1 PUSH1 0x40 MSTORE POP DUP2 ADD SWAP1 PUSH2 0x1300 SWAP2 SWAP1 PUSH2 0x4125 JUMP JUMPDEST POP JUMP JUMPDEST PUSH0 DUP1 PUSH2 0x130D PUSH2 0x1D5F JUMP JUMPDEST SWAP1 POP PUSH2 0x132E DUP2 DUP6 DUP6 PUSH2 0x131F DUP6 DUP10 PUSH2 0x1BA2 JUMP JUMPDEST PUSH2 0x1329 SWAP2 SWAP1 PUSH2 0x4045 JUMP JUMPDEST PUSH2 0x1D66 JUMP JUMPDEST PUSH1 0x1 SWAP2 POP POP SWAP3 SWAP2 POP POP JUMP JUMPDEST PUSH1 0x6 PUSH1 0x20 MSTORE DUP1 PUSH0 MSTORE PUSH1 0x40 PUSH0 KECCAK256 PUSH0 SWAP2 POP SLOAD SWAP1 PUSH2 0x100 EXP SWAP1 DIV PUSH1 0xFF AND DUP2 JUMP JUMPDEST PUSH2 0x135E PUSH2 0x1CCE JUMP JUMPDEST PUSH2 0x1400 CALLER DUP3 PUSH20 0xFFFFFFFFFFFFFFFFFFFFFFFFFFFFFFFFFFFFFFFF AND PUSH4 0x70A08231 ADDRESS PUSH1 0x40 MLOAD DUP3 PUSH4 0xFFFFFFFF AND PUSH1 0xE0 SHL DUP2 MSTORE PUSH1 0x4 ADD PUSH2 0x139B SWAP2 SWAP1 PUSH2 0x3EA6 JUMP JUMPDEST PUSH1 0x20 PUSH1 0x40 MLOAD DUP1 DUP4 SUB DUP2 DUP7 GAS STATICCALL ISZERO DUP1 ISZERO PUSH2 0x13B6 JUMPI RETURNDATASIZE PUSH0 DUP1 RETURNDATACOPY RETURNDATASIZE PUSH0 REVERT JUMPDEST POP POP POP POP PUSH1 0x40 MLOAD RETURNDATASIZE PUSH1 0x1F NOT PUSH1 0x1F DUP3 ADD AND DUP3 ADD DUP1 PUSH1 0x40 MSTORE POP DUP2 ADD SWAP1 PUSH2 0x13DA SWAP2 SWAP1 PUSH2 0x40BF JUMP JUMPDEST DUP4 PUSH20 0xFFFFFFFFFFFFFFFFFFFFFFFFFFFFFFFFFFFFFFFF AND PUSH2 0x2298 SWAP1 SWAP3 SWAP2 SWAP1 PUSH4 0xFFFFFFFF AND JUMP JUMPDEST POP JUMP JUMPDEST PUSH2 0x140B PUSH2 0x1CCE JUMP JUMPDEST PUSH1 0x29 PUSH0 SWAP1 SLOAD SWAP1 PUSH2 0x100 EXP SWAP1 DIV PUSH1 0xFF AND ISZERO PUSH2 0x145A JUMPI PUSH1 0x40 MLOAD PUSH32 0x8C379A000000000000000000000000000000000000000000000000000000000 DUP2 MSTORE PUSH1 0x4 ADD PUSH2 0x1451 SWAP1 PUSH2 0x419A JUMP JUMPDEST PUSH1 0x40 MLOAD DUP1 SWAP2 SUB SWAP1 REVERT JUMPDEST PUSH0 PUSH32 0x0 PUSH20 0xFFFFFFFFFFFFFFFFFFFFFFFFFFFFFFFFFFFFFFFF AND PUSH4 0xC9C65396 PUSH32 0x0 ADDRESS PUSH1 0x40 MLOAD DUP4 PUSH4 0xFFFFFFFF AND PUSH1 0xE0 SHL DUP2 MSTORE PUSH1 0x4 ADD PUSH2 0x14D6 SWAP3 SWAP2 SWAP1 PUSH2 0x41B8 JUMP JUMPDEST PUSH1 0x20 PUSH1 0x40 MLOAD DUP1 DUP4 SUB DUP2 PUSH0 DUP8 GAS CALL ISZERO DUP1 ISZERO PUSH2 0x14F2 JUMPI RETURNDATASIZE PUSH0 DUP1 RETURNDATACOPY RETURNDATASIZE PUSH0 REVERT JUMPDEST POP POP POP POP PUSH1 0x40 MLOAD RETURNDATASIZE PUSH1 0x1F NOT PUSH1 0x1F DUP3 ADD AND DUP3 ADD DUP1 PUSH1 0x40 MSTORE POP DUP2 ADD SWAP1 PUSH2 0x1516 SWAP2 SWAP1 PUSH2 0x41F3 JUMP JUMPDEST SWAP1 POP PUSH2 0x152C DUP2 PUSH1 0x2A PUSH2 0x231E SWAP1 SWAP2 SWAP1 PUSH4 0xFFFFFFFF AND JUMP JUMPDEST POP PUSH1 0x1 PUSH1 0x29 PUSH0 PUSH2 0x100 EXP DUP2 SLOAD DUP2 PUSH1 0xFF MUL NOT AND SWAP1 DUP4 ISZERO ISZERO MUL OR SWAP1 SSTORE POP POP JUMP JUMPDEST PUSH1 0x20 SLOAD DUP2 JUMP JUMPDEST PUSH2 0x1558 PUSH2 0x1CCE JUMP JUMPDEST DUP1 PUSH1 0x6 PUSH0 DUP5 PUSH20 0xFFFFFFFFFFFFFFFFFFFFFFFFFFFFFFFFFFFFFFFF AND PUSH20 0xFFFFFFFFFFFFFFFFFFFFFFFFFFFFFFFFFFFFFFFF AND DUP2 MSTORE PUSH1 0x20 ADD SWAP1 DUP2 MSTORE PUSH1 0x20 ADD PUSH0 KECCAK256 PUSH0 PUSH2 0x100 EXP DUP2 SLOAD DUP2 PUSH1 0xFF MUL NOT AND SWAP1 DUP4 ISZERO ISZERO MUL OR SWAP1 SSTORE POP POP POP JUMP JUMPDEST PUSH1 0x15 SLOAD DUP2 JUMP JUMPDEST PUSH1 0x5 PUSH1 0x14 SWAP1 SLOAD SWAP1 PUSH2 0x100 EXP SWAP1 DIV PUSH1 0xFF AND DUP2 JUMP JUMPDEST PUSH0 DUP1 PUSH0 DUP4 PUSH20 0xFFFFFFFFFFFFFFFFFFFFFFFFFFFFFFFFFFFFFFFF AND PUSH20 0xFFFFFFFFFFFFFFFFFFFFFFFFFFFFFFFFFFFFFFFF AND DUP2 MSTORE PUSH1 0x20 ADD SWAP1 DUP2 MSTORE PUSH1 0x20 ADD PUSH0 KECCAK256 SLOAD SWAP1 POP SWAP2 SWAP1 POP JUMP JUMPDEST PUSH1 0x12 SLOAD DUP2 JUMP JUMPDEST PUSH2 0x161C PUSH2 0x1CCE JUMP JUMPDEST PUSH2 0x1625 PUSH0 PUSH2 0x234B JUMP JUMPDEST JUMP JUMPDEST PUSH1 0x7 PUSH1 0x20 MSTORE DUP1 PUSH0 MSTORE PUSH1 0x40 PUSH0 KECCAK256 PUSH0 SWAP2 POP SLOAD SWAP1 PUSH2 0x100 EXP SWAP1 DIV PUSH1 0xFF AND DUP2 JUMP JUMPDEST PUSH1 0x14 SLOAD DUP2 JUMP JUMPDEST PUSH1 0x5 PUSH1 0x15 SWAP1 SLOAD SWAP1 PUSH2 0x100 EXP SWAP1 DIV PUSH1 0xFF AND DUP2 JUMP JUMPDEST PUSH1 0x26 PUSH0 SWAP1 SLOAD SWAP1 PUSH2 0x100 EXP SWAP1 DIV PUSH20 0xFFFFFFFFFFFFFFFFFFFFFFFFFFFFFFFFFFFFFFFF AND DUP2 JUMP JUMPDEST PUSH1 0x16 SLOAD DUP2 JUMP JUMPDEST PUSH0 PUSH1 0x5 PUSH0 SWAP1 SLOAD SWAP1 PUSH2 0x100 EXP SWAP1 DIV PUSH20 0xFFFFFFFFFFFFFFFFFFFFFFFFFFFFFFFFFFFFFFFF AND SWAP1 POP SWAP1 JUMP JUMPDEST PUSH2 0x16B8 PUSH2 0x1CCE JUMP JUMPDEST PUSH2 0x16C0 PUSH2 0x240E JUMP JUMPDEST JUMP JUMPDEST PUSH2 0x16CA PUSH2 0x1CCE JUMP JUMPDEST DUP7 PUSH1 0x1A DUP2 SWAP1 SSTORE POP DUP6 PUSH1 0x1B DUP2 SWAP1 SSTORE POP DUP5 PUSH1 0x1C DUP2 SWAP1 SSTORE POP DUP4 PUSH1 0x1D DUP2 SWAP1 SSTORE POP DUP3 PUSH1 0x1E DUP2 SWAP1 SSTORE POP DUP2 PUSH1 0x1F DUP2 SWAP1 SSTORE POP DUP1 PUSH1 0x19 DUP2 SWAP1 SSTORE POP DUP1 DUP3 DUP5 DUP7 DUP9 PUSH2 0x170A SWAP2 SWAP1 PUSH2 0x4045 JUMP JUMPDEST PUSH2 0x1714 SWAP2 SWAP1 PUSH2 0x4045 JUMP JUMPDEST PUSH2 0x171E SWAP2 SWAP1 PUSH2 0x4045 JUMP JUMPDEST PUSH2 0x1728 SWAP2 SWAP1 PUSH2 0x4045 JUMP JUMPDEST PUSH1 0x20 DUP2 SWAP1 SSTORE POP POP POP POP POP POP POP POP JUMP JUMPDEST PUSH1 0x60 PUSH1 0x4 DUP1 SLOAD PUSH2 0x1746 SWAP1 PUSH2 0x3FE8 JUMP JUMPDEST DUP1 PUSH1 0x1F ADD PUSH1 0x20 DUP1 SWAP2 DIV MUL PUSH1 0x20 ADD PUSH1 0x40 MLOAD SWAP1 DUP2 ADD PUSH1 0x40 MSTORE DUP1 SWAP3 SWAP2 SWAP1 DUP2 DUP2 MSTORE PUSH1 0x20 ADD DUP3 DUP1 SLOAD PUSH2 0x1772 SWAP1 PUSH2 0x3FE8 JUMP JUMPDEST DUP1 ISZERO PUSH2 0x17BD JUMPI DUP1 PUSH1 0x1F LT PUSH2 0x1794 JUMPI PUSH2 0x100 DUP1 DUP4 SLOAD DIV MUL DUP4 MSTORE SWAP2 PUSH1 0x20 ADD SWAP2 PUSH2 0x17BD JUMP JUMPDEST DUP3 ADD SWAP2 SWAP1 PUSH0 MSTORE PUSH1 0x20 PUSH0 KECCAK256 SWAP1 JUMPDEST DUP2 SLOAD DUP2 MSTORE SWAP1 PUSH1 0x1 ADD SWAP1 PUSH1 0x20 ADD DUP1 DUP4 GT PUSH2 0x17A0 JUMPI DUP3 SWAP1 SUB PUSH1 0x1F AND DUP3 ADD SWAP2 JUMPDEST POP POP POP POP POP SWAP1 POP SWAP1 JUMP JUMPDEST PUSH0 DUP1 PUSH2 0x17D1 PUSH2 0x1D5F JUMP JUMPDEST SWAP1 POP PUSH0 PUSH2 0x17DE DUP3 DUP7 PUSH2 0x1BA2 JUMP JUMPDEST SWAP1 POP DUP4 DUP2 LT ISZERO PUSH2 0x1823 JUMPI PUSH1 0x40 MLOAD PUSH32 0x8C379A000000000000000000000000000000000000000000000000000000000 DUP2 MSTORE PUSH1 0x4 ADD PUSH2 0x181A SWAP1 PUSH2 0x428E JUMP JUMPDEST PUSH1 0x40 MLOAD DUP1 SWAP2 SUB SWAP1 REVERT JUMPDEST PUSH2 0x1830 DUP3 DUP7 DUP7 DUP5 SUB PUSH2 0x1D66 JUMP JUMPDEST PUSH1 0x1 SWAP3 POP POP POP SWAP3 SWAP2 POP POP JUMP JUMPDEST PUSH0 PUSH2 0x1845 PUSH2 0x1CCE JUMP JUMPDEST PUSH0 PUSH20 0xFFFFFFFFFFFFFFFFFFFFFFFFFFFFFFFFFFFFFFFF AND DUP3 PUSH20 0xFFFFFFFFFFFFFFFFFFFFFFFFFFFFFFFFFFFFFFFF AND SUB PUSH2 0x18B3 JUMPI PUSH1 0x40 MLOAD PUSH32 0x8C379A000000000000000000000000000000000000000000000000000000000 DUP2 MSTORE PUSH1 0x4 ADD PUSH2 0x18AA SWAP1 PUSH2 0x42F6 JUMP JUMPDEST PUSH1 0x40 MLOAD DUP1 SWAP2 SUB SWAP1 REVERT JUMPDEST PUSH0 PUSH1 0x29 PUSH0 PUSH2 0x100 EXP DUP2 SLOAD DUP2 PUSH1 0xFF MUL NOT AND SWAP1 DUP4 ISZERO ISZERO MUL OR SWAP1 SSTORE POP PUSH2 0x18E0 DUP3 PUSH1 0x2A PUSH2 0x2DCA SWAP1 SWAP2 SWAP1 PUSH4 0xFFFFFFFF AND JUMP JUMPDEST SWAP1 POP SWAP2 SWAP1 POP JUMP JUMPDEST PUSH0 PUSH2 0x18FA PUSH2 0x18F3 PUSH2 0x1D5F JUMP JUMPDEST DUP5 DUP5 PUSH2 0x1FB4 JUMP JUMPDEST SWAP1 POP SWAP3 SWAP2 POP POP JUMP JUMPDEST PUSH2 0x190A PUSH2 0x1CCE JUMP JUMPDEST DUP1 PUSH1 0x5 PUSH1 0x15 PUSH2 0x100 EXP DUP2 SLOAD DUP2 PUSH1 0xFF MUL NOT AND SWAP1 DUP4 ISZERO ISZERO MUL OR SWAP1 SSTORE POP POP JUMP JUMPDEST PUSH1 0x1E SLOAD DUP2 JUMP JUMPDEST PUSH1 0x1B SLOAD DUP2 JUMP JUMPDEST PUSH1 0x1D SLOAD DUP2 JUMP JUMPDEST PUSH2 0x1941 PUSH2 0x1CCE JUMP JUMPDEST DUP1 PUSH1 0x5 PUSH1 0x14 PUSH2 0x100 EXP DUP2 SLOAD DUP2 PUSH1 0xFF MUL NOT AND SWAP1 DUP4 ISZERO ISZERO MUL OR SWAP1 SSTORE POP POP JUMP JUMPDEST PUSH0 PUSH1 0x1 PUSH2 0x196B PUSH1 0x2A PUSH2 0x1D4C JUMP JUMPDEST PUSH2 0x1975 SWAP2 SWAP1 PUSH2 0x4078 JUMP JUMPDEST DUP3 GT ISZERO PUSH2 0x19B7 JUMPI PUSH1 0x40 MLOAD PUSH32 0x8C379A000000000000000000000000000000000000000000000000000000000 DUP2 MSTORE PUSH1 0x4 ADD PUSH2 0x19AE SWAP1 PUSH2 0x435E JUMP JUMPDEST PUSH1 0x40 MLOAD DUP1 SWAP2 SUB SWAP1 REVERT JUMPDEST PUSH2 0x19CB DUP3 PUSH1 0x2A PUSH2 0x2DF7 SWAP1 SWAP2 SWAP1 PUSH4 0xFFFFFFFF AND JUMP JUMPDEST SWAP1 POP SWAP2 SWAP1 POP JUMP JUMPDEST PUSH1 0x27 SLOAD DUP2 JUMP JUMPDEST PUSH2 0x19E0 PUSH2 0x1CCE JUMP JUMPDEST PUSH0 SELFBALANCE SWAP1 POP PUSH0 PUSH2 0x19ED PUSH2 0x1D5F JUMP JUMPDEST PUSH20 0xFFFFFFFFFFFFFFFFFFFFFFFFFFFFFFFFFFFFFFFF AND DUP3 PUSH0 PUSH8 0xFFFFFFFFFFFFFFFF DUP2 GT ISZERO PUSH2 0x1A1E JUMPI PUSH2 0x1A1D PUSH2 0x437C JUMP JUMPDEST JUMPDEST PUSH1 0x40 MLOAD SWAP1 DUP1 DUP3 MSTORE DUP1 PUSH1 0x1F ADD PUSH1 0x1F NOT AND PUSH1 0x20 ADD DUP3 ADD PUSH1 0x40 MSTORE DUP1 ISZERO PUSH2 0x1A50 JUMPI DUP2 PUSH1 0x20 ADD PUSH1 0x1 DUP3 MUL DUP1 CALLDATASIZE DUP4 CALLDATACOPY DUP1 DUP3 ADD SWAP2 POP POP SWAP1 POP JUMPDEST POP PUSH1 0x40 MLOAD PUSH2 0x1A5E SWAP2 SWAP1 PUSH2 0x43ED JUMP JUMPDEST PUSH0 PUSH1 0x40 MLOAD DUP1 DUP4 SUB DUP2 DUP6 DUP8 GAS CALL SWAP3 POP POP POP RETURNDATASIZE DUP1 PUSH0 DUP2 EQ PUSH2 0x1A98 JUMPI PUSH1 0x40 MLOAD SWAP2 POP PUSH1 0x1F NOT PUSH1 0x3F RETURNDATASIZE ADD AND DUP3 ADD PUSH1 0x40 MSTORE RETURNDATASIZE DUP3 MSTORE RETURNDATASIZE PUSH0 PUSH1 0x20 DUP5 ADD RETURNDATACOPY PUSH2 0x1A9D JUMP JUMPDEST PUSH1 0x60 SWAP2 POP JUMPDEST POP POP SWAP1 POP DUP1 PUSH2 0x1AE1 JUMPI PUSH1 0x40 MLOAD PUSH32 0x8C379A000000000000000000000000000000000000000000000000000000000 DUP2 MSTORE PUSH1 0x4 ADD PUSH2 0x1AD8 SWAP1 PUSH2 0x444D JUMP JUMPDEST PUSH1 0x40 MLOAD DUP1 SWAP2 SUB SWAP1 REVERT JUMPDEST POP POP JUMP JUMPDEST PUSH0 PUSH2 0x1AEE PUSH2 0x1CCE JUMP JUMPDEST PUSH0 PUSH20 0xFFFFFFFFFFFFFFFFFFFFFFFFFFFFFFFFFFFFFFFF AND DUP3 PUSH20 0xFFFFFFFFFFFFFFFFFFFFFFFFFFFFFFFFFFFFFFFF AND SUB PUSH2 0x1B5C JUMPI PUSH1 0x40 MLOAD PUSH32 0x8C379A000000000000000000000000000000000000000000000000000000000 DUP2 MSTORE PUSH1 0x4 ADD PUSH2 0x1B53 SWAP1 PUSH2 0x42F6 JUMP JUMPDEST PUSH1 0x40 MLOAD DUP1 SWAP2 SUB SWAP1 REVERT JUMPDEST PUSH2 0x1B70 DUP3 PUSH1 0x2A PUSH2 0x231E SWAP1 SWAP2 SWAP1 PUSH4 0xFFFFFFFF AND JUMP JUMPDEST SWAP1 POP SWAP2 SWAP1 POP JUMP JUMPDEST PUSH1 0x28 SLOAD DUP2 JUMP JUMPDEST PUSH1 0x9 SLOAD DUP2 JUMP JUMPDEST PUSH1 0x17 SLOAD DUP2 JUMP JUMPDEST PUSH1 0x5 PUSH1 0x16 SWAP1 SLOAD SWAP1 PUSH2 0x100 EXP SWAP1 DIV PUSH1 0xFF AND DUP2 JUMP JUMPDEST PUSH1 0x1A SLOAD DUP2 JUMP JUMPDEST PUSH0 PUSH1 0x1 PUSH0 DUP5 PUSH20 0xFFFFFFFFFFFFFFFFFFFFFFFFFFFFFFFFFFFFFFFF AND PUSH20 0xFFFFFFFFFFFFFFFFFFFFFFFFFFFFFFFFFFFFFFFF AND DUP2 MSTORE PUSH1 0x20 ADD SWAP1 DUP2 MSTORE PUSH1 0x20 ADD PUSH0 KECCAK256 PUSH0 DUP4 PUSH20 0xFFFFFFFFFFFFFFFFFFFFFFFFFFFFFFFFFFFFFFFF AND PUSH20 0xFFFFFFFFFFFFFFFFFFFFFFFFFFFFFFFFFFFFFFFF AND DUP2 MSTORE PUSH1 0x20 ADD SWAP1 DUP2 MSTORE PUSH1 0x20 ADD PUSH0 KECCAK256 SLOAD SWAP1 POP SWAP3 SWAP2 POP POP JUMP JUMPDEST PUSH1 0x13 SLOAD DUP2 JUMP JUMPDEST PUSH0 PUSH2 0x1C3F DUP3 PUSH1 0x2A PUSH2 0x2E0E SWAP1 SWAP2 SWAP1 PUSH4 0xFFFFFFFF AND JUMP JUMPDEST SWAP1 POP SWAP2 SWAP1 POP JUMP JUMPDEST PUSH2 0x1C4E PUSH2 0x1CCE JUMP JUMPDEST PUSH0 PUSH20 0xFFFFFFFFFFFFFFFFFFFFFFFFFFFFFFFFFFFFFFFF AND DUP2 PUSH20 0xFFFFFFFFFFFFFFFFFFFFFFFFFFFFFFFFFFFFFFFF AND SUB PUSH2 0x1CBC JUMPI PUSH1 0x40 MLOAD PUSH32 0x8C379A000000000000000000000000000000000000000000000000000000000 DUP2 MSTORE PUSH1 0x4 ADD PUSH2 0x1CB3 SWAP1 PUSH2 0x44DB JUMP JUMPDEST PUSH1 0x40 MLOAD DUP1 SWAP2 SUB SWAP1 REVERT JUMPDEST PUSH2 0x1CC5 DUP2 PUSH2 0x234B JUMP JUMPDEST POP JUMP JUMPDEST PUSH1 0x18 SLOAD DUP2 JUMP JUMPDEST PUSH2 0x1CD6 PUSH2 0x1D5F JUMP JUMPDEST PUSH20 0xFFFFFFFFFFFFFFFFFFFFFFFFFFFFFFFFFFFFFFFF AND PUSH2 0x1CF4 PUSH2 0x1688 JUMP JUMPDEST PUSH20 0xFFFFFFFFFFFFFFFFFFFFFFFFFFFFFFFFFFFFFFFF AND EQ PUSH2 0x1D4A JUMPI PUSH1 0x40 MLOAD PUSH32 0x8C379A000000000000000000000000000000000000000000000000000000000 DUP2 MSTORE PUSH1 0x4 ADD PUSH2 0x1D41 SWAP1 PUSH2 0x4543 JUMP JUMPDEST PUSH1 0x40 MLOAD DUP1 SWAP2 SUB SWAP1 REVERT JUMPDEST JUMP JUMPDEST PUSH0 PUSH2 0x1D58 DUP3 PUSH0 ADD PUSH2 0x2E3B JUMP JUMPDEST SWAP1 POP SWAP2 SWAP1 POP JUMP JUMPDEST PUSH0 CALLER SWAP1 POP SWAP1 JUMP JUMPDEST PUSH0 PUSH20 0xFFFFFFFFFFFFFFFFFFFFFFFFFFFFFFFFFFFFFFFF AND DUP4 PUSH20 0xFFFFFFFFFFFFFFFFFFFFFFFFFFFFFFFFFFFFFFFF AND SUB PUSH2 0x1DD4 JUMPI PUSH1 0x40 MLOAD PUSH32 0x8C379A000000000000000000000000000000000000000000000000000000000 DUP2 MSTORE PUSH1 0x4 ADD PUSH2 0x1DCB SWAP1 PUSH2 0x45D1 JUMP JUMPDEST PUSH1 0x40 MLOAD DUP1 SWAP2 SUB SWAP1 REVERT JUMPDEST PUSH0 PUSH20 0xFFFFFFFFFFFFFFFFFFFFFFFFFFFFFFFFFFFFFFFF AND DUP3 PUSH20 0xFFFFFFFFFFFFFFFFFFFFFFFFFFFFFFFFFFFFFFFF AND SUB PUSH2 0x1E42 JUMPI PUSH1 0x40 MLOAD PUSH32 0x8C379A000000000000000000000000000000000000000000000000000000000 DUP2 MSTORE PUSH1 0x4 ADD PUSH2 0x1E39 SWAP1 PUSH2 0x465F JUMP JUMPDEST PUSH1 0x40 MLOAD DUP1 SWAP2 SUB SWAP1 REVERT JUMPDEST DUP1 PUSH1 0x1 PUSH0 DUP6 PUSH20 0xFFFFFFFFFFFFFFFFFFFFFFFFFFFFFFFFFFFFFFFF AND PUSH20 0xFFFFFFFFFFFFFFFFFFFFFFFFFFFFFFFFFFFFFFFF AND DUP2 MSTORE PUSH1 0x20 ADD SWAP1 DUP2 MSTORE PUSH1 0x20 ADD PUSH0 KECCAK256 PUSH0 DUP5 PUSH20 0xFFFFFFFFFFFFFFFFFFFFFFFFFFFFFFFFFFFFFFFF AND PUSH20 0xFFFFFFFFFFFFFFFFFFFFFFFFFFFFFFFFFFFFFFFF AND DUP2 MSTORE PUSH1 0x20 ADD SWAP1 DUP2 MSTORE PUSH1 0x20 ADD PUSH0 KECCAK256 DUP2 SWAP1 SSTORE POP DUP2 PUSH20 0xFFFFFFFFFFFFFFFFFFFFFFFFFFFFFFFFFFFFFFFF AND DUP4 PUSH20 0xFFFFFFFFFFFFFFFFFFFFFFFFFFFFFFFFFFFFFFFF AND PUSH32 0x8C5BE1E5EBEC7D5BD14F71427D1E84F3DD0314C0F7B2291E5B200AC8C7C3B925 DUP4 PUSH1 0x40 MLOAD PUSH2 0x1F1C SWAP2 SWAP1 PUSH2 0x3A03 JUMP JUMPDEST PUSH1 0x40 MLOAD DUP1 SWAP2 SUB SWAP1 LOG3 POP POP POP JUMP JUMPDEST PUSH0 PUSH2 0x1F34 DUP5 DUP5 PUSH2 0x1BA2 JUMP JUMPDEST SWAP1 POP PUSH32 0xFFFFFFFFFFFFFFFFFFFFFFFFFFFFFFFFFFFFFFFFFFFFFFFFFFFFFFFFFFFFFFFF DUP2 EQ PUSH2 0x1FAE JUMPI DUP2 DUP2 LT ISZERO PUSH2 0x1FA0 JUMPI PUSH1 0x40 MLOAD PUSH32 0x8C379A000000000000000000000000000000000000000000000000000000000 DUP2 MSTORE PUSH1 0x4 ADD PUSH2 0x1F97 SWAP1 PUSH2 0x46C7 JUMP JUMPDEST PUSH1 0x40 MLOAD DUP1 SWAP2 SUB SWAP1 REVERT JUMPDEST PUSH2 0x1FAD DUP5 DUP5 DUP5 DUP5 SUB PUSH2 0x1D66 JUMP JUMPDEST JUMPDEST POP POP POP POP JUMP JUMPDEST PUSH0 PUSH1 0x5 PUSH1 0x16 SWAP1 SLOAD SWAP1 PUSH2 0x100 EXP SWAP1 DIV PUSH1 0xFF AND ISZERO PUSH2 0x1FDE JUMPI PUSH2 0x1FD5 DUP5 DUP5 DUP5 PUSH2 0x2E4A JUMP JUMPDEST PUSH1 0x1 SWAP1 POP PUSH2 0x2291 JUMP JUMPDEST PUSH1 0x7 PUSH0 DUP6 PUSH20 0xFFFFFFFFFFFFFFFFFFFFFFFFFFFFFFFFFFFFFFFF AND PUSH20 0xFFFFFFFFFFFFFFFFFFFFFFFFFFFFFFFFFFFFFFFF AND DUP2 MSTORE PUSH1 0x20 ADD SWAP1 DUP2 MSTORE PUSH1 0x20 ADD PUSH0 KECCAK256 PUSH0 SWAP1 SLOAD SWAP1 PUSH2 0x100 EXP SWAP1 DIV PUSH1 0xFF AND PUSH2 0x2074 JUMPI PUSH2 0x2034 PUSH2 0x30B6 JUMP JUMPDEST PUSH2 0x2073 JUMPI PUSH1 0x40 MLOAD PUSH32 0x8C379A000000000000000000000000000000000000000000000000000000000 DUP2 MSTORE PUSH1 0x4 ADD PUSH2 0x206A SWAP1 PUSH2 0x472F JUMP JUMPDEST PUSH1 0x40 MLOAD DUP1 SWAP2 SUB SWAP1 REVERT JUMPDEST JUMPDEST PUSH0 PUSH1 0x6 PUSH0 DUP7 PUSH20 0xFFFFFFFFFFFFFFFFFFFFFFFFFFFFFFFFFFFFFFFF AND PUSH20 0xFFFFFFFFFFFFFFFFFFFFFFFFFFFFFFFFFFFFFFFF AND DUP2 MSTORE PUSH1 0x20 ADD SWAP1 DUP2 MSTORE PUSH1 0x20 ADD PUSH0 KECCAK256 PUSH0 SWAP1 SLOAD SWAP1 PUSH2 0x100 EXP SWAP1 DIV PUSH1 0xFF AND ISZERO DUP1 ISZERO PUSH2 0x2113 JUMPI POP PUSH1 0x6 PUSH0 DUP6 PUSH20 0xFFFFFFFFFFFFFFFFFFFFFFFFFFFFFFFFFFFFFFFF AND PUSH20 0xFFFFFFFFFFFFFFFFFFFFFFFFFFFFFFFFFFFFFFFF AND DUP2 MSTORE PUSH1 0x20 ADD SWAP1 DUP2 MSTORE PUSH1 0x20 ADD PUSH0 KECCAK256 PUSH0 SWAP1 SLOAD SWAP1 PUSH2 0x100 EXP SWAP1 DIV PUSH1 0xFF AND ISZERO JUMPDEST DUP1 ISZERO PUSH2 0x2123 JUMPI POP PUSH2 0x2122 PUSH2 0x30B6 JUMP JUMPDEST JUMPDEST SWAP1 POP PUSH0 DUP1 DUP7 SWAP1 POP PUSH0 DUP7 SWAP1 POP PUSH2 0x2137 DUP9 PUSH2 0x1C2A JUMP JUMPDEST ISZERO PUSH2 0x21D8 JUMPI PUSH2 0x2144 PUSH2 0x30C2 JUMP JUMPDEST PUSH1 0x1 SWAP3 POP DUP7 SWAP2 POP DUP8 SWAP1 POP PUSH1 0x24 PUSH0 SWAP1 SLOAD SWAP1 PUSH2 0x100 EXP SWAP1 DIV PUSH20 0xFFFFFFFFFFFFFFFFFFFFFFFFFFFFFFFFFFFFFFFF AND PUSH20 0xFFFFFFFFFFFFFFFFFFFFFFFFFFFFFFFFFFFFFFFF AND PUSH4 0x67D198A6 DUP10 DUP9 PUSH1 0x40 MLOAD DUP4 PUSH4 0xFFFFFFFF AND PUSH1 0xE0 SHL DUP2 MSTORE PUSH1 0x4 ADD PUSH2 0x21AA SWAP3 SWAP2 SWAP1 PUSH2 0x40EA JUMP JUMPDEST PUSH0 PUSH1 0x40 MLOAD DUP1 DUP4 SUB DUP2 PUSH0 DUP8 DUP1 EXTCODESIZE ISZERO DUP1 ISZERO PUSH2 0x21C1 JUMPI PUSH0 DUP1 REVERT JUMPDEST POP GAS CALL SWAP3 POP POP POP DUP1 ISZERO PUSH2 0x21D2 JUMPI POP PUSH1 0x1 JUMPDEST POP PUSH2 0x21FC JUMP JUMPDEST PUSH2 0x21E1 DUP8 PUSH2 0x1C2A JUMP JUMPDEST ISZERO PUSH2 0x21F7 JUMPI PUSH2 0x21EE PUSH2 0x310C JUMP JUMPDEST PUSH1 0x2 SWAP3 POP PUSH2 0x21FB JUMP JUMPDEST PUSH0 SWAP4 POP JUMPDEST JUMPDEST PUSH2 0x2204 PUSH2 0x3156 JUMP JUMPDEST ISZERO PUSH2 0x2212 JUMPI PUSH2 0x2211 PUSH2 0x240E JUMP JUMPDEST JUMPDEST PUSH0 DUP5 PUSH2 0x221E JUMPI DUP7 PUSH2 0x2229 JUMP JUMPDEST PUSH2 0x2228 DUP10 DUP9 PUSH2 0x31C1 JUMP JUMPDEST JUMPDEST SWAP1 POP PUSH2 0x2236 DUP10 DUP10 DUP4 PUSH2 0x2E4A JUMP JUMPDEST PUSH0 DUP5 GT ISZERO PUSH2 0x2287 JUMPI PUSH32 0xE6F814DA7244D1AE6C61B54B5684858BA39CAD7B9A91884BE10060664987D754 DUP4 DUP4 DUP10 DUP8 PUSH2 0x226B PUSH2 0x115A JUMP JUMPDEST TIMESTAMP PUSH1 0x40 MLOAD PUSH2 0x227E SWAP7 SWAP6 SWAP5 SWAP4 SWAP3 SWAP2 SWAP1 PUSH2 0x474D JUMP JUMPDEST PUSH1 0x40 MLOAD DUP1 SWAP2 SUB SWAP1 LOG1 JUMPDEST PUSH1 0x1 SWAP6 POP POP POP POP POP POP JUMPDEST SWAP4 SWAP3 POP POP POP JUMP JUMPDEST PUSH2 0x2319 DUP4 PUSH4 0xA9059CBB PUSH1 0xE0 SHL DUP5 DUP5 PUSH1 0x40 MLOAD PUSH1 0x24 ADD PUSH2 0x22B7 SWAP3 SWAP2 SWAP1 PUSH2 0x40EA JUMP JUMPDEST PUSH1 0x40 MLOAD PUSH1 0x20 DUP2 DUP4 SUB SUB DUP2 MSTORE SWAP1 PUSH1 0x40 MSTORE SWAP1 PUSH28 0xFFFFFFFFFFFFFFFFFFFFFFFFFFFFFFFFFFFFFFFFFFFFFFFFFFFFFFFF NOT AND PUSH1 0x20 DUP3 ADD DUP1 MLOAD PUSH28 0xFFFFFFFFFFFFFFFFFFFFFFFFFFFFFFFFFFFFFFFFFFFFFFFFFFFFFFFF DUP4 DUP2 DUP4 AND OR DUP4 MSTORE POP POP POP POP PUSH2 0x3200 JUMP JUMPDEST POP POP POP JUMP JUMPDEST PUSH0 PUSH2 0x2343 DUP4 PUSH0 ADD DUP4 PUSH20 0xFFFFFFFFFFFFFFFFFFFFFFFFFFFFFFFFFFFFFFFF AND PUSH0 SHL PUSH2 0x32C5 JUMP JUMPDEST SWAP1 POP SWAP3 SWAP2 POP POP JUMP JUMPDEST PUSH0 PUSH1 0x5 PUSH0 SWAP1 SLOAD SWAP1 PUSH2 0x100 EXP SWAP1 DIV PUSH20 0xFFFFFFFFFFFFFFFFFFFFFFFFFFFFFFFFFFFFFFFF AND SWAP1 POP DUP2 PUSH1 0x5 PUSH0 PUSH2 0x100 EXP DUP2 SLOAD DUP2 PUSH20 0xFFFFFFFFFFFFFFFFFFFFFFFFFFFFFFFFFFFFFFFF MUL NOT AND SWAP1 DUP4 PUSH20 0xFFFFFFFFFFFFFFFFFFFFFFFFFFFFFFFFFFFFFFFF AND MUL OR SWAP1 SSTORE POP DUP2 PUSH20 0xFFFFFFFFFFFFFFFFFFFFFFFFFFFFFFFFFFFFFFFF AND DUP2 PUSH20 0xFFFFFFFFFFFFFFFFFFFFFFFFFFFFFFFFFFFFFFFF AND PUSH32 0x8BE0079C531659141344CD1FD0A4F28419497F9722A3DAAFE3B4186F6B6457E0 PUSH1 0x40 MLOAD PUSH1 0x40 MLOAD DUP1 SWAP2 SUB SWAP1 LOG3 POP POP JUMP JUMPDEST PUSH1 0x1 PUSH1 0x5 PUSH1 0x16 PUSH2 0x100 EXP DUP2 SLOAD DUP2 PUSH1 0xFF MUL NOT AND SWAP1 DUP4 ISZERO ISZERO MUL OR SWAP1 SSTORE POP PUSH0 PUSH2 0x2433 ADDRESS PUSH2 0x15C9 JUMP JUMPDEST SWAP1 POP PUSH2 0x2460 ADDRESS PUSH32 0x0 DUP4 PUSH2 0x1D66 JUMP JUMPDEST PUSH0 PUSH1 0xF SLOAD PUSH1 0x8 SLOAD DUP4 PUSH2 0x2472 SWAP2 SWAP1 PUSH2 0x47AC JUMP JUMPDEST PUSH2 0x247C SWAP2 SWAP1 PUSH2 0x481A JUMP JUMPDEST SWAP1 POP PUSH0 PUSH1 0xF SLOAD PUSH1 0xB SLOAD DUP5 PUSH2 0x2490 SWAP2 SWAP1 PUSH2 0x47AC JUMP JUMPDEST PUSH2 0x249A SWAP2 SWAP1 PUSH2 0x481A JUMP JUMPDEST SWAP1 POP PUSH0 PUSH1 0xF SLOAD PUSH1 0xD SLOAD DUP6 PUSH2 0x24AE SWAP2 SWAP1 PUSH2 0x47AC JUMP JUMPDEST PUSH2 0x24B8 SWAP2 SWAP1 PUSH2 0x481A JUMP JUMPDEST SWAP1 POP DUP3 DUP5 PUSH2 0x24C6 SWAP2 SWAP1 PUSH2 0x4078 JUMP JUMPDEST SWAP4 POP DUP2 DUP5 PUSH2 0x24D4 SWAP2 SWAP1 PUSH2 0x4078 JUMP JUMPDEST SWAP4 POP DUP1 DUP5 PUSH2 0x24E2 SWAP2 SWAP1 PUSH2 0x4078 JUMP JUMPDEST SWAP4 POP PUSH0 PUSH1 0x3 PUSH8 0xFFFFFFFFFFFFFFFF DUP2 GT ISZERO PUSH2 0x2500 JUMPI PUSH2 0x24FF PUSH2 0x437C JUMP JUMPDEST JUMPDEST PUSH1 0x40 MLOAD SWAP1 DUP1 DUP3 MSTORE DUP1 PUSH1 0x20 MUL PUSH1 0x20 ADD DUP3 ADD PUSH1 0x40 MSTORE DUP1 ISZERO PUSH2 0x252E JUMPI DUP2 PUSH1 0x20 ADD PUSH1 0x20 DUP3 MUL DUP1 CALLDATASIZE DUP4 CALLDATACOPY DUP1 DUP3 ADD SWAP2 POP POP SWAP1 POP JUMPDEST POP SWAP1 POP ADDRESS DUP2 PUSH0 DUP2 MLOAD DUP2 LT PUSH2 0x2545 JUMPI PUSH2 0x2544 PUSH2 0x484A JUMP JUMPDEST JUMPDEST PUSH1 0x20 MUL PUSH1 0x20 ADD ADD SWAP1 PUSH20 0xFFFFFFFFFFFFFFFFFFFFFFFFFFFFFFFFFFFFFFFF AND SWAP1 DUP2 PUSH20 0xFFFFFFFFFFFFFFFFFFFFFFFFFFFFFFFFFFFFFFFF AND DUP2 MSTORE POP POP PUSH32 0x0 DUP2 PUSH1 0x1 DUP2 MLOAD DUP2 LT PUSH2 0x25B4 JUMPI PUSH2 0x25B3 PUSH2 0x484A JUMP JUMPDEST JUMPDEST PUSH1 0x20 MUL PUSH1 0x20 ADD ADD SWAP1 PUSH20 0xFFFFFFFFFFFFFFFFFFFFFFFFFFFFFFFFFFFFFFFF AND SWAP1 DUP2 PUSH20 0xFFFFFFFFFFFFFFFFFFFFFFFFFFFFFFFFFFFFFFFF AND DUP2 MSTORE POP POP PUSH1 0x26 PUSH0 SWAP1 SLOAD SWAP1 PUSH2 0x100 EXP SWAP1 DIV PUSH20 0xFFFFFFFFFFFFFFFFFFFFFFFFFFFFFFFFFFFFFFFF AND DUP2 PUSH1 0x2 DUP2 MLOAD DUP2 LT PUSH2 0x2624 JUMPI PUSH2 0x2623 PUSH2 0x484A JUMP JUMPDEST JUMPDEST PUSH1 0x20 MUL PUSH1 0x20 ADD ADD SWAP1 PUSH20 0xFFFFFFFFFFFFFFFFFFFFFFFFFFFFFFFFFFFFFFFF AND SWAP1 DUP2 PUSH20 0xFFFFFFFFFFFFFFFFFFFFFFFFFFFFFFFFFFFFFFFF AND DUP2 MSTORE POP POP PUSH0 DUP1 PUSH1 0x26 PUSH0 SWAP1 SLOAD SWAP1 PUSH2 0x100 EXP SWAP1 DIV PUSH20 0xFFFFFFFFFFFFFFFFFFFFFFFFFFFFFFFFFFFFFFFF AND PUSH20 0xFFFFFFFFFFFFFFFFFFFFFFFFFFFFFFFFFFFFFFFF AND PUSH4 0x70A08231 ADDRESS PUSH1 0x40 MLOAD DUP3 PUSH4 0xFFFFFFFF AND PUSH1 0xE0 SHL DUP2 MSTORE PUSH1 0x4 ADD PUSH2 0x26BA SWAP2 SWAP1 PUSH2 0x3EA6 JUMP JUMPDEST PUSH1 0x20 PUSH1 0x40 MLOAD DUP1 DUP4 SUB DUP2 DUP7 GAS STATICCALL ISZERO DUP1 ISZERO PUSH2 0x26D5 JUMPI RETURNDATASIZE PUSH0 DUP1 RETURNDATACOPY RETURNDATASIZE PUSH0 REVERT JUMPDEST POP POP POP POP PUSH1 0x40 MLOAD RETURNDATASIZE PUSH1 0x1F NOT PUSH1 0x1F DUP3 ADD AND DUP3 ADD DUP1 PUSH1 0x40 MSTORE POP DUP2 ADD SWAP1 PUSH2 0x26F9 SWAP2 SWAP1 PUSH2 0x40BF JUMP JUMPDEST SWAP1 POP PUSH32 0x0 PUSH20 0xFFFFFFFFFFFFFFFFFFFFFFFFFFFFFFFFFFFFFFFF AND PUSH4 0xAC3893BA DUP9 PUSH0 DUP7 ADDRESS PUSH0 TIMESTAMP PUSH1 0x40 MLOAD DUP8 PUSH4 0xFFFFFFFF AND PUSH1 0xE0 SHL DUP2 MSTORE PUSH1 0x4 ADD PUSH2 0x275E SWAP7 SWAP6 SWAP5 SWAP4 SWAP3 SWAP2 SWAP1 PUSH2 0x4967 JUMP JUMPDEST PUSH0 PUSH1 0x40 MLOAD DUP1 DUP4 SUB DUP2 PUSH0 DUP8 DUP1 EXTCODESIZE ISZERO DUP1 ISZERO PUSH2 0x2775 JUMPI PUSH0 DUP1 REVERT JUMPDEST POP GAS CALL SWAP3 POP POP POP DUP1 ISZERO PUSH2 0x2786 JUMPI POP PUSH1 0x1 JUMPDEST PUSH2 0x2822 JUMPI PUSH32 0x0 PUSH20 0xFFFFFFFFFFFFFFFFFFFFFFFFFFFFFFFFFFFFFFFF AND PUSH4 0x5C11D795 DUP9 PUSH0 DUP7 ADDRESS TIMESTAMP PUSH1 0x40 MLOAD DUP7 PUSH4 0xFFFFFFFF AND PUSH1 0xE0 SHL DUP2 MSTORE PUSH1 0x4 ADD PUSH2 0x27EB SWAP6 SWAP5 SWAP4 SWAP3 SWAP2 SWAP1 PUSH2 0x49CD JUMP JUMPDEST PUSH0 PUSH1 0x40 MLOAD DUP1 DUP4 SUB DUP2 PUSH0 DUP8 DUP1 EXTCODESIZE ISZERO DUP1 ISZERO PUSH2 0x2802 JUMPI PUSH0 DUP1 REVERT JUMPDEST POP GAS CALL SWAP3 POP POP POP DUP1 ISZERO PUSH2 0x2813 JUMPI POP PUSH1 0x1 JUMPDEST ISZERO PUSH2 0x281D JUMPI PUSH1 0x1 SWAP2 POP JUMPDEST PUSH2 0x2827 JUMP JUMPDEST PUSH1 0x1 SWAP2 POP JUMPDEST DUP2 PUSH2 0x2838 JUMPI POP POP POP POP POP POP POP PUSH2 0x2DAE JUMP JUMPDEST PUSH2 0x2845 ADDRESS PUSH2 0xDEAD DUP9 PUSH2 0x2E4A JUMP JUMPDEST PUSH2 0x2871 ADDRESS PUSH1 0x23 PUSH0 SWAP1 SLOAD SWAP1 PUSH2 0x100 EXP SWAP1 DIV PUSH20 0xFFFFFFFFFFFFFFFFFFFFFFFFFFFFFFFFFFFFFFFF AND DUP7 PUSH2 0x1D66 JUMP JUMPDEST PUSH1 0x23 PUSH0 SWAP1 SLOAD SWAP1 PUSH2 0x100 EXP SWAP1 DIV PUSH20 0xFFFFFFFFFFFFFFFFFFFFFFFFFFFFFFFFFFFFFFFF AND PUSH20 0xFFFFFFFFFFFFFFFFFFFFFFFFFFFFFFFFFFFFFFFF AND PUSH4 0x3BDC8A1F DUP6 PUSH1 0x40 MLOAD DUP3 PUSH4 0xFFFFFFFF AND PUSH1 0xE0 SHL DUP2 MSTORE PUSH1 0x4 ADD PUSH2 0x28CB SWAP2 SWAP1 PUSH2 0x3A03 JUMP JUMPDEST PUSH0 PUSH1 0x40 MLOAD DUP1 DUP4 SUB DUP2 PUSH0 DUP8 DUP1 EXTCODESIZE ISZERO DUP1 ISZERO PUSH2 0x28E2 JUMPI PUSH0 DUP1 REVERT JUMPDEST POP GAS CALL ISZERO DUP1 ISZERO PUSH2 0x28F4 JUMPI RETURNDATASIZE PUSH0 DUP1 RETURNDATACOPY RETURNDATASIZE PUSH0 REVERT JUMPDEST POP POP POP POP PUSH0 DUP2 PUSH1 0x26 PUSH0 SWAP1 SLOAD SWAP1 PUSH2 0x100 EXP SWAP1 DIV PUSH20 0xFFFFFFFFFFFFFFFFFFFFFFFFFFFFFFFFFFFFFFFF AND PUSH20 0xFFFFFFFFFFFFFFFFFFFFFFFFFFFFFFFFFFFFFFFF AND PUSH4 0x70A08231 ADDRESS PUSH1 0x40 MLOAD DUP3 PUSH4 0xFFFFFFFF AND PUSH1 0xE0 SHL DUP2 MSTORE PUSH1 0x4 ADD PUSH2 0x2954 SWAP2 SWAP1 PUSH2 0x3EA6 JUMP JUMPDEST PUSH1 0x20 PUSH1 0x40 MLOAD DUP1 DUP4 SUB DUP2 DUP7 GAS STATICCALL ISZERO DUP1 ISZERO PUSH2 0x296F JUMPI RETURNDATASIZE PUSH0 DUP1 RETURNDATACOPY RETURNDATASIZE PUSH0 REVERT JUMPDEST POP POP POP POP PUSH1 0x40 MLOAD RETURNDATASIZE PUSH1 0x1F NOT PUSH1 0x1F DUP3 ADD AND DUP3 ADD DUP1 PUSH1 0x40 MSTORE POP DUP2 ADD SWAP1 PUSH2 0x2993 SWAP2 SWAP1 PUSH2 0x40BF JUMP JUMPDEST PUSH2 0x299D SWAP2 SWAP1 PUSH2 0x4078 JUMP JUMPDEST SWAP1 POP PUSH0 PUSH1 0xD SLOAD PUSH1 0xB SLOAD PUSH1 0x8 SLOAD PUSH1 0xF SLOAD PUSH2 0x29B6 SWAP2 SWAP1 PUSH2 0x4078 JUMP JUMPDEST PUSH2 0x29C0 SWAP2 SWAP1 PUSH2 0x4078 JUMP JUMPDEST PUSH2 0x29CA SWAP2 SWAP1 PUSH2 0x4078 JUMP JUMPDEST SWAP1 POP PUSH0 DUP2 PUSH1 0x9 SLOAD DUP5 PUSH2 0x29DC SWAP2 SWAP1 PUSH2 0x47AC JUMP JUMPDEST PUSH2 0x29E6 SWAP2 SWAP1 PUSH2 0x481A JUMP JUMPDEST SWAP1 POP PUSH0 DUP3 PUSH1 0xA SLOAD DUP6 PUSH2 0x29F8 SWAP2 SWAP1 PUSH2 0x47AC JUMP JUMPDEST PUSH2 0x2A02 SWAP2 SWAP1 PUSH2 0x481A JUMP JUMPDEST SWAP1 POP PUSH0 DUP4 PUSH1 0xC SLOAD DUP7 PUSH2 0x2A14 SWAP2 SWAP1 PUSH2 0x47AC JUMP JUMPDEST PUSH2 0x2A1E SWAP2 SWAP1 PUSH2 0x481A JUMP JUMPDEST SWAP1 POP PUSH0 DUP2 DUP4 DUP6 DUP9 PUSH2 0x2A2F SWAP2 SWAP1 PUSH2 0x4078 JUMP JUMPDEST PUSH2 0x2A39 SWAP2 SWAP1 PUSH2 0x4078 JUMP JUMPDEST PUSH2 0x2A43 SWAP2 SWAP1 PUSH2 0x4078 JUMP JUMPDEST SWAP1 POP PUSH1 0x26 PUSH0 SWAP1 SLOAD SWAP1 PUSH2 0x100 EXP SWAP1 DIV PUSH20 0xFFFFFFFFFFFFFFFFFFFFFFFFFFFFFFFFFFFFFFFF AND PUSH20 0xFFFFFFFFFFFFFFFFFFFFFFFFFFFFFFFFFFFFFFFF AND PUSH4 0xA9059CBB PUSH1 0x21 PUSH0 SWAP1 SLOAD SWAP1 PUSH2 0x100 EXP SWAP1 DIV PUSH20 0xFFFFFFFFFFFFFFFFFFFFFFFFFFFFFFFFFFFFFFFF AND DUP7 PUSH1 0x40 MLOAD DUP4 PUSH4 0xFFFFFFFF AND PUSH1 0xE0 SHL DUP2 MSTORE PUSH1 0x4 ADD PUSH2 0x2AC2 SWAP3 SWAP2 SWAP1 PUSH2 0x40EA JUMP JUMPDEST PUSH1 0x20 PUSH1 0x40 MLOAD DUP1 DUP4 SUB DUP2 PUSH0 DUP8 GAS CALL ISZERO DUP1 ISZERO PUSH2 0x2ADE JUMPI RETURNDATASIZE PUSH0 DUP1 RETURNDATACOPY RETURNDATASIZE PUSH0 REVERT JUMPDEST POP POP POP POP PUSH1 0x40 MLOAD RETURNDATASIZE PUSH1 0x1F NOT PUSH1 0x1F DUP3 ADD AND DUP3 ADD DUP1 PUSH1 0x40 MSTORE POP DUP2 ADD SWAP1 PUSH2 0x2B02 SWAP2 SWAP1 PUSH2 0x4125 JUMP JUMPDEST POP PUSH1 0x26 PUSH0 SWAP1 SLOAD SWAP1 PUSH2 0x100 EXP SWAP1 DIV PUSH20 0xFFFFFFFFFFFFFFFFFFFFFFFFFFFFFFFFFFFFFFFF AND PUSH20 0xFFFFFFFFFFFFFFFFFFFFFFFFFFFFFFFFFFFFFFFF AND PUSH4 0xA9059CBB PUSH1 0x22 PUSH0 SWAP1 SLOAD SWAP1 PUSH2 0x100 EXP SWAP1 DIV PUSH20 0xFFFFFFFFFFFFFFFFFFFFFFFFFFFFFFFFFFFFFFFF AND DUP6 PUSH1 0x40 MLOAD DUP4 PUSH4 0xFFFFFFFF AND PUSH1 0xE0 SHL DUP2 MSTORE PUSH1 0x4 ADD PUSH2 0x2B80 SWAP3 SWAP2 SWAP1 PUSH2 0x40EA JUMP JUMPDEST PUSH1 0x20 PUSH1 0x40 MLOAD DUP1 DUP4 SUB DUP2 PUSH0 DUP8 GAS CALL ISZERO DUP1 ISZERO PUSH2 0x2B9C JUMPI RETURNDATASIZE PUSH0 DUP1 RETURNDATACOPY RETURNDATASIZE PUSH0 REVERT JUMPDEST POP POP POP POP PUSH1 0x40 MLOAD RETURNDATASIZE PUSH1 0x1F NOT PUSH1 0x1F DUP3 ADD AND DUP3 ADD DUP1 PUSH1 0x40 MSTORE POP DUP2 ADD SWAP1 PUSH2 0x2BC0 SWAP2 SWAP1 PUSH2 0x4125 JUMP JUMPDEST POP PUSH1 0x26 PUSH0 SWAP1 SLOAD SWAP1 PUSH2 0x100 EXP SWAP1 DIV PUSH20 0xFFFFFFFFFFFFFFFFFFFFFFFFFFFFFFFFFFFFFFFF AND PUSH20 0xFFFFFFFFFFFFFFFFFFFFFFFFFFFFFFFFFFFFFFFF AND PUSH4 0xA9059CBB PUSH1 0x24 PUSH0 SWAP1 SLOAD SWAP1 PUSH2 0x100 EXP SWAP1 DIV PUSH20 0xFFFFFFFFFFFFFFFFFFFFFFFFFFFFFFFFFFFFFFFF AND DUP5 PUSH1 0x40 MLOAD DUP4 PUSH4 0xFFFFFFFF AND PUSH1 0xE0 SHL DUP2 MSTORE PUSH1 0x4 ADD PUSH2 0x2C3E SWAP3 SWAP2 SWAP1 PUSH2 0x40EA JUMP JUMPDEST PUSH1 0x20 PUSH1 0x40 MLOAD DUP1 DUP4 SUB DUP2 PUSH0 DUP8 GAS CALL ISZERO DUP1 ISZERO PUSH2 0x2C5A JUMPI RETURNDATASIZE PUSH0 DUP1 RETURNDATACOPY RETURNDATASIZE PUSH0 REVERT JUMPDEST POP POP POP POP PUSH1 0x40 MLOAD RETURNDATASIZE PUSH1 0x1F NOT PUSH1 0x1F DUP3 ADD AND DUP3 ADD DUP1 PUSH1 0x40 MSTORE POP DUP2 ADD SWAP1 PUSH2 0x2C7E SWAP2 SWAP1 PUSH2 0x4125 JUMP JUMPDEST POP PUSH1 0x26 PUSH0 SWAP1 SLOAD SWAP1 PUSH2 0x100 EXP SWAP1 DIV PUSH20 0xFFFFFFFFFFFFFFFFFFFFFFFFFFFFFFFFFFFFFFFF AND PUSH20 0xFFFFFFFFFFFFFFFFFFFFFFFFFFFFFFFFFFFFFFFF AND PUSH4 0xA9059CBB PUSH1 0x25 PUSH0 SWAP1 SLOAD SWAP1 PUSH2 0x100 EXP SWAP1 DIV PUSH20 0xFFFFFFFFFFFFFFFFFFFFFFFFFFFFFFFFFFFFFFFF AND DUP4 PUSH1 0x40 MLOAD DUP4 PUSH4 0xFFFFFFFF AND PUSH1 0xE0 SHL DUP2 MSTORE PUSH1 0x4 ADD PUSH2 0x2CFC SWAP3 SWAP2 SWAP1 PUSH2 0x40EA JUMP JUMPDEST PUSH1 0x20 PUSH1 0x40 MLOAD DUP1 DUP4 SUB DUP2 PUSH0 DUP8 GAS CALL ISZERO DUP1 ISZERO PUSH2 0x2D18 JUMPI RETURNDATASIZE PUSH0 DUP1 RETURNDATACOPY RETURNDATASIZE PUSH0 REVERT JUMPDEST POP POP POP POP PUSH1 0x40 MLOAD RETURNDATASIZE PUSH1 0x1F NOT PUSH1 0x1F DUP3 ADD AND DUP3 ADD DUP1 PUSH1 0x40 MSTORE POP DUP2 ADD SWAP1 PUSH2 0x2D3C SWAP2 SWAP1 PUSH2 0x4125 JUMP JUMPDEST POP PUSH1 0x5 PUSH1 0x15 SWAP1 SLOAD SWAP1 PUSH2 0x100 EXP SWAP1 DIV PUSH1 0xFF AND ISZERO PUSH2 0x2D5B JUMPI PUSH2 0x2D5A PUSH2 0x332C JUMP JUMPDEST JUMPDEST PUSH32 0x310A031BAE0DF2B1A8BA6DE615833770C757A404A7395CC0121C13975E67C0B0 DUP13 DUP6 DUP6 DUP15 DUP7 DUP16 DUP8 TIMESTAMP PUSH1 0x40 MLOAD PUSH2 0x2D98 SWAP9 SWAP8 SWAP7 SWAP6 SWAP5 SWAP4 SWAP3 SWAP2 SWAP1 PUSH2 0x4A25 JUMP JUMPDEST PUSH1 0x40 MLOAD DUP1 SWAP2 SUB SWAP1 LOG1 POP POP POP POP POP POP POP POP POP POP POP POP POP JUMPDEST PUSH0 PUSH1 0x5 PUSH1 0x16 PUSH2 0x100 EXP DUP2 SLOAD DUP2 PUSH1 0xFF MUL NOT AND SWAP1 DUP4 ISZERO ISZERO MUL OR SWAP1 SSTORE POP JUMP JUMPDEST PUSH0 PUSH2 0x2DEF DUP4 PUSH0 ADD DUP4 PUSH20 0xFFFFFFFFFFFFFFFFFFFFFFFFFFFFFFFFFFFFFFFF AND PUSH0 SHL PUSH2 0x35C6 JUMP JUMPDEST SWAP1 POP SWAP3 SWAP2 POP POP JUMP JUMPDEST PUSH0 PUSH2 0x2E04 DUP4 PUSH0 ADD DUP4 PUSH2 0x36C2 JUMP JUMPDEST PUSH0 SHR SWAP1 POP SWAP3 SWAP2 POP POP JUMP JUMPDEST PUSH0 PUSH2 0x2E33 DUP4 PUSH0 ADD DUP4 PUSH20 0xFFFFFFFFFFFFFFFFFFFFFFFFFFFFFFFFFFFFFFFF AND PUSH0 SHL PUSH2 0x36E9 JUMP JUMPDEST SWAP1 POP SWAP3 SWAP2 POP POP JUMP JUMPDEST PUSH0 DUP2 PUSH0 ADD DUP1 SLOAD SWAP1 POP SWAP1 POP SWAP2 SWAP1 POP JUMP JUMPDEST PUSH0 PUSH20 0xFFFFFFFFFFFFFFFFFFFFFFFFFFFFFFFFFFFFFFFF AND DUP4 PUSH20 0xFFFFFFFFFFFFFFFFFFFFFFFFFFFFFFFFFFFFFFFF AND SUB PUSH2 0x2EB8 JUMPI PUSH1 0x40 MLOAD PUSH32 0x8C379A000000000000000000000000000000000000000000000000000000000 DUP2 MSTORE PUSH1 0x4 ADD PUSH2 0x2EAF SWAP1 PUSH2 0x4B11 JUMP JUMPDEST PUSH1 0x40 MLOAD DUP1 SWAP2 SUB SWAP1 REVERT JUMPDEST PUSH0 PUSH20 0xFFFFFFFFFFFFFFFFFFFFFFFFFFFFFFFFFFFFFFFF AND DUP3 PUSH20 0xFFFFFFFFFFFFFFFFFFFFFFFFFFFFFFFFFFFFFFFF AND SUB PUSH2 0x2F26 JUMPI PUSH1 0x40 MLOAD PUSH32 0x8C379A000000000000000000000000000000000000000000000000000000000 DUP2 MSTORE PUSH1 0x4 ADD PUSH2 0x2F1D SWAP1 PUSH2 0x4B9F JUMP JUMPDEST PUSH1 0x40 MLOAD DUP1 SWAP2 SUB SWAP1 REVERT JUMPDEST PUSH2 0x2F31 DUP4 DUP4 DUP4 PUSH2 0x3709 JUMP JUMPDEST PUSH0 DUP1 PUSH0 DUP6 PUSH20 0xFFFFFFFFFFFFFFFFFFFFFFFFFFFFFFFFFFFFFFFF AND PUSH20 0xFFFFFFFFFFFFFFFFFFFFFFFFFFFFFFFFFFFFFFFF AND DUP2 MSTORE PUSH1 0x20 ADD SWAP1 DUP2 MSTORE PUSH1 0x20 ADD PUSH0 KECCAK256 SLOAD SWAP1 POP DUP2 DUP2 LT ISZERO PUSH2 0x2FB4 JUMPI PUSH1 0x40 MLOAD PUSH32 0x8C379A000000000000000000000000000000000000000000000000000000000 DUP2 MSTORE PUSH1 0x4 ADD PUSH2 0x2FAB SWAP1 PUSH2 0x4C2D JUMP JUMPDEST PUSH1 0x40 MLOAD DUP1 SWAP2 SUB SWAP1 REVERT JUMPDEST DUP2 DUP2 SUB PUSH0 DUP1 DUP7 PUSH20 0xFFFFFFFFFFFFFFFFFFFFFFFFFFFFFFFFFFFFFFFF AND PUSH20 0xFFFFFFFFFFFFFFFFFFFFFFFFFFFFFFFFFFFFFFFF AND DUP2 MSTORE PUSH1 0x20 ADD SWAP1 DUP2 MSTORE PUSH1 0x20 ADD PUSH0 KECCAK256 DUP2 SWAP1 SSTORE POP DUP2 PUSH0 DUP1 DUP6 PUSH20 0xFFFFFFFFFFFFFFFFFFFFFFFFFFFFFFFFFFFFFFFF AND PUSH20 0xFFFFFFFFFFFFFFFFFFFFFFFFFFFFFFFFFFFFFFFF AND DUP2 MSTORE PUSH1 0x20 ADD SWAP1 DUP2 MSTORE PUSH1 0x20 ADD PUSH0 KECCAK256 PUSH0 DUP3 DUP3 SLOAD ADD SWAP3 POP POP DUP2 SWAP1 SSTORE POP DUP3 PUSH20 0xFFFFFFFFFFFFFFFFFFFFFFFFFFFFFFFFFFFFFFFF AND DUP5 PUSH20 0xFFFFFFFFFFFFFFFFFFFFFFFFFFFFFFFFFFFFFFFF AND PUSH32 0xDDF252AD1BE2C89B69C2B068FC378DAA952BA7F163C4A11628F55A4DF523B3EF DUP5 PUSH1 0x40 MLOAD PUSH2 0x309D SWAP2 SWAP1 PUSH2 0x3A03 JUMP JUMPDEST PUSH1 0x40 MLOAD DUP1 SWAP2 SUB SWAP1 LOG3 PUSH2 0x30B0 DUP5 DUP5 DUP5 PUSH2 0x370E JUMP JUMPDEST POP POP POP POP JUMP JUMPDEST PUSH0 DUP1 PUSH1 0x27 SLOAD EQ ISZERO SWAP1 POP SWAP1 JUMP JUMPDEST PUSH1 0x11 SLOAD PUSH1 0x8 DUP2 SWAP1 SSTORE POP PUSH1 0x12 SLOAD PUSH1 0x9 DUP2 SWAP1 SSTORE POP PUSH1 0x13 SLOAD PUSH1 0xA DUP2 SWAP1 SSTORE POP PUSH1 0x14 SLOAD PUSH1 0xB DUP2 SWAP1 SSTORE POP PUSH1 0x15 SLOAD PUSH1 0xC DUP2 SWAP1 SSTORE POP PUSH1 0x16 SLOAD PUSH1 0xD DUP2 SWAP1 SSTORE POP PUSH1 0x17 SLOAD PUSH1 0xE DUP2 SWAP1 SSTORE POP PUSH1 0x18 SLOAD PUSH1 0xF DUP2 SWAP1 SSTORE POP JUMP JUMPDEST PUSH1 0x19 SLOAD PUSH1 0x8 DUP2 SWAP1 SSTORE POP PUSH1 0x1A SLOAD PUSH1 0x9 DUP2 SWAP1 SSTORE POP PUSH1 0x1B SLOAD PUSH1 0xA DUP2 SWAP1 SSTORE POP PUSH1 0x1C SLOAD PUSH1 0xB DUP2 SWAP1 SSTORE POP PUSH1 0x1D SLOAD PUSH1 0xC DUP2 SWAP1 SSTORE POP PUSH1 0x1E SLOAD PUSH1 0xD DUP2 SWAP1 SSTORE POP PUSH1 0x1F SLOAD PUSH1 0xE DUP2 SWAP1 SSTORE POP PUSH1 0x20 SLOAD PUSH1 0xF DUP2 SWAP1 SSTORE POP JUMP JUMPDEST PUSH0 PUSH1 0x5 PUSH1 0x16 SWAP1 SLOAD SWAP1 PUSH2 0x100 EXP SWAP1 DIV PUSH1 0xFF AND ISZERO DUP1 ISZERO PUSH2 0x3180 JUMPI POP PUSH1 0x5 PUSH1 0x14 SWAP1 SLOAD SWAP1 PUSH2 0x100 EXP SWAP1 DIV PUSH1 0xFF AND JUMPDEST DUP1 ISZERO PUSH2 0x3190 JUMPI POP PUSH2 0x318F PUSH2 0x30B6 JUMP JUMPDEST JUMPDEST DUP1 ISZERO PUSH2 0x31A3 JUMPI POP PUSH0 PUSH2 0x31A1 ADDRESS PUSH2 0x15C9 JUMP JUMPDEST GT JUMPDEST DUP1 ISZERO PUSH2 0x31BC JUMPI POP PUSH2 0x31BA PUSH2 0x31B5 PUSH2 0x1D5F JUMP JUMPDEST PUSH2 0x1C2A JUMP JUMPDEST ISZERO JUMPDEST SWAP1 POP SWAP1 JUMP JUMPDEST PUSH0 DUP1 PUSH1 0x10 SLOAD PUSH1 0xF SLOAD DUP5 PUSH2 0x31D4 SWAP2 SWAP1 PUSH2 0x47AC JUMP JUMPDEST PUSH2 0x31DE SWAP2 SWAP1 PUSH2 0x481A JUMP JUMPDEST SWAP1 POP PUSH2 0x31EB DUP5 ADDRESS DUP4 PUSH2 0x2E4A JUMP JUMPDEST DUP1 DUP4 PUSH2 0x31F7 SWAP2 SWAP1 PUSH2 0x4078 JUMP JUMPDEST SWAP2 POP POP SWAP3 SWAP2 POP POP JUMP JUMPDEST PUSH0 PUSH2 0x3261 DUP3 PUSH1 0x40 MLOAD DUP1 PUSH1 0x40 ADD PUSH1 0x40 MSTORE DUP1 PUSH1 0x20 DUP2 MSTORE PUSH1 0x20 ADD PUSH32 0x5361666545524332303A206C6F772D6C6576656C2063616C6C206661696C6564 DUP2 MSTORE POP DUP6 PUSH20 0xFFFFFFFFFFFFFFFFFFFFFFFFFFFFFFFFFFFFFFFF AND PUSH2 0x3713 SWAP1 SWAP3 SWAP2 SWAP1 PUSH4 0xFFFFFFFF AND JUMP JUMPDEST SWAP1 POP PUSH0 DUP2 MLOAD GT ISZERO PUSH2 0x32C0 JUMPI DUP1 DUP1 PUSH1 0x20 ADD SWAP1 MLOAD DUP2 ADD SWAP1 PUSH2 0x3280 SWAP2 SWAP1 PUSH2 0x4125 JUMP JUMPDEST PUSH2 0x32BF JUMPI PUSH1 0x40 MLOAD PUSH32 0x8C379A000000000000000000000000000000000000000000000000000000000 DUP2 MSTORE PUSH1 0x4 ADD PUSH2 0x32B6 SWAP1 PUSH2 0x4CBB JUMP JUMPDEST PUSH1 0x40 MLOAD DUP1 SWAP2 SUB SWAP1 REVERT JUMPDEST JUMPDEST POP POP POP JUMP JUMPDEST PUSH0 PUSH2 0x32D0 DUP4 DUP4 PUSH2 0x36E9 JUMP JUMPDEST PUSH2 0x3322 JUMPI DUP3 PUSH0 ADD DUP3 SWAP1 DUP1 PUSH1 0x1 DUP2 SLOAD ADD DUP1 DUP3 SSTORE DUP1 SWAP2 POP POP PUSH1 0x1 SWAP1 SUB SWAP1 PUSH0 MSTORE PUSH1 0x20 PUSH0 KECCAK256 ADD PUSH0 SWAP1 SWAP2 SWAP1 SWAP2 SWAP1 SWAP2 POP SSTORE DUP3 PUSH0 ADD DUP1 SLOAD SWAP1 POP DUP4 PUSH1 0x1 ADD PUSH0 DUP5 DUP2 MSTORE PUSH1 0x20 ADD SWAP1 DUP2 MSTORE PUSH1 0x20 ADD PUSH0 KECCAK256 DUP2 SWAP1 SSTORE POP PUSH1 0x1 SWAP1 POP PUSH2 0x3326 JUMP JUMPDEST PUSH0 SWAP1 POP JUMPDEST SWAP3 SWAP2 POP POP JUMP JUMPDEST PUSH0 PUSH1 0x2 PUSH8 0xFFFFFFFFFFFFFFFF DUP2 GT ISZERO PUSH2 0x3348 JUMPI PUSH2 0x3347 PUSH2 0x437C JUMP JUMPDEST JUMPDEST PUSH1 0x40 MLOAD SWAP1 DUP1 DUP3 MSTORE DUP1 PUSH1 0x20 MUL PUSH1 0x20 ADD DUP3 ADD PUSH1 0x40 MSTORE DUP1 ISZERO PUSH2 0x3376 JUMPI DUP2 PUSH1 0x20 ADD PUSH1 0x20 DUP3 MUL DUP1 CALLDATASIZE DUP4 CALLDATACOPY DUP1 DUP3 ADD SWAP2 POP POP SWAP1 POP JUMPDEST POP SWAP1 POP ADDRESS DUP2 PUSH0 DUP2 MLOAD DUP2 LT PUSH2 0x338D JUMPI PUSH2 0x338C PUSH2 0x484A JUMP JUMPDEST JUMPDEST PUSH1 0x20 MUL PUSH1 0x20 ADD ADD SWAP1 PUSH20 0xFFFFFFFFFFFFFFFFFFFFFFFFFFFFFFFFFFFFFFFF AND SWAP1 DUP2 PUSH20 0xFFFFFFFFFFFFFFFFFFFFFFFFFFFFFFFFFFFFFFFF AND DUP2 MSTORE POP POP PUSH32 0x0 DUP2 PUSH1 0x1 DUP2 MLOAD DUP2 LT PUSH2 0x33FC JUMPI PUSH2 0x33FB PUSH2 0x484A JUMP JUMPDEST JUMPDEST PUSH1 0x20 MUL PUSH1 0x20 ADD ADD SWAP1 PUSH20 0xFFFFFFFFFFFFFFFFFFFFFFFFFFFFFFFFFFFFFFFF AND SWAP1 DUP2 PUSH20 0xFFFFFFFFFFFFFFFFFFFFFFFFFFFFFFFFFFFFFFFF AND DUP2 MSTORE POP POP PUSH0 PUSH2 0x3440 ADDRESS PUSH2 0x15C9 JUMP JUMPDEST SWAP1 POP PUSH0 PUSH1 0x2 DUP3 PUSH2 0x3450 SWAP2 SWAP1 PUSH2 0x481A JUMP JUMPDEST SWAP1 POP PUSH2 0x3E8 DUP2 LT ISZERO PUSH2 0x3464 JUMPI POP POP POP PUSH2 0x35C4 JUMP JUMPDEST PUSH0 SELFBALANCE SWAP1 POP PUSH0 PUSH32 0x0 PUSH20 0xFFFFFFFFFFFFFFFFFFFFFFFFFFFFFFFFFFFFFFFF AND PUSH4 0x52AA4C22 DUP5 PUSH0 DUP9 ADDRESS PUSH0 TIMESTAMP PUSH1 0x40 MLOAD DUP8 PUSH4 0xFFFFFFFF AND PUSH1 0xE0 SHL DUP2 MSTORE PUSH1 0x4 ADD PUSH2 0x34CC SWAP7 SWAP6 SWAP5 SWAP4 SWAP3 SWAP2 SWAP1 PUSH2 0x4967 JUMP JUMPDEST PUSH0 PUSH1 0x40 MLOAD DUP1 DUP4 SUB DUP2 PUSH0 DUP8 DUP1 EXTCODESIZE ISZERO DUP1 ISZERO PUSH2 0x34E3 JUMPI PUSH0 DUP1 REVERT JUMPDEST POP GAS CALL SWAP3 POP POP POP DUP1 ISZERO PUSH2 0x34F4 JUMPI POP PUSH1 0x1 JUMPDEST PUSH2 0x3590 JUMPI PUSH32 0x0 PUSH20 0xFFFFFFFFFFFFFFFFFFFFFFFFFFFFFFFFFFFFFFFF AND PUSH4 0x791AC947 DUP5 PUSH0 DUP9 ADDRESS TIMESTAMP PUSH1 0x40 MLOAD DUP7 PUSH4 0xFFFFFFFF AND PUSH1 0xE0 SHL DUP2 MSTORE PUSH1 0x4 ADD PUSH2 0x3559 SWAP6 SWAP5 SWAP4 SWAP3 SWAP2 SWAP1 PUSH2 0x49CD JUMP JUMPDEST PUSH0 PUSH1 0x40 MLOAD DUP1 DUP4 SUB DUP2 PUSH0 DUP8 DUP1 EXTCODESIZE ISZERO DUP1 ISZERO PUSH2 0x3570 JUMPI PUSH0 DUP1 REVERT JUMPDEST POP GAS CALL SWAP3 POP POP POP DUP1 ISZERO PUSH2 0x3581 JUMPI POP PUSH1 0x1 JUMPDEST ISZERO PUSH2 0x358B JUMPI PUSH1 0x1 SWAP1 POP JUMPDEST PUSH2 0x3595 JUMP JUMPDEST PUSH1 0x1 SWAP1 POP JUMPDEST DUP1 PUSH2 0x35A4 JUMPI POP POP POP POP POP PUSH2 0x35C4 JUMP JUMPDEST PUSH0 DUP3 SELFBALANCE PUSH2 0x35B1 SWAP2 SWAP1 PUSH2 0x4078 JUMP JUMPDEST SWAP1 POP PUSH2 0x35BD DUP5 DUP3 PUSH2 0x372A JUMP JUMPDEST POP POP POP POP POP POP JUMPDEST JUMP JUMPDEST PUSH0 DUP1 DUP4 PUSH1 0x1 ADD PUSH0 DUP5 DUP2 MSTORE PUSH1 0x20 ADD SWAP1 DUP2 MSTORE PUSH1 0x20 ADD PUSH0 KECCAK256 SLOAD SWAP1 POP PUSH0 DUP2 EQ PUSH2 0x36B7 JUMPI PUSH0 PUSH1 0x1 DUP3 PUSH2 0x35F3 SWAP2 SWAP1 PUSH2 0x4078 JUMP JUMPDEST SWAP1 POP PUSH0 PUSH1 0x1 DUP7 PUSH0 ADD DUP1 SLOAD SWAP1 POP PUSH2 0x3609 SWAP2 SWAP1 PUSH2 0x4078 JUMP JUMPDEST SWAP1 POP DUP2 DUP2 EQ PUSH2 0x366F JUMPI PUSH0 DUP7 PUSH0 ADD DUP3 DUP2 SLOAD DUP2 LT PUSH2 0x3628 JUMPI PUSH2 0x3627 PUSH2 0x484A JUMP JUMPDEST JUMPDEST SWAP1 PUSH0 MSTORE PUSH1 0x20 PUSH0 KECCAK256 ADD SLOAD SWAP1 POP DUP1 DUP8 PUSH0 ADD DUP5 DUP2 SLOAD DUP2 LT PUSH2 0x3649 JUMPI PUSH2 0x3648 PUSH2 0x484A JUMP JUMPDEST JUMPDEST SWAP1 PUSH0 MSTORE PUSH1 0x20 PUSH0 KECCAK256 ADD DUP2 SWAP1 SSTORE POP DUP4 DUP8 PUSH1 0x1 ADD PUSH0 DUP4 DUP2 MSTORE PUSH1 0x20 ADD SWAP1 DUP2 MSTORE PUSH1 0x20 ADD PUSH0 KECCAK256 DUP2 SWAP1 SSTORE POP POP JUMPDEST DUP6 PUSH0 ADD DUP1 SLOAD DUP1 PUSH2 0x3682 JUMPI PUSH2 0x3681 PUSH2 0x4CD9 JUMP JUMPDEST JUMPDEST PUSH1 0x1 SWAP1 SUB DUP2 DUP2 SWAP1 PUSH0 MSTORE PUSH1 0x20 PUSH0 KECCAK256 ADD PUSH0 SWAP1 SSTORE SWAP1 SSTORE DUP6 PUSH1 0x1 ADD PUSH0 DUP7 DUP2 MSTORE PUSH1 0x20 ADD SWAP1 DUP2 MSTORE PUSH1 0x20 ADD PUSH0 KECCAK256 PUSH0 SWAP1 SSTORE PUSH1 0x1 SWAP4 POP POP POP POP PUSH2 0x36BC JUMP JUMPDEST PUSH0 SWAP2 POP POP JUMPDEST SWAP3 SWAP2 POP POP JUMP JUMPDEST PUSH0 DUP3 PUSH0 ADD DUP3 DUP2 SLOAD DUP2 LT PUSH2 0x36D8 JUMPI PUSH2 0x36D7 PUSH2 0x484A JUMP JUMPDEST JUMPDEST SWAP1 PUSH0 MSTORE PUSH1 0x20 PUSH0 KECCAK256 ADD SLOAD SWAP1 POP SWAP3 SWAP2 POP POP JUMP JUMPDEST PUSH0 DUP1 DUP4 PUSH1 0x1 ADD PUSH0 DUP5 DUP2 MSTORE PUSH1 0x20 ADD SWAP1 DUP2 MSTORE PUSH1 0x20 ADD PUSH0 KECCAK256 SLOAD EQ ISZERO SWAP1 POP SWAP3 SWAP2 POP POP JUMP JUMPDEST POP POP POP JUMP JUMPDEST POP POP POP JUMP JUMPDEST PUSH1 0x60 PUSH2 0x3721 DUP5 DUP5 PUSH0 DUP6 PUSH2 0x383D JUMP JUMPDEST SWAP1 POP SWAP4 SWAP3 POP POP POP JUMP JUMPDEST PUSH2 0x3755 ADDRESS PUSH32 0x0 DUP5 PUSH2 0x1D66 JUMP JUMPDEST PUSH32 0x0 PUSH20 0xFFFFFFFFFFFFFFFFFFFFFFFFFFFFFFFFFFFFFFFF AND PUSH4 0xF305D719 DUP3 ADDRESS DUP6 PUSH0 DUP1 PUSH0 TIMESTAMP PUSH1 0x40 MLOAD DUP9 PUSH4 0xFFFFFFFF AND PUSH1 0xE0 SHL DUP2 MSTORE PUSH1 0x4 ADD PUSH2 0x37B9 SWAP7 SWAP6 SWAP5 SWAP4 SWAP3 SWAP2 SWAP1 PUSH2 0x4D06 JUMP JUMPDEST PUSH1 0x60 PUSH1 0x40 MLOAD DUP1 DUP4 SUB DUP2 DUP6 DUP9 GAS CALL SWAP4 POP POP POP POP DUP1 ISZERO PUSH2 0x37F5 JUMPI POP PUSH1 0x40 MLOAD RETURNDATASIZE PUSH1 0x1F NOT PUSH1 0x1F DUP3 ADD AND DUP3 ADD DUP1 PUSH1 0x40 MSTORE POP DUP2 ADD SWAP1 PUSH2 0x37F2 SWAP2 SWAP1 PUSH2 0x4D65 JUMP JUMPDEST PUSH1 0x1 JUMPDEST ISZERO PUSH2 0x3839 JUMPI POP POP POP PUSH32 0xF75993DBE1645872CBBEA6395E1FEEBEE76B435BAF0E4D62D7EAC269C6F57B24 DUP3 DUP3 TIMESTAMP PUSH1 0x40 MLOAD PUSH2 0x3830 SWAP4 SWAP3 SWAP2 SWAP1 PUSH2 0x4DB5 JUMP JUMPDEST PUSH1 0x40 MLOAD DUP1 SWAP2 SUB SWAP1 LOG1 JUMPDEST POP POP JUMP JUMPDEST PUSH1 0x60 DUP3 SELFBALANCE LT ISZERO PUSH2 0x3882 JUMPI PUSH1 0x40 MLOAD PUSH32 0x8C379A000000000000000000000000000000000000000000000000000000000 DUP2 MSTORE PUSH1 0x4 ADD PUSH2 0x3879 SWAP1 PUSH2 0x4E5A JUMP JUMPDEST PUSH1 0x40 MLOAD DUP1 SWAP2 SUB SWAP1 REVERT JUMPDEST PUSH0 DUP1 DUP7 PUSH20 0xFFFFFFFFFFFFFFFFFFFFFFFFFFFFFFFFFFFFFFFF AND DUP6 DUP8 PUSH1 0x40 MLOAD PUSH2 0x38AA SWAP2 SWAP1 PUSH2 0x43ED JUMP JUMPDEST PUSH0 PUSH1 0x40 MLOAD DUP1 DUP4 SUB DUP2 DUP6 DUP8 GAS CALL SWAP3 POP POP POP RETURNDATASIZE DUP1 PUSH0 DUP2 EQ PUSH2 0x38E4 JUMPI PUSH1 0x40 MLOAD SWAP2 POP PUSH1 0x1F NOT PUSH1 0x3F RETURNDATASIZE ADD AND DUP3 ADD PUSH1 0x40 MSTORE RETURNDATASIZE DUP3 MSTORE RETURNDATASIZE PUSH0 PUSH1 0x20 DUP5 ADD RETURNDATACOPY PUSH2 0x38E9 JUMP JUMPDEST PUSH1 0x60 SWAP2 POP JUMPDEST POP SWAP2 POP SWAP2 POP PUSH2 0x38FA DUP8 DUP4 DUP4 DUP8 PUSH2 0x3906 JUMP JUMPDEST SWAP3 POP POP POP SWAP5 SWAP4 POP POP POP POP JUMP JUMPDEST PUSH1 0x60 DUP4 ISZERO PUSH2 0x3967 JUMPI PUSH0 DUP4 MLOAD SUB PUSH2 0x395F JUMPI PUSH2 0x391F DUP6 PUSH2 0x397A JUMP JUMPDEST PUSH2 0x395E JUMPI PUSH1 0x40 MLOAD PUSH32 0x8C379A000000000000000000000000000000000000000000000000000000000 DUP2 MSTORE PUSH1 0x4 ADD PUSH2 0x3955 SWAP1 PUSH2 0x4EC2 JUMP JUMPDEST PUSH1 0x40 MLOAD DUP1 SWAP2 SUB SWAP1 REVERT JUMPDEST JUMPDEST DUP3 SWAP1 POP PUSH2 0x3972 JUMP JUMPDEST PUSH2 0x3971 DUP4 DUP4 PUSH2 0x399C JUMP JUMPDEST JUMPDEST SWAP5 SWAP4 POP POP POP POP JUMP JUMPDEST PUSH0 DUP1 DUP3 PUSH20 0xFFFFFFFFFFFFFFFFFFFFFFFFFFFFFFFFFFFFFFFF AND EXTCODESIZE GT SWAP1 POP SWAP2 SWAP1 POP JUMP JUMPDEST PUSH0 DUP3 MLOAD GT ISZERO PUSH2 0x39AE JUMPI DUP2 MLOAD DUP1 DUP4 PUSH1 0x20 ADD REVERT JUMPDEST DUP1 PUSH1 0x40 MLOAD PUSH32 0x8C379A000000000000000000000000000000000000000000000000000000000 DUP2 MSTORE PUSH1 0x4 ADD PUSH2 0x39E2 SWAP2 SWAP1 PUSH2 0x3AA6 JUMP JUMPDEST PUSH1 0x40 MLOAD DUP1 SWAP2 SUB SWAP1 REVERT JUMPDEST PUSH0 DUP2 SWAP1 POP SWAP2 SWAP1 POP JUMP JUMPDEST PUSH2 0x39FD DUP2 PUSH2 0x39EB JUMP JUMPDEST DUP3 MSTORE POP POP JUMP JUMPDEST PUSH0 PUSH1 0x20 DUP3 ADD SWAP1 POP PUSH2 0x3A16 PUSH0 DUP4 ADD DUP5 PUSH2 0x39F4 JUMP JUMPDEST SWAP3 SWAP2 POP POP JUMP JUMPDEST PUSH0 DUP2 MLOAD SWAP1 POP SWAP2 SWAP1 POP JUMP JUMPDEST PUSH0 DUP3 DUP3 MSTORE PUSH1 0x20 DUP3 ADD SWAP1 POP SWAP3 SWAP2 POP POP JUMP JUMPDEST PUSH0 JUMPDEST DUP4 DUP2 LT ISZERO PUSH2 0x3A53 JUMPI DUP1 DUP3 ADD MLOAD DUP2 DUP5 ADD MSTORE PUSH1 0x20 DUP2 ADD SWAP1 POP PUSH2 0x3A38 JUMP JUMPDEST PUSH0 DUP5 DUP5 ADD MSTORE POP POP POP POP JUMP JUMPDEST PUSH0 PUSH1 0x1F NOT PUSH1 0x1F DUP4 ADD AND SWAP1 POP SWAP2 SWAP1 POP JUMP JUMPDEST PUSH0 PUSH2 0x3A78 DUP3 PUSH2 0x3A1C JUMP JUMPDEST PUSH2 0x3A82 DUP2 DUP6 PUSH2 0x3A26 JUMP JUMPDEST SWAP4 POP PUSH2 0x3A92 DUP2 DUP6 PUSH1 0x20 DUP7 ADD PUSH2 0x3A36 JUMP JUMPDEST PUSH2 0x3A9B DUP2 PUSH2 0x3A5E JUMP JUMPDEST DUP5 ADD SWAP2 POP POP SWAP3 SWAP2 POP POP JUMP JUMPDEST PUSH0 PUSH1 0x20 DUP3 ADD SWAP1 POP DUP2 DUP2 SUB PUSH0 DUP4 ADD MSTORE PUSH2 0x3ABE DUP2 DUP5 PUSH2 0x3A6E JUMP JUMPDEST SWAP1 POP SWAP3 SWAP2 POP POP JUMP JUMPDEST PUSH0 DUP1 REVERT JUMPDEST PUSH0 PUSH20 0xFFFFFFFFFFFFFFFFFFFFFFFFFFFFFFFFFFFFFFFF DUP3 AND SWAP1 POP SWAP2 SWAP1 POP JUMP JUMPDEST PUSH0 PUSH2 0x3AF3 DUP3 PUSH2 0x3ACA JUMP JUMPDEST SWAP1 POP SWAP2 SWAP1 POP JUMP JUMPDEST PUSH2 0x3B03 DUP2 PUSH2 0x3AE9 JUMP JUMPDEST DUP2 EQ PUSH2 0x3B0D JUMPI PUSH0 DUP1 REVERT JUMPDEST POP JUMP JUMPDEST PUSH0 DUP2 CALLDATALOAD SWAP1 POP PUSH2 0x3B1E DUP2 PUSH2 0x3AFA JUMP JUMPDEST SWAP3 SWAP2 POP POP JUMP JUMPDEST PUSH2 0x3B2D DUP2 PUSH2 0x39EB JUMP JUMPDEST DUP2 EQ PUSH2 0x3B37 JUMPI PUSH0 DUP1 REVERT JUMPDEST POP JUMP JUMPDEST PUSH0 DUP2 CALLDATALOAD SWAP1 POP PUSH2 0x3B48 DUP2 PUSH2 0x3B24 JUMP JUMPDEST SWAP3 SWAP2 POP POP JUMP JUMPDEST PUSH0 DUP1 PUSH1 0x40 DUP4 DUP6 SUB SLT ISZERO PUSH2 0x3B64 JUMPI PUSH2 0x3B63 PUSH2 0x3AC6 JUMP JUMPDEST JUMPDEST PUSH0 PUSH2 0x3B71 DUP6 DUP3 DUP7 ADD PUSH2 0x3B10 JUMP JUMPDEST SWAP3 POP POP PUSH1 0x20 PUSH2 0x3B82 DUP6 DUP3 DUP7 ADD PUSH2 0x3B3A JUMP JUMPDEST SWAP2 POP POP SWAP3 POP SWAP3 SWAP1 POP JUMP JUMPDEST PUSH0 DUP2 ISZERO ISZERO SWAP1 POP SWAP2 SWAP1 POP JUMP JUMPDEST PUSH2 0x3BA0 DUP2 PUSH2 0x3B8C JUMP JUMPDEST DUP3 MSTORE POP POP JUMP JUMPDEST PUSH0 PUSH1 0x20 DUP3 ADD SWAP1 POP PUSH2 0x3BB9 PUSH0 DUP4 ADD DUP5 PUSH2 0x3B97 JUMP JUMPDEST SWAP3 SWAP2 POP POP JUMP JUMPDEST PUSH0 DUP1 PUSH0 DUP1 PUSH0 DUP1 PUSH0 PUSH1 0xE0 DUP9 DUP11 SUB SLT ISZERO PUSH2 0x3BDA JUMPI PUSH2 0x3BD9 PUSH2 0x3AC6 JUMP JUMPDEST JUMPDEST PUSH0 PUSH2 0x3BE7 DUP11 DUP3 DUP12 ADD PUSH2 0x3B3A JUMP JUMPDEST SWAP8 POP POP PUSH1 0x20 PUSH2 0x3BF8 DUP11 DUP3 DUP12 ADD PUSH2 0x3B3A JUMP JUMPDEST SWAP7 POP POP PUSH1 0x40 PUSH2 0x3C09 DUP11 DUP3 DUP12 ADD PUSH2 0x3B3A JUMP JUMPDEST SWAP6 POP POP PUSH1 0x60 PUSH2 0x3C1A DUP11 DUP3 DUP12 ADD PUSH2 0x3B3A JUMP JUMPDEST SWAP5 POP POP PUSH1 0x80 PUSH2 0x3C2B DUP11 DUP3 DUP12 ADD PUSH2 0x3B3A JUMP JUMPDEST SWAP4 POP POP PUSH1 0xA0 PUSH2 0x3C3C DUP11 DUP3 DUP12 ADD PUSH2 0x3B3A JUMP JUMPDEST SWAP3 POP POP PUSH1 0xC0 PUSH2 0x3C4D DUP11 DUP3 DUP12 ADD PUSH2 0x3B3A JUMP JUMPDEST SWAP2 POP POP SWAP3 SWAP6 SWAP9 SWAP2 SWAP5 SWAP8 POP SWAP3 SWAP6 POP JUMP JUMPDEST PUSH0 DUP1 PUSH0 DUP1 PUSH0 PUSH1 0xA0 DUP7 DUP9 SUB SLT ISZERO PUSH2 0x3C75 JUMPI PUSH2 0x3C74 PUSH2 0x3AC6 JUMP JUMPDEST JUMPDEST PUSH0 PUSH2 0x3C82 DUP9 DUP3 DUP10 ADD PUSH2 0x3B10 JUMP JUMPDEST SWAP6 POP POP PUSH1 0x20 PUSH2 0x3C93 DUP9 DUP3 DUP10 ADD PUSH2 0x3B10 JUMP JUMPDEST SWAP5 POP POP PUSH1 0x40 PUSH2 0x3CA4 DUP9 DUP3 DUP10 ADD PUSH2 0x3B10 JUMP JUMPDEST SWAP4 POP POP PUSH1 0x60 PUSH2 0x3CB5 DUP9 DUP3 DUP10 ADD PUSH2 0x3B10 JUMP JUMPDEST SWAP3 POP POP PUSH1 0x80 PUSH2 0x3CC6 DUP9 DUP3 DUP10 ADD PUSH2 0x3B10 JUMP JUMPDEST SWAP2 POP POP SWAP3 SWAP6 POP SWAP3 SWAP6 SWAP1 SWAP4 POP JUMP JUMPDEST PUSH0 DUP1 PUSH0 PUSH1 0x60 DUP5 DUP7 SUB SLT ISZERO PUSH2 0x3CEA JUMPI PUSH2 0x3CE9 PUSH2 0x3AC6 JUMP JUMPDEST JUMPDEST PUSH0 PUSH2 0x3CF7 DUP7 DUP3 DUP8 ADD PUSH2 0x3B10 JUMP JUMPDEST SWAP4 POP POP PUSH1 0x20 PUSH2 0x3D08 DUP7 DUP3 DUP8 ADD PUSH2 0x3B10 JUMP JUMPDEST SWAP3 POP POP PUSH1 0x40 PUSH2 0x3D19 DUP7 DUP3 DUP8 ADD PUSH2 0x3B3A JUMP JUMPDEST SWAP2 POP POP SWAP3 POP SWAP3 POP SWAP3 JUMP JUMPDEST PUSH0 DUP2 SWAP1 POP SWAP2 SWAP1 POP JUMP JUMPDEST PUSH0 PUSH2 0x3D46 PUSH2 0x3D41 PUSH2 0x3D3C DUP5 PUSH2 0x3ACA JUMP JUMPDEST PUSH2 0x3D23 JUMP JUMPDEST PUSH2 0x3ACA JUMP JUMPDEST SWAP1 POP SWAP2 SWAP1 POP JUMP JUMPDEST PUSH0 PUSH2 0x3D57 DUP3 PUSH2 0x3D2C JUMP JUMPDEST SWAP1 POP SWAP2 SWAP1 POP JUMP JUMPDEST PUSH0 PUSH2 0x3D68 DUP3 PUSH2 0x3D4D JUMP JUMPDEST SWAP1 POP SWAP2 SWAP1 POP JUMP JUMPDEST PUSH2 0x3D78 DUP2 PUSH2 0x3D5E JUMP JUMPDEST DUP3 MSTORE POP POP JUMP JUMPDEST PUSH0 PUSH1 0x20 DUP3 ADD SWAP1 POP PUSH2 0x3D91 PUSH0 DUP4 ADD DUP5 PUSH2 0x3D6F JUMP JUMPDEST SWAP3 SWAP2 POP POP JUMP JUMPDEST PUSH0 PUSH1 0xFF DUP3 AND SWAP1 POP SWAP2 SWAP1 POP JUMP JUMPDEST PUSH2 0x3DAC DUP2 PUSH2 0x3D97 JUMP JUMPDEST DUP3 MSTORE POP POP JUMP JUMPDEST PUSH0 PUSH1 0x20 DUP3 ADD SWAP1 POP PUSH2 0x3DC5 PUSH0 DUP4 ADD DUP5 PUSH2 0x3DA3 JUMP JUMPDEST SWAP3 SWAP2 POP POP JUMP JUMPDEST PUSH0 PUSH1 0x20 DUP3 DUP5 SUB SLT ISZERO PUSH2 0x3DE0 JUMPI PUSH2 0x3DDF PUSH2 0x3AC6 JUMP JUMPDEST JUMPDEST PUSH0 PUSH2 0x3DED DUP5 DUP3 DUP6 ADD PUSH2 0x3B10 JUMP JUMPDEST SWAP2 POP POP SWAP3 SWAP2 POP POP JUMP JUMPDEST PUSH2 0x3DFF DUP2 PUSH2 0x3B8C JUMP JUMPDEST DUP2 EQ PUSH2 0x3E09 JUMPI PUSH0 DUP1 REVERT JUMPDEST POP JUMP JUMPDEST PUSH0 DUP2 CALLDATALOAD SWAP1 POP PUSH2 0x3E1A DUP2 PUSH2 0x3DF6 JUMP JUMPDEST SWAP3 SWAP2 POP POP JUMP JUMPDEST PUSH0 DUP1 PUSH1 0x40 DUP4 DUP6 SUB SLT ISZERO PUSH2 0x3E36 JUMPI PUSH2 0x3E35 PUSH2 0x3AC6 JUMP JUMPDEST JUMPDEST PUSH0 PUSH2 0x3E43 DUP6 DUP3 DUP7 ADD PUSH2 0x3B10 JUMP JUMPDEST SWAP3 POP POP PUSH1 0x20 PUSH2 0x3E54 DUP6 DUP3 DUP7 ADD PUSH2 0x3E0C JUMP JUMPDEST SWAP2 POP POP SWAP3 POP SWAP3 SWAP1 POP JUMP JUMPDEST PUSH0 PUSH2 0x3E68 DUP3 PUSH2 0x3D4D JUMP JUMPDEST SWAP1 POP SWAP2 SWAP1 POP JUMP JUMPDEST PUSH2 0x3E78 DUP2 PUSH2 0x3E5E JUMP JUMPDEST DUP3 MSTORE POP POP JUMP JUMPDEST PUSH0 PUSH1 0x20 DUP3 ADD SWAP1 POP PUSH2 0x3E91 PUSH0 DUP4 ADD DUP5 PUSH2 0x3E6F JUMP JUMPDEST SWAP3 SWAP2 POP POP JUMP JUMPDEST PUSH2 0x3EA0 DUP2 PUSH2 0x3AE9 JUMP JUMPDEST DUP3 MSTORE POP POP JUMP JUMPDEST PUSH0 PUSH1 0x20 DUP3 ADD SWAP1 POP PUSH2 0x3EB9 PUSH0 DUP4 ADD DUP5 PUSH2 0x3E97 JUMP JUMPDEST SWAP3 SWAP2 POP POP JUMP JUMPDEST PUSH0 PUSH1 0x20 DUP3 DUP5 SUB SLT ISZERO PUSH2 0x3ED4 JUMPI PUSH2 0x3ED3 PUSH2 0x3AC6 JUMP JUMPDEST JUMPDEST PUSH0 PUSH2 0x3EE1 DUP5 DUP3 DUP6 ADD PUSH2 0x3E0C JUMP JUMPDEST SWAP2 POP POP SWAP3 SWAP2 POP POP JUMP JUMPDEST PUSH0 PUSH1 0x20 DUP3 DUP5 SUB SLT ISZERO PUSH2 0x3EFF JUMPI PUSH2 0x3EFE PUSH2 0x3AC6 JUMP JUMPDEST JUMPDEST PUSH0 PUSH2 0x3F0C DUP5 DUP3 DUP6 ADD PUSH2 0x3B3A JUMP JUMPDEST SWAP2 POP POP SWAP3 SWAP2 POP POP JUMP JUMPDEST PUSH0 DUP1 PUSH1 0x40 DUP4 DUP6 SUB SLT ISZERO PUSH2 0x3F2B JUMPI PUSH2 0x3F2A PUSH2 0x3AC6 JUMP JUMPDEST JUMPDEST PUSH0 PUSH2 0x3F38 DUP6 DUP3 DUP7 ADD PUSH2 0x3B10 JUMP JUMPDEST SWAP3 POP POP PUSH1 0x20 PUSH2 0x3F49 DUP6 DUP3 DUP7 ADD PUSH2 0x3B10 JUMP JUMPDEST SWAP2 POP POP SWAP3 POP SWAP3 SWAP1 POP JUMP JUMPDEST PUSH32 0x416C7265616479206C61756E6368656400000000000000000000000000000000 PUSH0 DUP3 ADD MSTORE POP JUMP JUMPDEST PUSH0 PUSH2 0x3F87 PUSH1 0x10 DUP4 PUSH2 0x3A26 JUMP JUMPDEST SWAP2 POP PUSH2 0x3F92 DUP3 PUSH2 0x3F53 JUMP JUMPDEST PUSH1 0x20 DUP3 ADD SWAP1 POP SWAP2 SWAP1 POP JUMP JUMPDEST PUSH0 PUSH1 0x20 DUP3 ADD SWAP1 POP DUP2 DUP2 SUB PUSH0 DUP4 ADD MSTORE PUSH2 0x3FB4 DUP2 PUSH2 0x3F7B JUMP JUMPDEST SWAP1 POP SWAP2 SWAP1 POP JUMP JUMPDEST PUSH32 0x4E487B7100000000000000000000000000000000000000000000000000000000 PUSH0 MSTORE PUSH1 0x22 PUSH1 0x4 MSTORE PUSH1 0x24 PUSH0 REVERT JUMPDEST PUSH0 PUSH1 0x2 DUP3 DIV SWAP1 POP PUSH1 0x1 DUP3 AND DUP1 PUSH2 0x3FFF JUMPI PUSH1 0x7F DUP3 AND SWAP2 POP JUMPDEST PUSH1 0x20 DUP3 LT DUP2 SUB PUSH2 0x4012 JUMPI PUSH2 0x4011 PUSH2 0x3FBB JUMP JUMPDEST JUMPDEST POP SWAP2 SWAP1 POP JUMP JUMPDEST PUSH32 0x4E487B7100000000000000000000000000000000000000000000000000000000 PUSH0 MSTORE PUSH1 0x11 PUSH1 0x4 MSTORE PUSH1 0x24 PUSH0 REVERT JUMPDEST PUSH0 PUSH2 0x404F DUP3 PUSH2 0x39EB JUMP JUMPDEST SWAP2 POP PUSH2 0x405A DUP4 PUSH2 0x39EB JUMP JUMPDEST SWAP3 POP DUP3 DUP3 ADD SWAP1 POP DUP1 DUP3 GT ISZERO PUSH2 0x4072 JUMPI PUSH2 0x4071 PUSH2 0x4018 JUMP JUMPDEST JUMPDEST SWAP3 SWAP2 POP POP JUMP JUMPDEST PUSH0 PUSH2 0x4082 DUP3 PUSH2 0x39EB JUMP JUMPDEST SWAP2 POP PUSH2 0x408D DUP4 PUSH2 0x39EB JUMP JUMPDEST SWAP3 POP DUP3 DUP3 SUB SWAP1 POP DUP2 DUP2 GT ISZERO PUSH2 0x40A5 JUMPI PUSH2 0x40A4 PUSH2 0x4018 JUMP JUMPDEST JUMPDEST SWAP3 SWAP2 POP POP JUMP JUMPDEST PUSH0 DUP2 MLOAD SWAP1 POP PUSH2 0x40B9 DUP2 PUSH2 0x3B24 JUMP JUMPDEST SWAP3 SWAP2 POP POP JUMP JUMPDEST PUSH0 PUSH1 0x20 DUP3 DUP5 SUB SLT ISZERO PUSH2 0x40D4 JUMPI PUSH2 0x40D3 PUSH2 0x3AC6 JUMP JUMPDEST JUMPDEST PUSH0 PUSH2 0x40E1 DUP5 DUP3 DUP6 ADD PUSH2 0x40AB JUMP JUMPDEST SWAP2 POP POP SWAP3 SWAP2 POP POP JUMP JUMPDEST PUSH0 PUSH1 0x40 DUP3 ADD SWAP1 POP PUSH2 0x40FD PUSH0 DUP4 ADD DUP6 PUSH2 0x3E97 JUMP JUMPDEST PUSH2 0x410A PUSH1 0x20 DUP4 ADD DUP5 PUSH2 0x39F4 JUMP JUMPDEST SWAP4 SWAP3 POP POP POP JUMP JUMPDEST PUSH0 DUP2 MLOAD SWAP1 POP PUSH2 0x411F DUP2 PUSH2 0x3DF6 JUMP JUMPDEST SWAP3 SWAP2 POP POP JUMP JUMPDEST PUSH0 PUSH1 0x20 DUP3 DUP5 SUB SLT ISZERO PUSH2 0x413A JUMPI PUSH2 0x4139 PUSH2 0x3AC6 JUMP JUMPDEST JUMPDEST PUSH0 PUSH2 0x4147 DUP5 DUP3 DUP6 ADD PUSH2 0x4111 JUMP JUMPDEST SWAP2 POP POP SWAP3 SWAP2 POP POP JUMP JUMPDEST PUSH32 0x416C726561647920696E697469616C697A656400000000000000000000000000 PUSH0 DUP3 ADD MSTORE POP JUMP JUMPDEST PUSH0 PUSH2 0x4184 PUSH1 0x13 DUP4 PUSH2 0x3A26 JUMP JUMPDEST SWAP2 POP PUSH2 0x418F DUP3 PUSH2 0x4150 JUMP JUMPDEST PUSH1 0x20 DUP3 ADD SWAP1 POP SWAP2 SWAP1 POP JUMP JUMPDEST PUSH0 PUSH1 0x20 DUP3 ADD SWAP1 POP DUP2 DUP2 SUB PUSH0 DUP4 ADD MSTORE PUSH2 0x41B1 DUP2 PUSH2 0x4178 JUMP JUMPDEST SWAP1 POP SWAP2 SWAP1 POP JUMP JUMPDEST PUSH0 PUSH1 0x40 DUP3 ADD SWAP1 POP PUSH2 0x41CB PUSH0 DUP4 ADD DUP6 PUSH2 0x3E97 JUMP JUMPDEST PUSH2 0x41D8 PUSH1 0x20 DUP4 ADD DUP5 PUSH2 0x3E97 JUMP JUMPDEST SWAP4 SWAP3 POP POP POP JUMP JUMPDEST PUSH0 DUP2 MLOAD SWAP1 POP PUSH2 0x41ED DUP2 PUSH2 0x3AFA JUMP JUMPDEST SWAP3 SWAP2 POP POP JUMP JUMPDEST PUSH0 PUSH1 0x20 DUP3 DUP5 SUB SLT ISZERO PUSH2 0x4208 JUMPI PUSH2 0x4207 PUSH2 0x3AC6 JUMP JUMPDEST JUMPDEST PUSH0 PUSH2 0x4215 DUP5 DUP3 DUP6 ADD PUSH2 0x41DF JUMP JUMPDEST SWAP2 POP POP SWAP3 SWAP2 POP POP JUMP JUMPDEST PUSH32 0x45524332303A2064656372656173656420616C6C6F77616E63652062656C6F77 PUSH0 DUP3 ADD MSTORE PUSH32 0x207A65726F000000000000000000000000000000000000000000000000000000 PUSH1 0x20 DUP3 ADD MSTORE POP JUMP JUMPDEST PUSH0 PUSH2 0x4278 PUSH1 0x25 DUP4 PUSH2 0x3A26 JUMP JUMPDEST SWAP2 POP PUSH2 0x4283 DUP3 PUSH2 0x421E JUMP JUMPDEST PUSH1 0x40 DUP3 ADD SWAP1 POP SWAP2 SWAP1 POP JUMP JUMPDEST PUSH0 PUSH1 0x20 DUP3 ADD SWAP1 POP DUP2 DUP2 SUB PUSH0 DUP4 ADD MSTORE PUSH2 0x42A5 DUP2 PUSH2 0x426C JUMP JUMPDEST SWAP1 POP SWAP2 SWAP1 POP JUMP JUMPDEST PUSH32 0x4149534849423A207061697220697320746865207A65726F2061646472657373 PUSH0 DUP3 ADD MSTORE POP JUMP JUMPDEST PUSH0 PUSH2 0x42E0 PUSH1 0x20 DUP4 PUSH2 0x3A26 JUMP JUMPDEST SWAP2 POP PUSH2 0x42EB DUP3 PUSH2 0x42AC JUMP JUMPDEST PUSH1 0x20 DUP3 ADD SWAP1 POP SWAP2 SWAP1 POP JUMP JUMPDEST PUSH0 PUSH1 0x20 DUP3 ADD SWAP1 POP DUP2 DUP2 SUB PUSH0 DUP4 ADD MSTORE PUSH2 0x430D DUP2 PUSH2 0x42D4 JUMP JUMPDEST SWAP1 POP SWAP2 SWAP1 POP JUMP JUMPDEST PUSH32 0x4149534849423A20696E646578206F7574206F6620626F756E64730000000000 PUSH0 DUP3 ADD MSTORE POP JUMP JUMPDEST PUSH0 PUSH2 0x4348 PUSH1 0x1B DUP4 PUSH2 0x3A26 JUMP JUMPDEST SWAP2 POP PUSH2 0x4353 DUP3 PUSH2 0x4314 JUMP JUMPDEST PUSH1 0x20 DUP3 ADD SWAP1 POP SWAP2 SWAP1 POP JUMP JUMPDEST PUSH0 PUSH1 0x20 DUP3 ADD SWAP1 POP DUP2 DUP2 SUB PUSH0 DUP4 ADD MSTORE PUSH2 0x4375 DUP2 PUSH2 0x433C JUMP JUMPDEST SWAP1 POP SWAP2 SWAP1 POP JUMP JUMPDEST PUSH32 0x4E487B7100000000000000000000000000000000000000000000000000000000 PUSH0 MSTORE PUSH1 0x41 PUSH1 0x4 MSTORE PUSH1 0x24 PUSH0 REVERT JUMPDEST PUSH0 DUP2 MLOAD SWAP1 POP SWAP2 SWAP1 POP JUMP JUMPDEST PUSH0 DUP2 SWAP1 POP SWAP3 SWAP2 POP POP JUMP JUMPDEST PUSH0 PUSH2 0x43C7 DUP3 PUSH2 0x43A9 JUMP JUMPDEST PUSH2 0x43D1 DUP2 DUP6 PUSH2 0x43B3 JUMP JUMPDEST SWAP4 POP PUSH2 0x43E1 DUP2 DUP6 PUSH1 0x20 DUP7 ADD PUSH2 0x3A36 JUMP JUMPDEST DUP1 DUP5 ADD SWAP2 POP POP SWAP3 SWAP2 POP POP JUMP JUMPDEST PUSH0 PUSH2 0x43F8 DUP3 DUP5 PUSH2 0x43BD JUMP JUMPDEST SWAP2 POP DUP2 SWAP1 POP SWAP3 SWAP2 POP POP JUMP JUMPDEST PUSH32 0x41495349433A204554485F5452414E534645525F4641494C4544000000000000 PUSH0 DUP3 ADD MSTORE POP JUMP JUMPDEST PUSH0 PUSH2 0x4437 PUSH1 0x1A DUP4 PUSH2 0x3A26 JUMP JUMPDEST SWAP2 POP PUSH2 0x4442 DUP3 PUSH2 0x4403 JUMP JUMPDEST PUSH1 0x20 DUP3 ADD SWAP1 POP SWAP2 SWAP1 POP JUMP JUMPDEST PUSH0 PUSH1 0x20 DUP3 ADD SWAP1 POP DUP2 DUP2 SUB PUSH0 DUP4 ADD MSTORE PUSH2 0x4464 DUP2 PUSH2 0x442B JUMP JUMPDEST SWAP1 POP SWAP2 SWAP1 POP JUMP JUMPDEST PUSH32 0x4F776E61626C653A206E6577206F776E657220697320746865207A65726F2061 PUSH0 DUP3 ADD MSTORE PUSH32 0x6464726573730000000000000000000000000000000000000000000000000000 PUSH1 0x20 DUP3 ADD MSTORE POP JUMP JUMPDEST PUSH0 PUSH2 0x44C5 PUSH1 0x26 DUP4 PUSH2 0x3A26 JUMP JUMPDEST SWAP2 POP PUSH2 0x44D0 DUP3 PUSH2 0x446B JUMP JUMPDEST PUSH1 0x40 DUP3 ADD SWAP1 POP SWAP2 SWAP1 POP JUMP JUMPDEST PUSH0 PUSH1 0x20 DUP3 ADD SWAP1 POP DUP2 DUP2 SUB PUSH0 DUP4 ADD MSTORE PUSH2 0x44F2 DUP2 PUSH2 0x44B9 JUMP JUMPDEST SWAP1 POP SWAP2 SWAP1 POP JUMP JUMPDEST PUSH32 0x4F776E61626C653A2063616C6C6572206973206E6F7420746865206F776E6572 PUSH0 DUP3 ADD MSTORE POP JUMP JUMPDEST PUSH0 PUSH2 0x452D PUSH1 0x20 DUP4 PUSH2 0x3A26 JUMP JUMPDEST SWAP2 POP PUSH2 0x4538 DUP3 PUSH2 0x44F9 JUMP JUMPDEST PUSH1 0x20 DUP3 ADD SWAP1 POP SWAP2 SWAP1 POP JUMP JUMPDEST PUSH0 PUSH1 0x20 DUP3 ADD SWAP1 POP DUP2 DUP2 SUB PUSH0 DUP4 ADD MSTORE PUSH2 0x455A DUP2 PUSH2 0x4521 JUMP JUMPDEST SWAP1 POP SWAP2 SWAP1 POP JUMP JUMPDEST PUSH32 0x45524332303A20617070726F76652066726F6D20746865207A65726F20616464 PUSH0 DUP3 ADD MSTORE PUSH32 0x7265737300000000000000000000000000000000000000000000000000000000 PUSH1 0x20 DUP3 ADD MSTORE POP JUMP JUMPDEST PUSH0 PUSH2 0x45BB PUSH1 0x24 DUP4 PUSH2 0x3A26 JUMP JUMPDEST SWAP2 POP PUSH2 0x45C6 DUP3 PUSH2 0x4561 JUMP JUMPDEST PUSH1 0x40 DUP3 ADD SWAP1 POP SWAP2 SWAP1 POP JUMP JUMPDEST PUSH0 PUSH1 0x20 DUP3 ADD SWAP1 POP DUP2 DUP2 SUB PUSH0 DUP4 ADD MSTORE PUSH2 0x45E8 DUP2 PUSH2 0x45AF JUMP JUMPDEST SWAP1 POP SWAP2 SWAP1 POP JUMP JUMPDEST PUSH32 0x45524332303A20617070726F766520746F20746865207A65726F206164647265 PUSH0 DUP3 ADD MSTORE PUSH32 0x7373000000000000000000000000000000000000000000000000000000000000 PUSH1 0x20 DUP3 ADD MSTORE POP JUMP JUMPDEST PUSH0 PUSH2 0x4649 PUSH1 0x22 DUP4 PUSH2 0x3A26 JUMP JUMPDEST SWAP2 POP PUSH2 0x4654 DUP3 PUSH2 0x45EF JUMP JUMPDEST PUSH1 0x40 DUP3 ADD SWAP1 POP SWAP2 SWAP1 POP JUMP JUMPDEST PUSH0 PUSH1 0x20 DUP3 ADD SWAP1 POP DUP2 DUP2 SUB PUSH0 DUP4 ADD MSTORE PUSH2 0x4676 DUP2 PUSH2 0x463D JUMP JUMPDEST SWAP1 POP SWAP2 SWAP1 POP JUMP JUMPDEST PUSH32 0x45524332303A20696E73756666696369656E7420616C6C6F77616E6365000000 PUSH0 DUP3 ADD MSTORE POP JUMP JUMPDEST PUSH0 PUSH2 0x46B1 PUSH1 0x1D DUP4 PUSH2 0x3A26 JUMP JUMPDEST SWAP2 POP PUSH2 0x46BC DUP3 PUSH2 0x467D JUMP JUMPDEST PUSH1 0x20 DUP3 ADD SWAP1 POP SWAP2 SWAP1 POP JUMP JUMPDEST PUSH0 PUSH1 0x20 DUP3 ADD SWAP1 POP DUP2 DUP2 SUB PUSH0 DUP4 ADD MSTORE PUSH2 0x46DE DUP2 PUSH2 0x46A5 JUMP JUMPDEST SWAP1 POP SWAP2 SWAP1 POP JUMP JUMPDEST PUSH32 0x54726164696E67206E6F74206F70656E20796574000000000000000000000000 PUSH0 DUP3 ADD MSTORE POP JUMP JUMPDEST PUSH0 PUSH2 0x4719 PUSH1 0x14 DUP4 PUSH2 0x3A26 JUMP JUMPDEST SWAP2 POP PUSH2 0x4724 DUP3 PUSH2 0x46E5 JUMP JUMPDEST PUSH1 0x20 DUP3 ADD SWAP1 POP SWAP2 SWAP1 POP JUMP JUMPDEST PUSH0 PUSH1 0x20 DUP3 ADD SWAP1 POP DUP2 DUP2 SUB PUSH0 DUP4 ADD MSTORE PUSH2 0x4746 DUP2 PUSH2 0x470D JUMP JUMPDEST SWAP1 POP SWAP2 SWAP1 POP JUMP JUMPDEST PUSH0 PUSH1 0xC0 DUP3 ADD SWAP1 POP PUSH2 0x4760 PUSH0 DUP4 ADD DUP10 PUSH2 0x3E97 JUMP JUMPDEST PUSH2 0x476D PUSH1 0x20 DUP4 ADD DUP9 PUSH2 0x3E97 JUMP JUMPDEST PUSH2 0x477A PUSH1 0x40 DUP4 ADD DUP8 PUSH2 0x39F4 JUMP JUMPDEST PUSH2 0x4787 PUSH1 0x60 DUP4 ADD DUP7 PUSH2 0x39F4 JUMP JUMPDEST PUSH2 0x4794 PUSH1 0x80 DUP4 ADD DUP6 PUSH2 0x39F4 JUMP JUMPDEST PUSH2 0x47A1 PUSH1 0xA0 DUP4 ADD DUP5 PUSH2 0x39F4 JUMP JUMPDEST SWAP8 SWAP7 POP POP POP POP POP POP POP JUMP JUMPDEST PUSH0 PUSH2 0x47B6 DUP3 PUSH2 0x39EB JUMP JUMPDEST SWAP2 POP PUSH2 0x47C1 DUP4 PUSH2 0x39EB JUMP JUMPDEST SWAP3 POP DUP3 DUP3 MUL PUSH2 0x47CF DUP2 PUSH2 0x39EB JUMP JUMPDEST SWAP2 POP DUP3 DUP3 DIV DUP5 EQ DUP4 ISZERO OR PUSH2 0x47E6 JUMPI PUSH2 0x47E5 PUSH2 0x4018 JUMP JUMPDEST JUMPDEST POP SWAP3 SWAP2 POP POP JUMP JUMPDEST PUSH32 0x4E487B7100000000000000000000000000000000000000000000000000000000 PUSH0 MSTORE PUSH1 0x12 PUSH1 0x4 MSTORE PUSH1 0x24 PUSH0 REVERT JUMPDEST PUSH0 PUSH2 0x4824 DUP3 PUSH2 0x39EB JUMP JUMPDEST SWAP2 POP PUSH2 0x482F DUP4 PUSH2 0x39EB JUMP JUMPDEST SWAP3 POP DUP3 PUSH2 0x483F JUMPI PUSH2 0x483E PUSH2 0x47ED JUMP JUMPDEST JUMPDEST DUP3 DUP3 DIV SWAP1 POP SWAP3 SWAP2 POP POP JUMP JUMPDEST PUSH32 0x4E487B7100000000000000000000000000000000000000000000000000000000 PUSH0 MSTORE PUSH1 0x32 PUSH1 0x4 MSTORE PUSH1 0x24 PUSH0 REVERT JUMPDEST PUSH0 DUP2 SWAP1 POP SWAP2 SWAP1 POP JUMP JUMPDEST PUSH0 PUSH2 0x489A PUSH2 0x4895 PUSH2 0x4890 DUP5 PUSH2 0x4877 JUMP JUMPDEST PUSH2 0x3D23 JUMP JUMPDEST PUSH2 0x39EB JUMP JUMPDEST SWAP1 POP SWAP2 SWAP1 POP JUMP JUMPDEST PUSH2 0x48AA DUP2 PUSH2 0x4880 JUMP JUMPDEST DUP3 MSTORE POP POP JUMP JUMPDEST PUSH0 DUP2 MLOAD SWAP1 POP SWAP2 SWAP1 POP JUMP JUMPDEST PUSH0 DUP3 DUP3 MSTORE PUSH1 0x20 DUP3 ADD SWAP1 POP SWAP3 SWAP2 POP POP JUMP JUMPDEST PUSH0 DUP2 SWAP1 POP PUSH1 0x20 DUP3 ADD SWAP1 POP SWAP2 SWAP1 POP JUMP JUMPDEST PUSH2 0x48E2 DUP2 PUSH2 0x3AE9 JUMP JUMPDEST DUP3 MSTORE POP POP JUMP JUMPDEST PUSH0 PUSH2 0x48F3 DUP4 DUP4 PUSH2 0x48D9 JUMP JUMPDEST PUSH1 0x20 DUP4 ADD SWAP1 POP SWAP3 SWAP2 POP POP JUMP JUMPDEST PUSH0 PUSH1 0x20 DUP3 ADD SWAP1 POP SWAP2 SWAP1 POP JUMP JUMPDEST PUSH0 PUSH2 0x4915 DUP3 PUSH2 0x48B0 JUMP JUMPDEST PUSH2 0x491F DUP2 DUP6 PUSH2 0x48BA JUMP JUMPDEST SWAP4 POP PUSH2 0x492A DUP4 PUSH2 0x48CA JUMP JUMPDEST DUP1 PUSH0 JUMPDEST DUP4 DUP2 LT ISZERO PUSH2 0x495A JUMPI DUP2 MLOAD PUSH2 0x4941 DUP9 DUP3 PUSH2 0x48E8 JUMP JUMPDEST SWAP8 POP PUSH2 0x494C DUP4 PUSH2 0x48FF JUMP JUMPDEST SWAP3 POP POP PUSH1 0x1 DUP2 ADD SWAP1 POP PUSH2 0x492D JUMP JUMPDEST POP DUP6 SWAP4 POP POP POP POP SWAP3 SWAP2 POP POP JUMP JUMPDEST PUSH0 PUSH1 0xC0 DUP3 ADD SWAP1 POP PUSH2 0x497A PUSH0 DUP4 ADD DUP10 PUSH2 0x39F4 JUMP JUMPDEST PUSH2 0x4987 PUSH1 0x20 DUP4 ADD DUP9 PUSH2 0x48A1 JUMP JUMPDEST DUP2 DUP2 SUB PUSH1 0x40 DUP4 ADD MSTORE PUSH2 0x4999 DUP2 DUP8 PUSH2 0x490B JUMP JUMPDEST SWAP1 POP PUSH2 0x49A8 PUSH1 0x60 DUP4 ADD DUP7 PUSH2 0x3E97 JUMP JUMPDEST PUSH2 0x49B5 PUSH1 0x80 DUP4 ADD DUP6 PUSH2 0x3E97 JUMP JUMPDEST PUSH2 0x49C2 PUSH1 0xA0 DUP4 ADD DUP5 PUSH2 0x39F4 JUMP JUMPDEST SWAP8 SWAP7 POP POP POP POP POP POP POP JUMP JUMPDEST PUSH0 PUSH1 0xA0 DUP3 ADD SWAP1 POP PUSH2 0x49E0 PUSH0 DUP4 ADD DUP9 PUSH2 0x39F4 JUMP JUMPDEST PUSH2 0x49ED PUSH1 0x20 DUP4 ADD DUP8 PUSH2 0x48A1 JUMP JUMPDEST DUP2 DUP2 SUB PUSH1 0x40 DUP4 ADD MSTORE PUSH2 0x49FF DUP2 DUP7 PUSH2 0x490B JUMP JUMPDEST SWAP1 POP PUSH2 0x4A0E PUSH1 0x60 DUP4 ADD DUP6 PUSH2 0x3E97 JUMP JUMPDEST PUSH2 0x4A1B PUSH1 0x80 DUP4 ADD DUP5 PUSH2 0x39F4 JUMP JUMPDEST SWAP7 SWAP6 POP POP POP POP POP POP JUMP JUMPDEST PUSH0 PUSH2 0x100 DUP3 ADD SWAP1 POP PUSH2 0x4A39 PUSH0 DUP4 ADD DUP12 PUSH2 0x39F4 JUMP JUMPDEST PUSH2 0x4A46 PUSH1 0x20 DUP4 ADD DUP11 PUSH2 0x39F4 JUMP JUMPDEST PUSH2 0x4A53 PUSH1 0x40 DUP4 ADD DUP10 PUSH2 0x39F4 JUMP JUMPDEST PUSH2 0x4A60 PUSH1 0x60 DUP4 ADD DUP9 PUSH2 0x39F4 JUMP JUMPDEST PUSH2 0x4A6D PUSH1 0x80 DUP4 ADD DUP8 PUSH2 0x39F4 JUMP JUMPDEST PUSH2 0x4A7A PUSH1 0xA0 DUP4 ADD DUP7 PUSH2 0x39F4 JUMP JUMPDEST PUSH2 0x4A87 PUSH1 0xC0 DUP4 ADD DUP6 PUSH2 0x39F4 JUMP JUMPDEST PUSH2 0x4A94 PUSH1 0xE0 DUP4 ADD DUP5 PUSH2 0x39F4 JUMP JUMPDEST SWAP10 SWAP9 POP POP POP POP POP POP POP POP POP JUMP JUMPDEST PUSH32 0x45524332303A207472616E736665722066726F6D20746865207A65726F206164 PUSH0 DUP3 ADD MSTORE PUSH32 0x6472657373000000000000000000000000000000000000000000000000000000 PUSH1 0x20 DUP3 ADD MSTORE POP JUMP JUMPDEST PUSH0 PUSH2 0x4AFB PUSH1 0x25 DUP4 PUSH2 0x3A26 JUMP JUMPDEST SWAP2 POP PUSH2 0x4B06 DUP3 PUSH2 0x4AA1 JUMP JUMPDEST PUSH1 0x40 DUP3 ADD SWAP1 POP SWAP2 SWAP1 POP JUMP JUMPDEST PUSH0 PUSH1 0x20 DUP3 ADD SWAP1 POP DUP2 DUP2 SUB PUSH0 DUP4 ADD MSTORE PUSH2 0x4B28 DUP2 PUSH2 0x4AEF JUMP JUMPDEST SWAP1 POP SWAP2 SWAP1 POP JUMP JUMPDEST PUSH32 0x45524332303A207472616E7366657220746F20746865207A65726F2061646472 PUSH0 DUP3 ADD MSTORE PUSH32 0x6573730000000000000000000000000000000000000000000000000000000000 PUSH1 0x20 DUP3 ADD MSTORE POP JUMP JUMPDEST PUSH0 PUSH2 0x4B89 PUSH1 0x23 DUP4 PUSH2 0x3A26 JUMP JUMPDEST SWAP2 POP PUSH2 0x4B94 DUP3 PUSH2 0x4B2F JUMP JUMPDEST PUSH1 0x40 DUP3 ADD SWAP1 POP SWAP2 SWAP1 POP JUMP JUMPDEST PUSH0 PUSH1 0x20 DUP3 ADD SWAP1 POP DUP2 DUP2 SUB PUSH0 DUP4 ADD MSTORE PUSH2 0x4BB6 DUP2 PUSH2 0x4B7D JUMP JUMPDEST SWAP1 POP SWAP2 SWAP1 POP JUMP JUMPDEST PUSH32 0x45524332303A207472616E7366657220616D6F756E7420657863656564732062 PUSH0 DUP3 ADD MSTORE PUSH32 0x616C616E63650000000000000000000000000000000000000000000000000000 PUSH1 0x20 DUP3 ADD MSTORE POP JUMP JUMPDEST PUSH0 PUSH2 0x4C17 PUSH1 0x26 DUP4 PUSH2 0x3A26 JUMP JUMPDEST SWAP2 POP PUSH2 0x4C22 DUP3 PUSH2 0x4BBD JUMP JUMPDEST PUSH1 0x40 DUP3 ADD SWAP1 POP SWAP2 SWAP1 POP JUMP JUMPDEST PUSH0 PUSH1 0x20 DUP3 ADD SWAP1 POP DUP2 DUP2 SUB PUSH0 DUP4 ADD MSTORE PUSH2 0x4C44 DUP2 PUSH2 0x4C0B JUMP JUMPDEST SWAP1 POP SWAP2 SWAP1 POP JUMP JUMPDEST PUSH32 0x5361666545524332303A204552433230206F7065726174696F6E20646964206E PUSH0 DUP3 ADD MSTORE PUSH32 0x6F74207375636365656400000000000000000000000000000000000000000000 PUSH1 0x20 DUP3 ADD MSTORE POP JUMP JUMPDEST PUSH0 PUSH2 0x4CA5 PUSH1 0x2A DUP4 PUSH2 0x3A26 JUMP JUMPDEST SWAP2 POP PUSH2 0x4CB0 DUP3 PUSH2 0x4C4B JUMP JUMPDEST PUSH1 0x40 DUP3 ADD SWAP1 POP SWAP2 SWAP1 POP JUMP JUMPDEST PUSH0 PUSH1 0x20 DUP3 ADD SWAP1 POP DUP2 DUP2 SUB PUSH0 DUP4 ADD MSTORE PUSH2 0x4CD2 DUP2 PUSH2 0x4C99 JUMP JUMPDEST SWAP1 POP SWAP2 SWAP1 POP JUMP JUMPDEST PUSH32 0x4E487B7100000000000000000000000000000000000000000000000000000000 PUSH0 MSTORE PUSH1 0x31 PUSH1 0x4 MSTORE PUSH1 0x24 PUSH0 REVERT JUMPDEST PUSH0 PUSH1 0xC0 DUP3 ADD SWAP1 POP PUSH2 0x4D19 PUSH0 DUP4 ADD DUP10 PUSH2 0x3E97 JUMP JUMPDEST PUSH2 0x4D26 PUSH1 0x20 DUP4 ADD DUP9 PUSH2 0x39F4 JUMP JUMPDEST PUSH2 0x4D33 PUSH1 0x40 DUP4 ADD DUP8 PUSH2 0x48A1 JUMP JUMPDEST PUSH2 0x4D40 PUSH1 0x60 DUP4 ADD DUP7 PUSH2 0x48A1 JUMP JUMPDEST PUSH2 0x4D4D PUSH1 0x80 DUP4 ADD DUP6 PUSH2 0x3E97 JUMP JUMPDEST PUSH2 0x4D5A PUSH1 0xA0 DUP4 ADD DUP5 PUSH2 0x39F4 JUMP JUMPDEST SWAP8 SWAP7 POP POP POP POP POP POP POP JUMP JUMPDEST PUSH0 DUP1 PUSH0 PUSH1 0x60 DUP5 DUP7 SUB SLT ISZERO PUSH2 0x4D7C JUMPI PUSH2 0x4D7B PUSH2 0x3AC6 JUMP JUMPDEST JUMPDEST PUSH0 PUSH2 0x4D89 DUP7 DUP3 DUP8 ADD PUSH2 0x40AB JUMP JUMPDEST SWAP4 POP POP PUSH1 0x20 PUSH2 0x4D9A DUP7 DUP3 DUP8 ADD PUSH2 0x40AB JUMP JUMPDEST SWAP3 POP POP PUSH1 0x40 PUSH2 0x4DAB DUP7 DUP3 DUP8 ADD PUSH2 0x40AB JUMP JUMPDEST SWAP2 POP POP SWAP3 POP SWAP3 POP SWAP3 JUMP JUMPDEST PUSH0 PUSH1 0x60 DUP3 ADD SWAP1 POP PUSH2 0x4DC8 PUSH0 DUP4 ADD DUP7 PUSH2 0x39F4 JUMP JUMPDEST PUSH2 0x4DD5 PUSH1 0x20 DUP4 ADD DUP6 PUSH2 0x39F4 JUMP JUMPDEST PUSH2 0x4DE2 PUSH1 0x40 DUP4 ADD DUP5 PUSH2 0x39F4 JUMP JUMPDEST SWAP5 SWAP4 POP POP POP POP JUMP JUMPDEST PUSH32 0x416464726573733A20696E73756666696369656E742062616C616E636520666F PUSH0 DUP3 ADD MSTORE PUSH32 0x722063616C6C0000000000000000000000000000000000000000000000000000 PUSH1 0x20 DUP3 ADD MSTORE POP JUMP JUMPDEST PUSH0 PUSH2 0x4E44 PUSH1 0x26 DUP4 PUSH2 0x3A26 JUMP JUMPDEST SWAP2 POP PUSH2 0x4E4F DUP3 PUSH2 0x4DEA JUMP JUMPDEST PUSH1 0x40 DUP3 ADD SWAP1 POP SWAP2 SWAP1 POP JUMP JUMPDEST PUSH0 PUSH1 0x20 DUP3 ADD SWAP1 POP DUP2 DUP2 SUB PUSH0 DUP4 ADD MSTORE PUSH2 0x4E71 DUP2 PUSH2 0x4E38 JUMP JUMPDEST SWAP1 POP SWAP2 SWAP1 POP JUMP JUMPDEST PUSH32 0x416464726573733A2063616C6C20746F206E6F6E2D636F6E7472616374000000 PUSH0 DUP3 ADD MSTORE POP JUMP JUMPDEST PUSH0 PUSH2 0x4EAC PUSH1 0x1D DUP4 PUSH2 0x3A26 JUMP JUMPDEST SWAP2 POP PUSH2 0x4EB7 DUP3 PUSH2 0x4E78 JUMP JUMPDEST PUSH1 0x20 DUP3 ADD SWAP1 POP SWAP2 SWAP1 POP JUMP JUMPDEST PUSH0 PUSH1 0x20 DUP3 ADD SWAP1 POP DUP2 DUP2 SUB PUSH0 DUP4 ADD MSTORE PUSH2 0x4ED9 DUP2 PUSH2 0x4EA0 JUMP JUMPDEST SWAP1 POP SWAP2 SWAP1 POP JUMP INVALID LOG2 PUSH5 0x6970667358 0x22 SLT KECCAK256 DUP8 0xC6 0x5D STATICCALL 0xAD 0xBD 0xD4 TIMESTAMP GASLIMIT SWAP16 0xF9 0xE9 SWAP8 0xC0 DUP9 SWAP8 GASLIMIT 0xC7 PUSH28 0xD834C263B17B6B92387D4AF42D64736F6C6343000814003300000000 "
		},
		"gasEstimates": {
			"creation": {
				"codeDepositCost": "4049200",
				"executionCost": "infinite",
				"totalCost": "infinite"
			},
			"external": {
				"addLiquidityEnabled()": "2608",
				"addPair(address)": "infinite",
				"allowance(address,address)": "infinite",
				"approve(address,uint256)": "infinite",
				"backToken()": "infinite",
				"balanceOf(address)": "2896",
				"bonusFeeBuy()": "2493",
				"bonusFeeSell()": "2514",
				"burnFeeBuy()": "2516",
				"burnFeeSell()": "2515",
				"canAddLiquidityBeforeLaunch(address)": "2966",
				"clearStuckBalance()": "infinite",
				"clearStuckEthBalance()": "infinite",
				"decimals()": "429",
				"decreaseAllowance(address,uint256)": "infinite",
				"delPair(address)": "infinite",
				"devFeeBuy()": "2492",
				"devFeeSell()": "2494",
				"doSwapBack()": "infinite",
				"feeDenominator()": "2538",
				"getCirculatingSupply()": "infinite",
				"getMinterLength()": "2648",
				"getPair(uint256)": "infinite",
				"gov1Fee()": "2558",
				"gov1FeeBuy()": "2514",
				"gov1FeeSell()": "2536",
				"gov2Fee()": "2517",
				"gov2FeeBuy()": "2491",
				"gov2FeeSell()": "2536",
				"inSwap()": "2606",
				"increaseAllowance(address,uint256)": "infinite",
				"initializePair()": "infinite",
				"isFeeExempt(address)": "2923",
				"isPair(address)": "infinite",
				"jackpotFeeBuy()": "2537",
				"jackpotFeeSell()": "2558",
				"jackpotWallet()": "infinite",
				"launch()": "48822",
				"launchedAt()": "2537",
				"launchedAtTimestamp()": "2536",
				"liquidityFeeBuy()": "2494",
				"liquidityFeeSell()": "2560",
				"name()": "infinite",
				"owner()": "2605",
				"renounceOwnership()": "30501",
				"rescueToken(address)": "infinite",
				"setAddLiquidityEnabled(bool)": "27052",
				"setBuyFees(uint256,uint256,uint256,uint256,uint256,uint256,uint256)": "infinite",
				"setFeeReceivers(address,address,address,address,address)": "infinite",
				"setIsFeeExempt(address,bool)": "27331",
				"setSellFees(uint256,uint256,uint256,uint256,uint256,uint256,uint256)": "infinite",
				"setSwapBackSettings(bool)": "27053",
				"swapEnabled()": "2651",
				"symbol()": "infinite",
				"totalFeeBuy()": "2557",
				"totalFeeSell()": "2493",
				"totalSupply()": "2567",
				"transfer(address,uint256)": "infinite",
				"transferFrom(address,address,uint256)": "infinite",
				"transferOwnership(address)": "30841"
			},
			"internal": {
				"_addLiquidity(uint256,uint256)": "infinite",
				"_doAddLp()": "infinite",
				"_dogTransfer(address,address,uint256)": "infinite",
				"buyFees()": "193721",
				"launched()": "2131",
				"sellFees()": "193721",
				"shouldSwapBack()": "infinite",
				"swapBack()": "infinite",
				"takeFee(address,uint256)": "infinite"
			}
		},
		"methodIdentifiers": {
			"addLiquidityEnabled()": "86013940",
			"addPair(address)": "c2b7bbb6",
			"allowance(address,address)": "dd62ed3e",
			"approve(address,uint256)": "095ea7b3",
			"backToken()": "861faf5f",
			"balanceOf(address)": "70a08231",
			"bonusFeeBuy()": "86c8782f",
			"bonusFeeSell()": "ace18801",
			"burnFeeBuy()": "15674e8e",
			"burnFeeSell()": "234a2daa",
			"canAddLiquidityBeforeLaunch(address)": "8072250b",
			"clearStuckBalance()": "364333f4",
			"clearStuckEthBalance()": "bfa382b5",
			"decimals()": "313ce567",
			"decreaseAllowance(address,uint256)": "a457c2d7",
			"delPair(address)": "a5bc5085",
			"devFeeBuy()": "cdba31fd",
			"devFeeSell()": "12835c5e",
			"doSwapBack()": "8fbbd750",
			"feeDenominator()": "180b0d7e",
			"getCirculatingSupply()": "2b112e49",
			"getMinterLength()": "0323aac7",
			"getPair(uint256)": "bdf391cc",
			"gov1Fee()": "cb806e07",
			"gov1FeeBuy()": "70c8810e",
			"gov1FeeSell()": "dbd6c489",
			"gov2Fee()": "017e24e1",
			"gov2FeeBuy()": "e1e5a66d",
			"gov2FeeSell()": "b6309f68",
			"inSwap()": "d8306786",
			"increaseAllowance(address,uint256)": "39509351",
			"initializePair()": "4fab9e4c",
			"isFeeExempt(address)": "3f4218e0",
			"isPair(address)": "e5e31b13",
			"jackpotFeeBuy()": "6c470595",
			"jackpotFeeSell()": "b7eed4c4",
			"jackpotWallet()": "2d2f244b",
			"launch()": "01339c21",
			"launchedAt()": "bf56b371",
			"launchedAtTimestamp()": "c6d2577d",
			"liquidityFeeBuy()": "82d20116",
			"liquidityFeeSell()": "1107b3a5",
			"name()": "06fdde03",
			"owner()": "8da5cb5b",
			"renounceOwnership()": "715018a6",
			"rescueToken(address)": "4460d3cf",
			"setAddLiquidityEnabled(bool)": "aac46c95",
			"setBuyFees(uint256,uint256,uint256,uint256,uint256,uint256,uint256)": "0ca5979b",
			"setFeeReceivers(address,address,address,address,address)": "18abb635",
			"setIsFeeExempt(address,bool)": "658d4b7f",
			"setSellFees(uint256,uint256,uint256,uint256,uint256,uint256,uint256)": "9272293c",
			"setSwapBackSettings(bool)": "b8c61130",
			"swapEnabled()": "6ddd1713",
			"symbol()": "95d89b41",
			"totalFeeBuy()": "fb5f27fb",
			"totalFeeSell()": "53148416",
			"totalSupply()": "18160ddd",
			"transfer(address,uint256)": "a9059cbb",
			"transferFrom(address,address,uint256)": "23b872dd",
			"transferOwnership(address)": "f2fde38b"
		}
	},
	"abi": [
		{
			"inputs": [
				{
					"internalType": "contract IERC20",
					"name": "_backToken",
					"type": "address"
				},
				{
					"internalType": "address",
					"name": "_factory",
					"type": "address"
				},
				{
					"internalType": "address",
					"name": "_swapRouter",
					"type": "address"
				},
				{
					"internalType": "address",
					"name": "_weth",
					"type": "address"
				}
			],
			"stateMutability": "nonpayable",
			"type": "constructor"
		},
		{
			"anonymous": false,
			"inputs": [
				{
					"indexed": false,
					"internalType": "uint256",
					"name": "tokenAmount",
					"type": "uint256"
				},
				{
					"indexed": false,
					"internalType": "uint256",
					"name": "ethAmount",
					"type": "uint256"
				},
				{
					"indexed": false,
					"internalType": "uint256",
					"name": "timestamp",
					"type": "uint256"
				}
			],
			"name": "AddLiquidity",
			"type": "event"
		},
		{
			"anonymous": false,
			"inputs": [
				{
					"indexed": true,
					"internalType": "address",
					"name": "owner",
					"type": "address"
				},
				{
					"indexed": true,
					"internalType": "address",
					"name": "spender",
					"type": "address"
				},
				{
					"indexed": false,
					"internalType": "uint256",
					"name": "value",
					"type": "uint256"
				}
			],
			"name": "Approval",
			"type": "event"
		},
		{
			"anonymous": false,
			"inputs": [
				{
					"indexed": true,
					"internalType": "address",
					"name": "previousOwner",
					"type": "address"
				},
				{
					"indexed": true,
					"internalType": "address",
					"name": "newOwner",
					"type": "address"
				}
			],
			"name": "OwnershipTransferred",
			"type": "event"
		},
		{
			"anonymous": false,
			"inputs": [
				{
					"indexed": false,
					"internalType": "uint256",
					"name": "burn",
					"type": "uint256"
				},
				{
					"indexed": false,
					"internalType": "uint256",
					"name": "gov1",
					"type": "uint256"
				},
				{
					"indexed": false,
					"internalType": "uint256",
					"name": "gov2",
					"type": "uint256"
				},
				{
					"indexed": false,
					"internalType": "uint256",
					"name": "liquidity",
					"type": "uint256"
				},
				{
					"indexed": false,
					"internalType": "uint256",
					"name": "jackpot",
					"type": "uint256"
				},
				{
					"indexed": false,
					"internalType": "uint256",
					"name": "bonus",
					"type": "uint256"
				},
				{
					"indexed": false,
					"internalType": "uint256",
					"name": "dev",
					"type": "uint256"
				},
				{
					"indexed": false,
					"internalType": "uint256",
					"name": "timestamp",
					"type": "uint256"
				}
			],
			"name": "SwapBack",
			"type": "event"
		},
		{
			"anonymous": false,
			"inputs": [
				{
					"indexed": false,
					"internalType": "address",
					"name": "user",
					"type": "address"
				},
				{
					"indexed": false,
					"internalType": "address",
					"name": "pair",
					"type": "address"
				},
				{
					"indexed": false,
					"internalType": "uint256",
					"name": "amount",
					"type": "uint256"
				},
				{
					"indexed": false,
					"internalType": "uint256",
					"name": "side",
					"type": "uint256"
				},
				{
					"indexed": false,
					"internalType": "uint256",
					"name": "circulatingSupply",
					"type": "uint256"
				},
				{
					"indexed": false,
					"internalType": "uint256",
					"name": "timestamp",
					"type": "uint256"
				}
			],
			"name": "Trade",
			"type": "event"
		},
		{
			"anonymous": false,
			"inputs": [
				{
					"indexed": true,
					"internalType": "address",
					"name": "from",
					"type": "address"
				},
				{
					"indexed": true,
					"internalType": "address",
					"name": "to",
					"type": "address"
				},
				{
					"indexed": false,
					"internalType": "uint256",
					"name": "value",
					"type": "uint256"
				}
			],
			"name": "Transfer",
			"type": "event"
		},
		{
			"inputs": [],
			"name": "addLiquidityEnabled",
			"outputs": [
				{
					"internalType": "bool",
					"name": "",
					"type": "bool"
				}
			],
			"stateMutability": "view",
			"type": "function"
		},
		{
			"inputs": [
				{
					"internalType": "address",
					"name": "pair",
					"type": "address"
				}
			],
			"name": "addPair",
			"outputs": [
				{
					"internalType": "bool",
					"name": "",
					"type": "bool"
				}
			],
			"stateMutability": "nonpayable",
			"type": "function"
		},
		{
			"inputs": [
				{
					"internalType": "address",
					"name": "owner",
					"type": "address"
				},
				{
					"internalType": "address",
					"name": "spender",
					"type": "address"
				}
			],
			"name": "allowance",
			"outputs": [
				{
					"internalType": "uint256",
					"name": "",
					"type": "uint256"
				}
			],
			"stateMutability": "view",
			"type": "function"
		},
		{
			"inputs": [
				{
					"internalType": "address",
					"name": "spender",
					"type": "address"
				},
				{
					"internalType": "uint256",
					"name": "amount",
					"type": "uint256"
				}
			],
			"name": "approve",
			"outputs": [
				{
					"internalType": "bool",
					"name": "",
					"type": "bool"
				}
			],
			"stateMutability": "nonpayable",
			"type": "function"
		},
		{
			"inputs": [],
			"name": "backToken",
			"outputs": [
				{
					"internalType": "contract IERC20",
					"name": "",
					"type": "address"
				}
			],
			"stateMutability": "view",
			"type": "function"
		},
		{
			"inputs": [
				{
					"internalType": "address",
					"name": "account",
					"type": "address"
				}
			],
			"name": "balanceOf",
			"outputs": [
				{
					"internalType": "uint256",
					"name": "",
					"type": "uint256"
				}
			],
			"stateMutability": "view",
			"type": "function"
		},
		{
			"inputs": [],
			"name": "bonusFeeBuy",
			"outputs": [
				{
					"internalType": "uint256",
					"name": "",
					"type": "uint256"
				}
			],
			"stateMutability": "view",
			"type": "function"
		},
		{
			"inputs": [],
			"name": "bonusFeeSell",
			"outputs": [
				{
					"internalType": "uint256",
					"name": "",
					"type": "uint256"
				}
			],
			"stateMutability": "view",
			"type": "function"
		},
		{
			"inputs": [],
			"name": "burnFeeBuy",
			"outputs": [
				{
					"internalType": "uint256",
					"name": "",
					"type": "uint256"
				}
			],
			"stateMutability": "view",
			"type": "function"
		},
		{
			"inputs": [],
			"name": "burnFeeSell",
			"outputs": [
				{
					"internalType": "uint256",
					"name": "",
					"type": "uint256"
				}
			],
			"stateMutability": "view",
			"type": "function"
		},
		{
			"inputs": [
				{
					"internalType": "address",
					"name": "",
					"type": "address"
				}
			],
			"name": "canAddLiquidityBeforeLaunch",
			"outputs": [
				{
					"internalType": "bool",
					"name": "",
					"type": "bool"
				}
			],
			"stateMutability": "view",
			"type": "function"
		},
		{
			"inputs": [],
			"name": "clearStuckBalance",
			"outputs": [],
			"stateMutability": "nonpayable",
			"type": "function"
		},
		{
			"inputs": [],
			"name": "clearStuckEthBalance",
			"outputs": [],
			"stateMutability": "nonpayable",
			"type": "function"
		},
		{
			"inputs": [],
			"name": "decimals",
			"outputs": [
				{
					"internalType": "uint8",
					"name": "",
					"type": "uint8"
				}
			],
			"stateMutability": "view",
			"type": "function"
		},
		{
			"inputs": [
				{
					"internalType": "address",
					"name": "spender",
					"type": "address"
				},
				{
					"internalType": "uint256",
					"name": "subtractedValue",
					"type": "uint256"
				}
			],
			"name": "decreaseAllowance",
			"outputs": [
				{
					"internalType": "bool",
					"name": "",
					"type": "bool"
				}
			],
			"stateMutability": "nonpayable",
			"type": "function"
		},
		{
			"inputs": [
				{
					"internalType": "address",
					"name": "pair",
					"type": "address"
				}
			],
			"name": "delPair",
			"outputs": [
				{
					"internalType": "bool",
					"name": "",
					"type": "bool"
				}
			],
			"stateMutability": "nonpayable",
			"type": "function"
		},
		{
			"inputs": [],
			"name": "devFeeBuy",
			"outputs": [
				{
					"internalType": "uint256",
					"name": "",
					"type": "uint256"
				}
			],
			"stateMutability": "view",
			"type": "function"
		},
		{
			"inputs": [],
			"name": "devFeeSell",
			"outputs": [
				{
					"internalType": "uint256",
					"name": "",
					"type": "uint256"
				}
			],
			"stateMutability": "view",
			"type": "function"
		},
		{
			"inputs": [],
			"name": "doSwapBack",
			"outputs": [],
			"stateMutability": "nonpayable",
			"type": "function"
		},
		{
			"inputs": [],
			"name": "feeDenominator",
			"outputs": [
				{
					"internalType": "uint256",
					"name": "",
					"type": "uint256"
				}
			],
			"stateMutability": "view",
			"type": "function"
		},
		{
			"inputs": [],
			"name": "getCirculatingSupply",
			"outputs": [
				{
					"internalType": "uint256",
					"name": "",
					"type": "uint256"
				}
			],
			"stateMutability": "view",
			"type": "function"
		},
		{
			"inputs": [],
			"name": "getMinterLength",
			"outputs": [
				{
					"internalType": "uint256",
					"name": "",
					"type": "uint256"
				}
			],
			"stateMutability": "view",
			"type": "function"
		},
		{
			"inputs": [
				{
					"internalType": "uint256",
					"name": "index",
					"type": "uint256"
				}
			],
			"name": "getPair",
			"outputs": [
				{
					"internalType": "address",
					"name": "",
					"type": "address"
				}
			],
			"stateMutability": "view",
			"type": "function"
		},
		{
			"inputs": [],
			"name": "gov1Fee",
			"outputs": [
				{
					"internalType": "uint256",
					"name": "",
					"type": "uint256"
				}
			],
			"stateMutability": "view",
			"type": "function"
		},
		{
			"inputs": [],
			"name": "gov1FeeBuy",
			"outputs": [
				{
					"internalType": "uint256",
					"name": "",
					"type": "uint256"
				}
			],
			"stateMutability": "view",
			"type": "function"
		},
		{
			"inputs": [],
			"name": "gov1FeeSell",
			"outputs": [
				{
					"internalType": "uint256",
					"name": "",
					"type": "uint256"
				}
			],
			"stateMutability": "view",
			"type": "function"
		},
		{
			"inputs": [],
			"name": "gov2Fee",
			"outputs": [
				{
					"internalType": "uint256",
					"name": "",
					"type": "uint256"
				}
			],
			"stateMutability": "view",
			"type": "function"
		},
		{
			"inputs": [],
			"name": "gov2FeeBuy",
			"outputs": [
				{
					"internalType": "uint256",
					"name": "",
					"type": "uint256"
				}
			],
			"stateMutability": "view",
			"type": "function"
		},
		{
			"inputs": [],
			"name": "gov2FeeSell",
			"outputs": [
				{
					"internalType": "uint256",
					"name": "",
					"type": "uint256"
				}
			],
			"stateMutability": "view",
			"type": "function"
		},
		{
			"inputs": [],
			"name": "inSwap",
			"outputs": [
				{
					"internalType": "bool",
					"name": "",
					"type": "bool"
				}
			],
			"stateMutability": "view",
			"type": "function"
		},
		{
			"inputs": [
				{
					"internalType": "address",
					"name": "spender",
					"type": "address"
				},
				{
					"internalType": "uint256",
					"name": "addedValue",
					"type": "uint256"
				}
			],
			"name": "increaseAllowance",
			"outputs": [
				{
					"internalType": "bool",
					"name": "",
					"type": "bool"
				}
			],
			"stateMutability": "nonpayable",
			"type": "function"
		},
		{
			"inputs": [],
			"name": "initializePair",
			"outputs": [],
			"stateMutability": "nonpayable",
			"type": "function"
		},
		{
			"inputs": [
				{
					"internalType": "address",
					"name": "",
					"type": "address"
				}
			],
			"name": "isFeeExempt",
			"outputs": [
				{
					"internalType": "bool",
					"name": "",
					"type": "bool"
				}
			],
			"stateMutability": "view",
			"type": "function"
		},
		{
			"inputs": [
				{
					"internalType": "address",
					"name": "account",
					"type": "address"
				}
			],
			"name": "isPair",
			"outputs": [
				{
					"internalType": "bool",
					"name": "",
					"type": "bool"
				}
			],
			"stateMutability": "view",
			"type": "function"
		},
		{
			"inputs": [],
			"name": "jackpotFeeBuy",
			"outputs": [
				{
					"internalType": "uint256",
					"name": "",
					"type": "uint256"
				}
			],
			"stateMutability": "view",
			"type": "function"
		},
		{
			"inputs": [],
			"name": "jackpotFeeSell",
			"outputs": [
				{
					"internalType": "uint256",
					"name": "",
					"type": "uint256"
				}
			],
			"stateMutability": "view",
			"type": "function"
		},
		{
			"inputs": [],
			"name": "jackpotWallet",
			"outputs": [
				{
					"internalType": "contract IJackpot",
					"name": "",
					"type": "address"
				}
			],
			"stateMutability": "view",
			"type": "function"
		},
		{
			"inputs": [],
			"name": "launch",
			"outputs": [],
			"stateMutability": "nonpayable",
			"type": "function"
		},
		{
			"inputs": [],
			"name": "launchedAt",
			"outputs": [
				{
					"internalType": "uint256",
					"name": "",
					"type": "uint256"
				}
			],
			"stateMutability": "view",
			"type": "function"
		},
		{
			"inputs": [],
			"name": "launchedAtTimestamp",
			"outputs": [
				{
					"internalType": "uint256",
					"name": "",
					"type": "uint256"
				}
			],
			"stateMutability": "view",
			"type": "function"
		},
		{
			"inputs": [],
			"name": "liquidityFeeBuy",
			"outputs": [
				{
					"internalType": "uint256",
					"name": "",
					"type": "uint256"
				}
			],
			"stateMutability": "view",
			"type": "function"
		},
		{
			"inputs": [],
			"name": "liquidityFeeSell",
			"outputs": [
				{
					"internalType": "uint256",
					"name": "",
					"type": "uint256"
				}
			],
			"stateMutability": "view",
			"type": "function"
		},
		{
			"inputs": [],
			"name": "name",
			"outputs": [
				{
					"internalType": "string",
					"name": "",
					"type": "string"
				}
			],
			"stateMutability": "view",
			"type": "function"
		},
		{
			"inputs": [],
			"name": "owner",
			"outputs": [
				{
					"internalType": "address",
					"name": "",
					"type": "address"
				}
			],
			"stateMutability": "view",
			"type": "function"
		},
		{
			"inputs": [],
			"name": "renounceOwnership",
			"outputs": [],
			"stateMutability": "nonpayable",
			"type": "function"
		},
		{
			"inputs": [
				{
					"internalType": "address",
					"name": "tokenAddress",
					"type": "address"
				}
			],
			"name": "rescueToken",
			"outputs": [],
			"stateMutability": "nonpayable",
			"type": "function"
		},
		{
			"inputs": [
				{
					"internalType": "bool",
					"name": "_enabled",
					"type": "bool"
				}
			],
			"name": "setAddLiquidityEnabled",
			"outputs": [],
			"stateMutability": "nonpayable",
			"type": "function"
		},
		{
			"inputs": [
				{
					"internalType": "uint256",
					"name": "_gov1Fee",
					"type": "uint256"
				},
				{
					"internalType": "uint256",
					"name": "_gov2Fee",
					"type": "uint256"
				},
				{
					"internalType": "uint256",
					"name": "_liquidityFee",
					"type": "uint256"
				},
				{
					"internalType": "uint256",
					"name": "_jackpotFee",
					"type": "uint256"
				},
				{
					"internalType": "uint256",
					"name": "_bonusFee",
					"type": "uint256"
				},
				{
					"internalType": "uint256",
					"name": "_devFee",
					"type": "uint256"
				},
				{
					"internalType": "uint256",
					"name": "_burnFee",
					"type": "uint256"
				}
			],
			"name": "setBuyFees",
			"outputs": [],
			"stateMutability": "nonpayable",
			"type": "function"
		},
		{
			"inputs": [
				{
					"internalType": "address",
					"name": "_gov1Wallet",
					"type": "address"
				},
				{
					"internalType": "address",
					"name": "_gov2Wallet",
					"type": "address"
				},
				{
					"internalType": "address",
					"name": "_bonusWallet",
					"type": "address"
				},
				{
					"internalType": "address",
					"name": "_jackpotWallet",
					"type": "address"
				},
				{
					"internalType": "address",
					"name": "_devWallet",
					"type": "address"
				}
			],
			"name": "setFeeReceivers",
			"outputs": [],
			"stateMutability": "nonpayable",
			"type": "function"
		},
		{
			"inputs": [
				{
					"internalType": "address",
					"name": "holder",
					"type": "address"
				},
				{
					"internalType": "bool",
					"name": "exempt",
					"type": "bool"
				}
			],
			"name": "setIsFeeExempt",
			"outputs": [],
			"stateMutability": "nonpayable",
			"type": "function"
		},
		{
			"inputs": [
				{
					"internalType": "uint256",
					"name": "_gov1Fee",
					"type": "uint256"
				},
				{
					"internalType": "uint256",
					"name": "_gov2Fee",
					"type": "uint256"
				},
				{
					"internalType": "uint256",
					"name": "_liquidityFee",
					"type": "uint256"
				},
				{
					"internalType": "uint256",
					"name": "_jackpotFee",
					"type": "uint256"
				},
				{
					"internalType": "uint256",
					"name": "_bonusFee",
					"type": "uint256"
				},
				{
					"internalType": "uint256",
					"name": "_devFee",
					"type": "uint256"
				},
				{
					"internalType": "uint256",
					"name": "_burnFee",
					"type": "uint256"
				}
			],
			"name": "setSellFees",
			"outputs": [],
			"stateMutability": "nonpayable",
			"type": "function"
		},
		{
			"inputs": [
				{
					"internalType": "bool",
					"name": "_enabled",
					"type": "bool"
				}
			],
			"name": "setSwapBackSettings",
			"outputs": [],
			"stateMutability": "nonpayable",
			"type": "function"
		},
		{
			"inputs": [],
			"name": "swapEnabled",
			"outputs": [
				{
					"internalType": "bool",
					"name": "",
					"type": "bool"
				}
			],
			"stateMutability": "view",
			"type": "function"
		},
		{
			"inputs": [],
			"name": "symbol",
			"outputs": [
				{
					"internalType": "string",
					"name": "",
					"type": "string"
				}
			],
			"stateMutability": "view",
			"type": "function"
		},
		{
			"inputs": [],
			"name": "totalFeeBuy",
			"outputs": [
				{
					"internalType": "uint256",
					"name": "",
					"type": "uint256"
				}
			],
			"stateMutability": "view",
			"type": "function"
		},
		{
			"inputs": [],
			"name": "totalFeeSell",
			"outputs": [
				{
					"internalType": "uint256",
					"name": "",
					"type": "uint256"
				}
			],
			"stateMutability": "view",
			"type": "function"
		},
		{
			"inputs": [],
			"name": "totalSupply",
			"outputs": [
				{
					"internalType": "uint256",
					"name": "",
					"type": "uint256"
				}
			],
			"stateMutability": "view",
			"type": "function"
		},
		{
			"inputs": [
				{
					"internalType": "address",
					"name": "to",
					"type": "address"
				},
				{
					"internalType": "uint256",
					"name": "amount",
					"type": "uint256"
				}
			],
			"name": "transfer",
			"outputs": [
				{
					"internalType": "bool",
					"name": "",
					"type": "bool"
				}
			],
			"stateMutability": "nonpayable",
			"type": "function"
		},
		{
			"inputs": [
				{
					"internalType": "address",
					"name": "sender",
					"type": "address"
				},
				{
					"internalType": "address",
					"name": "recipient",
					"type": "address"
				},
				{
					"internalType": "uint256",
					"name": "amount",
					"type": "uint256"
				}
			],
			"name": "transferFrom",
			"outputs": [
				{
					"internalType": "bool",
					"name": "",
					"type": "bool"
				}
			],
			"stateMutability": "nonpayable",
			"type": "function"
		},
		{
			"inputs": [
				{
					"internalType": "address",
					"name": "newOwner",
					"type": "address"
				}
			],
			"name": "transferOwnership",
			"outputs": [],
			"stateMutability": "nonpayable",
			"type": "function"
		},
		{
			"stateMutability": "payable",
			"type": "receive"
		}
	]
}